S00B00004170702E73726563F8
S11300004AC6000071C600006FC600006DC600003D
S11300106BC6000069C6000067C6000065C6000024
S113002063C6000061C600005FC600005DC6000034
S11300300C94C42F59C6000057C6000055C60000D2
S113004053C6000051C600000C9453104DC6000066
S11300504BC60000E4C6000047C6000045C60000C9
S113006043C6000041C600003FC600003DC6000074
S11300703BC6000039C600000C94231135C60000AD
S113008033C6000031C600002FC60000444D58207E
S113009063682E202533642D2533643A00253264A9
S11300A02000464C20002532642000464C200025C8
S11300B032642000464C20003E253032643C00204F
S11300C02530326420002025303264200020464C44
S11300D020003E253032643C00202530326420006C
S11300E02025303264200020464C20003E2530324A
S11300F0643C002025303264200020253032642006
S11301000020464C20003E253032643C002025303F
S1130110326420002025303264200020464C200028
S11301203E253032643C00202530326420002025F6
S1130130303264200020464C20003E253032643C9E
S11301400020253032642000202530326420002035
S1130150464C2000456C7369732064696769746157
S11301606C202B2B002020202056202025642E25B7
S113017064202020202020202000202E2E2E626F9C
S11301806F74696E672E2E2E202000000305070869
S11301900A0B0C0D0E0F1011121314151617181943
S11301A0191A1B1C1D1D1E1F202021222323242558
S11301B02526272828292A2A2B2C2C2D2E2E2F3091
S11301C03031323233333435353637373838393ADB
S11301D03A3B3C3C3D3D3E3F3F404041424243432D
S11301E0444545464647474849494A4A4B4C4C4D85
S11301F04D4E4F4F505051515253535454555656DF
S113020057575859595A5A5B5C5C5D5D5E5F5F6035
S11302106061626263636465656666676868696A8B
S11302206A6B6B6C6D6D6E6F6F70707172727374DC
S113023074757676777878797A7A7B7C7D7D7E7F23
S11302407F808181828384848586878788898A8B5D
S11302508B8C8D8E8F8F9091929394959596979881
S1130260999A9B9C9D9E9FA0A1A2A3A4A5A6A8A980
S1130270AAABACAEAFB0B2B3B5B6B8BABBBDBFC132
S1130280C3C5C7CACCD0D3D7DDE4FF000305060835
S1130290090A0C0D0E1011121314161718191A1C32
S11302A01C1E1F2021222324262628292A2B2C2DFC
S11302B02E2F303133333435373838393B3C3D3EDB
S11302C03F3F4142434445464748494A4B4C4D4EC3
S11302D04F505152535455565758595A5B5B5C5EB4
S11302E05F606162636465666667686A6B6C6D6EA5
S11302F06E6F7071737474757677787A7A7B7C7D9F
S11303007E7F808182828385868787888A8B8B8C97
S11303108D8F8F909192939495969798999A9B9C90
S11303209C9D9F9FA0A1A3A3A4A5A6A7A8A9AAAB8F
S1130330ABACAEAEAFB1B1B2B3B4B5B6B7B8B8B991
S1130340BBBBBCBEBEBFC1C1C2C3C4C5C6C7C8C98E
S1130350CACACBCDCDCECFD0D1D2D3D3D4D6D6D793
S1130360D8D9DBDBDCDDDEDEDFE1E1E2E3E4E6E697
S1130370E7E8E9EAEBEBECEEEEEFF0F1F2F3F3F49D
S1130380F6F7F8F8F9FAFBFCFDFEFF101011121352
S11303901415161718191A1B1C1D1E1E1F202122A6
S11303A0232425262728292A2B2C2D2D2E2F3031A6
S11303B032333435363738393A3B3C3C3D3E3F40A6
S11303C04142434445464748494A4B4B4C4D4E4FA6
S11303D0505152535455565758595A5A5B5C5D5EA6
S11303E05F60616263646566676869696A6B6C6DA6
S11303F06E6F70717273747576777878797A7B7CA6
S11304007D7E7F80818283848586878788898A8BA5
S11304108C8D8E8F90919293949596969798999AA5
S11304209B9C9D9E9FA0A1A2A3A4A5A5A6A7A8A9A5
S1130430AAABACADAEAFB0B1B2B3B4B4B5B6B7B8A5
S1130440B9BABBBCBDBEBFC0C1C2C3C3C4C5C6C7A5
S1130450C8C9CACBCCCDCECFD0D1D2D2D3D4D5D6A5
S1130460D7D8D9DADBDCDDDEDFE0E1E1E2E3E4E5A5
S1130470E6E7E8E9EAEBECEDEEEFF0F0F1F2F3F4A5
S1130480F5F6F7F8F9FAFBFCFDFEFF00222223241F
S11304902526272828292A2B2C2D2E2F2F303132A0
S11304A033343536363738393A3B3C3C3D3E3F40B1
S11304B0414243434445464748494A4A4B4C4D4EC2
S11304C04F5050515253545556575758595A5B5CD4
S11304D05D5E5E5F60616263646465666768696AE5
S11304E06B6B6C6D6E6F70717272737475767778F6
S11304F079797A7B7C7D7E7F7F8081828384858607
S1130500868788898A8B8C8D8D8E8F909192939318
S11305109495969798999A9A9B9C9D9E9FA0A1A129
S1130520A2A3A4A5A6A7A7A8A9AAABACADAEAEAF3B
S1130530B0B1B2B3B4B5B5B6B7B8B9BABBBCBCBD4B
S1130540BEBFC0C1C2C2C3C4C5C6C7C8C9C9CACB5D
S1130550CCCDCECFD0D0D1D2D3D4D5D6D6D7D8D96E
S1130560DADBDCDDDDDEDFE0E1E2E3E4E4E5E6E77F
S1130570E8E9EAEAEBECEDEEEFF0F1F1F2F3F4F591
S1130580F6F7F8F8F9FAFBFCFDFEFF00222223241B
S11305902526272828292A2B2C2D2E2F2F3031329F
S11305A033343536363738393A3B3C3C3D3E3F40B0
S11305B0414243434445464748494A4A4B4C4D4EC1
S11305C04F5050515253545556575758595A5B5CD3
S11305D05D5E5E5F60616263646465666768696AE4
S11305E06B6B6C6D6E6F70717272737475767778F5
S11305F079797A7B7C7D7E7F7F8081828384858606
S1130600868788898A8B8C8D8D8E8F909192939317
S11306109495969798999A9A9B9C9D9E9FA0A1A128
S1130620A2A3A4A5A6A7A7A8A9AAABACADAEAEAF3A
S1130630B0B1B2B3B4B5B5B6B7B8B9BABBBCBCBD4A
S1130640BEBFC0C1C2C2C3C4C5C6C7C8C9C9CACB5C
S1130650CCCDCECFD0D0D1D2D3D4D5D6D6D7D8D96D
S1130660DADBDCDDDDDEDFE0E1E2E3E4E4E5E6E77E
S1130670E8E9EAEAEBECEDEEEFF0F1F1F2F3F4F590
S1130680F6F7F8F8F9FAFBFCFDFEFF0000000000A5
S11306900000000000000000000000000000000056
S11306A00000000000000000000000000000000046
S11306B00000000000000000000000000000000036
S11306C00000000000000000000000000000000026
S11306D00000000000000000000000000000000016
S11306E00000000000000000000000FFFFFFFFFF0B
S11306F0FFFFFFFFFFFFFFFFFFFFFFFFFFFFFFFF06
S1130700FFFFFFFFFFFFFFFFFFFFFFFFFFFFFFFFF5
S1130710FFFFFFFFFFFFFFFFFFFFFFFFFFFFFFFFE5
S1130720FFFFFFFFFFFFFFFFFFFFFFFFFFFFFFFFD5
S1130730FFFFFFFFFFFFFFFFFFFFFFFFFFFFFFFFC5
S1130740FFFFFFFFFFFFFFFFFFFFFFFFFFFFFFFFB5
S1130750FFFFFFFFFFFFFFFFFFFFFFFFFFFFFFFFA5
S1130760FFFFFFFFFFFFFFFFFFFFFFFFFFFFFFFF95
S1130770FFFFFFFFFFFFFFFFFFFFFFFFFFFFFFFF85
S1130780FFFFFFFFFFFFFFFFFFFFFF20204D616919
S11307906E20202020202020202020002020202027
S11307A02020204D656E752020202020004D656D91
S11307B0202020506C617920202053747000202068
S11307C020204D656D6F727920202020202000208C
S11307D02043757272656E742025642020202020C9
S11307E00045646974202053746F20202053746F73
S11307F02B00202053746F72656420746F3A20209C
S113080020200020202020202020202020256420BB
S1130810202020200020202020457363617065641F
S113082020202020200020202020202020202020E4
S113083020202020202000202053746F7265642023
S1130840746F3A2020202000202020202020202007
S113085020202564202020202000202020204D65F9
S11308606D6F72792020202020200020202020205D
S1130870202066756C6C2020202020002020202061
S1130880204D656D6F7279202020202000202020CB
S113089043757272656E743A2020253264202000FC
S11308A020202053746F726520746F3A20253264BF
S11308B0202000202020204D656D6F72792020209B
S11308C0202020002020202020456469742020203E
S11308D0202020200054696D6520202044656C2070
S11308E02020436C72002053656C656374206D6531
S11308F06D6F727920200020746F20656469742004
S113090074696D652020200020205370656369663A
S113091079206E6577202020002020202020746913
S11309206D6520202020202020002053656C656305
S113093074206D656D6F7279202000202020746F03
S11309402064656C6574652020202000202050728E
S113095065737320456E7465722020200020746FC7
S11309602064656C657465206D256420202000205A
S11309706F722070726573732045736361706500D4
S1130980202020746F2063616E63656C202020201A
S11309900020507265737320456E74657220746F05
S11309A0200020636C656172206D656D6D6F7269E6
S11309B0657300206F7220707265737320457363D2
S11309C061706500202020746F2063616E63656C24
S11309D020202020002020202070726F6365656431
S11309E02020202020002020436C656172696E67FE
S11309F020616C6C202000202020206D656D6D6FBF
S1130A0072696573202020002020204D656D6F726F
S1130A107920202532642020200020202020646FAB
S1130A206573206E6F742020202000202020202059
S1130A306578697374212020202020002020205014
S1130A406C61796261636B20202020200020204E9D
S1130A506578742020202025642020202020004256
S1130A6061636B202020546F2020204E6578740031
S1130A7020202053656C656374206E657874202093
S1130A8000202043726F7373666164652020202008
S1130A902000202070657263656E74203D20202044
S1130AA0202020004261636B2020486F6C6420206A
S1130AB020476F200025326400464C0020436F6EAF
S1130AC066696775726174696F6E2020002020204A
S1130AD02020536574757020202020202000446D50
S1130AE078202020437572762020446961670020B5
S1130AF0436F6E6669677572652020202020200090
S1130B0020202020444D5820616464726573732052
S1130B100020204F7574707574206375727665209B
S1130B20200020202020202074797065202020209F
S1130B302020003E253032643C00202530326420E1
S1130B400020253164200020204C69766520766FD2
S1130B506C746167652020004C313D253364560078
S1130B604C323D25336456004C333D2533645600E6
S1130B702054696D656261736520736574757020B6
S1130B800020202020202020202020202020202081
S1130B9020004E65742E2050532020202020202039
S1130BA02020004167722E20505320202020202036
S1130BB02020200020203C3C202000202020202039
S1130BC020002020202020200020203C3C20200049
S1130BD0202044656275672020004C313D25336434
S1130BE056004C323D25336456004C333D25336466
S1130BF05600205265666572656E6365202020206C
S1130C0020200020202020766F6C7461676573209B
S1130C10202020003E4C25643C00204C256420000C
S1130C2025336400253033640025303464002020EB
S1130C302043757272656E743A2025326420202038
S1130C400020202053656C656374203A20253264AB
S1130C5020202000000102030C0D0E0F04050607DE
S1130C601011121308090A0B1415161700000000BE
S1130C700101010102020202000000000101010160
S1130C80020202025C07B90D330E2C122B137E15DF
S1130C90D12C24305A3211241FBECFEFD0E1DEBF55
S1130CA0CDBF11E0A0E0B1E0ECE8FFE600E00BBF4F
S1130CB002C007900D92AC30B107D9F722E0ACE046
S1130CC0B1E001C01D92AF3AB207E1F716E0CBE400
S1130CD0D6E004C02197FE010E94D732C234D10766
S1130CE0C9F71FD70C94C4378BC9CF93DF9300D0B7
S1130CF0CDB7DEB79A8389830F900F90DF91CF91A0
S1130D000895CF93DF93CDB7DEB787E290E020EC70
S1130D10FC01208386E290E02FECFC012083DF912C
S1130D20CF910895CF93DF9300D0CDB7DEB787E29C
S1130D3090E0FC01808187708983809119018A3059
S1130D4078F58FE590E0FC0180818A83F89484E251
S1130D5090E0FC01208131818981882F90E04981D4
S1130D60442F50E0440F551F4D5E5E4FFA01408101
S1130D705181240F351F880F991F8D5E9E4FFC01F2
S1130D80318320838FE590E02A81FC0120838981CF
S1130D90823029F4809119018F5F8093190123C057
S1130DA08981882F90E02981222F30E0220F331F80
S1130DB02D5E3E4FF90120813181880F991F835F99
S1130DC09E4FFC01318320838981882F90E0880F16
S1130DD0991F8D5E9E4FFC011182108289818230A1
S1130DE011F41092190187E290E029812F5F298381
S1130DF02981206CFC0120838981833030F486E2D0
S1130E0090E02FECFC01208305C086E290E026E60A
S1130E10FC0120830F900F90DF91CF9108951F92D2
S1130E200F9200905F000F92112400905B000F92CC
S1130E302F933F934F935F936F937F938F939F93DE
S1130E40AF93BF93EF93FF93CF93DF93CDB7DEB709
S1130E5069DFDF91CF91FF91EF91BF91AF919F91A6
S1130E608F917F916F915F914F913F912F910F904F
S1130E7000925B000F9000925F000F901F901895F6
S1130E80CF93DF9300D000D0CDB7DEB79A838983A8
S1130E907C836B8389819A81019739F48B819C814E
S1130EA0019619F48CE091E020DF0F900F900F90E1
S1130EB00F90DF91CF910895CF93DF93CDB7DEB735
S1130EC06FEF7FEF81E090E0DBDFDF91CF9108955A
S1130ED0CF93DF9300D0CDB7DEB79A8389830F9089
S1130EE00F90DF91CF910895CF93DF93CDB7DEB705
S1130EF02F970FB6F894DEBF0FBECDBF99878887B2
S1130F001A828EE991E00E944E1532C1A8959A8109
S1130F10892F880F890F880F880F8B832091C50133
S1130F203091C6018B81882F90E0820F931FAC0112
S1130F30455F5F4F2091C5013091C6018B81882F99
S1130F4090E0280F391F8CE890E0652F6F934F9342
S1130F50432F4F932F93292F2F938F931F921F92D9
S1130F608EE991E0892F8F938EE991E08F930E940F
S1130F7030158DB79EB70A960FB6F894DEBF0FBE34
S1130F80CDBF1982CFC09981892F880F890F8B5FBC
S1130F908C838981282F30E08B81882F90E0820F09
S1130FA0931F8C599E4FFC018081882F90E024E68A
S1130FB0289FA001299F500D11242FEF30E0CA0172
S1130FC0B9010E947532CB018D834C8161E08EE9B9
S1130FD091E00E94F5148D81843690F48D81282F40
S1130FE030E08DE990E0432F4F932F93292F2F93D7
S1130FF08F930E9478330F900F900F900F9009C039
S113100082EA90E0292F2F938F930E9478330F90D8
S11310100F904C8162E08EE991E00E94F514898181
S1131020882F90E09C012C5F3F4F8B81882F90E0AC
S1131030820F931F8C599E4FFC018081882F90E072
S113104024E6289FA001299F500D11242FEF30E0A2
S1131050CA01B9010E947532CB018D838D8184361A
S113106090F48D81282F30E086EA90E0432F4F934F
S11310702F93292F2F938F930E9478330F900F90E3
S11310800F900F9009C08BEA90E0292F2F938F9334
S11310900E9478330F900F908981882F90E09C01F3
S11310A0285F3F4F8B81882F90E0820F931F8C59CC
S11310B09E4FFC018081882F90E024E6289FA001A8
S11310C0299F500D11242FEF30E0CA01B9010E946D
S11310D07532CB018D834C8163E08EE991E00E94EF
S11310E0F5148D81843690F48D81282F30E08FEAB9
S11310F090E0432F4F932F93292F2F938F930E9488
S113110078330F900F900F900F9009C084EB90E00C
S1131110292F2F938F930E9478330F900F908981FA
S11311208F5F89838981843008F42DCF0E9438121F
S11311309F838E8321E08E819F81019609F420E0B4
S11311402223B1F08E81882F90E08031910541F007
S11311508038910541F0049709F00AC01A8208C04A
S113116081E08A8305C081EA91E00E94A415000011
S113117090917C0181E0992309F480E0882309F0AF
S1131180C5CE2F960FB6F894DEBF0FBECDBFDF914C
S1131190CF910895CF93DF93CDB7DEB76C970FB699
S11311A0F894DEBF0FBECDBF98878F838EE991E0A0
S11311B00E944E1581E080939401A89580911B01B3
S11311C0883008F00BC11982ECC08981880F880F20
S11311D08A838981882F90E08C599E4FFC018081FD
S11311E0882F90E024E6289FA001299F500D112408
S11311F02FEF30E0CA01B9010E947532CB018B8315
S11312004A8160E08EE991E00E94F51490911B01FF
S113121089819817A9F48981882F90E09C012F5F18
S11312203F4F88EB90E0432F4F932F93292F2F9319
S11312308F930E9478330F900F900F900F9014C0EB
S11312408981882F90E09C012F5F3F4F8FEB90E0C6
S1131250432F4F932F93292F2F938F930E947833EB
S11312600F900F900F900F904A8161E08EE991E00A
S11312700E94F5148B81843690F48B81282F30E002
S113128086EC90E0432F4F932F93292F2F938F9326
S11312900E9478330F900F900F900F9009C08DEC3F
S11312A090E0292F2F938F930E9478330F900F9003
S11312B08981882F90E004968C599E4FFC0180818F
S11312C0882F90E024E6289FA001299F500D112427
S11312D02FEF30E0CA01B9010E947532CB018B8334
S11312E04A8162E08EE991E00E94F51480911B012D
S11312F0282F30E08981882F90E004962817390739
S1131300A9F48981882F90E09C012B5F3F4F82EDE7
S113131090E0432F4F932F93292F2F938F930E9465
S113132078330F900F900F900F9014C08981882FFD
S113133090E09C012B5F3F4F89ED90E0432F4F934A
S11313402F93292F2F938F930E9478330F900F9010
S11313500F900F904A8163E08EE991E00E94F514AA
S11313608B81843690F48B81282F30E080EE90E0DE
S1131370432F4F932F93292F2F938F930E947833CA
S11313800F900F900F900F9009C087EE90E0292FD7
S11313902F938F930E9478330F900F9089818F5FE2
S11313A089838981843008F410CF80911B01837074
S11313B0880F880F8D5F8A8380911B01843038F4F5
S11313C04A8161E08EE991E00E94F51406C04A81E9
S11313D063E08EE991E00E94F51428C280911B011C
S11313E0803108F012C11982F3C08981880F880FF7
S11313F08A838981882F90E008968C599E4FFC013E
S11314008081882F90E024E6289FA001299F500D19
S113141011242FEF30E0CA01B9010E947532CB01CB
S11314208B834A8160E08EE991E00E94F5148091FB
S11314301B01282F30E08981882F90E00896281717
S11314403907A9F48981882F90E09C01275F3F4FD9
S11314508CEE90E0432F4F932F93292F2F938F934C
S11314600E9478330F900F900F900F9014C08981D1
S1131470882F90E09C01275F3F4F83EF90E0432F3C
S11314804F932F93292F2F938F930E9478330F908C
S11314900F900F900F904A8161E08EE991E00E94D5
S11314A0F5148B81843690F48B81282F30E08AEFF9
S11314B090E0432F4F932F93292F2F938F930E94C4
S11314C078330F900F900F900F9009C081E091E056
S11314D0292F2F938F930E9478330F900F90898137
S11314E0882F90E00C968C599E4FFC018081882FA8
S11314F090E024E6289FA001299F500D11242FEF8E
S113150030E0CA01B9010E947532CB018B834A8154
S113151062E08EE991E00E94F51480911B01282F6E
S113152030E08981882F90E00C9628173907A9F4B8
S11315308981882F90E09C01235F3F4F86E091E0F2
S1131540432F4F932F93292F2F938F930E947833F8
S11315500F900F900F900F9014C08981882F90E006
S11315609C01235F3F4F8DE091E0432F4F932F93D6
S1131570292F2F938F930E9478330F900F900F9001
S11315800F904A8163E08EE991E00E94F5148B810B
S1131590843690F48B81282F30E084E191E0432F4E
S11315A04F932F93292F2F938F930E9478330F906B
S11315B00F900F900F9009C08BE191E0292F2F938A
S11315C08F930E9478330F900F9089818F5F898366
S11315D08981843008F409CF80911B018370880FBE
S11315E0880F8D5F8A8380911B018C3038F44A8187
S11315F061E08EE991E00E94F51406C04A8163E03F
S11316008EE991E00E94F51411C11982F3C0898119
S1131610880F880F8A838981882F90E040968C599F
S11316209E4FFC018081882F90E024E6289FA00132
S1131630299F500D11242FEF30E0CA01B9010E94F7
S11316407532CB018B834A8160E08EE991E00E9480
S1131650F51480911B01282F30E08981882F90E0B8
S1131660409628173907A9F48981882F90E09C01B6
S11316702F5E3F4F80E291E0432F4F932F93292F0A
S11316802F938F930E9478330F900F900F900F90A9
S113169014C08981882F90E09C012F5E3F4F87E220
S11316A091E0432F4F932F93292F2F938F930E94D1
S11316B078330F900F900F900F904A8161E08EE97C
S11316C091E00E94F5148B81843690F48B81282F4D
S11316D030E08EE291E0432F4F932F93292F2F93E5
S11316E08F930E9478330F900F900F900F9009C042
S11316F085E391E0292F2F938F930E9478330F90E5
S11317000F908981882F90E044968C599E4FFC015C
S11317108081882F90E024E6289FA001299F500D06
S113172011242FEF30E0CA01B9010E947532CB01B8
S11317308B834A8162E08EE991E00E94F5148091E6
S11317401B01282F30E08981882F90E044962817C8
S11317503907A9F48981882F90E09C012B5E3F4FC3
S11317608AE391E0432F4F932F93292F2F938F9345
S11317700E9478330F900F900F900F9014C08981BE
S1131780882F90E09C012B5E3F4F81E491E0432F32
S11317904F932F93292F2F938F930E9478330F9079
S11317A00F900F900F904A8163E08EE991E00E94C0
S11317B0F5148B81843690F48B81282F30E088E4F3
S11317C091E0432F4F932F93292F2F938F930E94B0
S11317D078330F900F900F900F9009C08FE491E031
S11317E0292F2F938F930E9478330F900F90898124
S11317F08F5F89838981843008F409CF80911B012C
S11318008370880F880F8D5F8A8380911B018431D8
S113181038F44A8161E08EE991E00E94F51406C033
S11318204A8163E08EE991E00E94F5140CC0A8950A
S113183090917C0181E0992309F480E0882319F0D8
S113184010929401E6C014D69D838C8321E08C8190
S11318509D81019609F020E0222349F78C81882F8D
S113186090E080319105E1F08131910534F48430C8
S1131870910561F00897F1F0CBC08034910509F42B
S11318806BC08038910509F4B9C0C2C080911B01B6
S1131890882329F080911B01815080931B018DCCFA
S11318A080911B01873128F480911B018F5F809305
S11318B01B0183CC80911B01882F90E08C599E4F93
S11318C0FC018081882F90E024E6289FA001299FB5
S11318D0500D11242FEF30E0CA01B9010E94753276
S11318E0CB018B8380911B01882F90E08C599E4FF4
S11318F0FC01908181E09F3F09F080E0882309F09A
S11319002AC080911B01882F90E09C012C593E4FE6
S1131910F90120812F5F8C599E4FFC012083809117
S11319201B01882F90E08C599E4FFC018081882FE9
S113193090E024E6289FA001299F500D11242FEF49
S113194030E0CA01B9010E947532CB018E839E81B9
S11319508B81981739F231CC80911B01882F90E04C
S11319608C599E4FFC018081882F90E024E6289FAB
S1131970A001299F500D11242FEF30E0CA01B901B5
S11319800E947532CB018B8380911B01882F90E0DC
S11319908C599E4FFC01908181E0992309F080E0ED
S11319A0882309F02AC080911B01882F90E09C01B4
S11319B02C593E4FF901208121508C599E4FFC0136
S11319C0208380911B01882F90E08C599E4FFC014D
S11319D08081882F90E024E6289FA001299F500D44
S11319E011242FEF30E0CA01B9010E947532CB01F6
S11319F08E839E818B81981739F2DFCB10929401EC
S1131A0081EA91E00E94A41581E08093940101C0D1
S1131A100DCF6C960FB6F894DEBF0FBECDBFDF912D
S1131A20CF910895CF93DF9300D000D000D0CDB7ED
S1131A30DEB79E838D8384E591E0292F2F938F93C6
S1131A401F921F928EE991E0892F8F938EE991E086
S1131A508F930E9430150F900F900F900F900F905E
S1131A600F9085E691E01F921F921F9221E02F9321
S1131A70292F2F938F931F9281E08F938EE991E00A
S1131A80892F8F938EE991E08F93EAD78DB79EB714
S1131A900A960FB6F894DEBF0FBECDBF8AE791E079
S1131AA0292F2F938F931F9283E08F938EE991E0D8
S1131AB0892F8F938EE991E08F93D2D70F900F9057
S1131AC00F900F900F900F9019821A821B821C8224
S1131AD00DC0A895000089819A81AB81BC810196D3
S1131AE0A11DB11D89839A83AB83BC8389819A81AB
S1131AF0AB81BC81803A9648A140B10550F37894FB
S1131B0090917C0181E0992309F480E0882321F0FD
S1131B108D819E81E9D903C08D819E813BDBA8958F
S1131B20EFCFCF93DF93CDB7DEB78AE191E07ADFD1
S1131B3080E090E0DF91CF910895CF93DF9300D0C0
S1131B4000D0CDB7DEB79A8389837C836B83898188
S1131B509A81019739F48B819C81019619F48AE169
S1131B6091E0B6D90F900F900F900F90DF91CF9125
S1131B700895CF93DF93CDB7DEB76FEF7FEF81E0AA
S1131B8090E0DBDFDF91CF910895CF93DF9300D016
S1131B90CDB7DEB79A8389830F900F90DF91CF91F1
S1131BA00895CF93DF9300D000D01F92CDB7DEB756
S1131BB08C836D838C81882F90E081529E4FFC0131
S1131BC08081282F30E08D81882F90E0322F2227CA
S1131BD0820F931F85579D4F9A83898389819A81A8
S1131BE0FC0184918B838B810F900F900F900F9049
S1131BF00F90DF91CF910895CF93DF9300D000D061
S1131C00CDB7DEB78C838C81882F90E085579E4FAB
S1131C109A83898389819A81FC0184918B838B8146
S1131C200F900F900F900F90DF91CF910895CF9365
S1131C30DF9300D000D0CDB7DEB79A8389837C834D
S1131C406B8389819A81019739F48B819C810196F8
S1131C5019F48CE191E099DF0F900F900F900F90A1
S1131C60DF91CF910895CF93DF93CDB7DEB76FEFB8
S1131C707FEF81E090E0DBDFDF91CF910895CF9398
S1131C80DF93CDB7DEB728970FB6F894DEBF0FBE4B
S1131C90CDBF9A8389837C836B835E834D8338872E
S1131CA02F832B813C8189819A81A901481B590B7F
S1131CB0CA0199231CF491958195910990931E0171
S1131CC080931D012B813C8189819A81821793071E
S1131CD01CF481E090E002C08FEF9FEF9093240109
S1131CE0809323012F8138858D819E81A901481B12
S1131CF0590BCA0199231CF49195819591099093EC
S1131D00200180931F012F8138858D819E81821748
S1131D1093071CF481E090E002C08FEF9FEF909353
S1131D2026018093250189819A8190932C018093C7
S1131D302B0180912B0190912C0190932801809389
S1131D4027018D819E8190932E0180932D01809196
S1131D502D0190912E0190932A01809329018B816A
S1131D609C819093300180932F018F81988590936B
S1131D7032018093310110922201109221012896A0
S1131D800FB6F894DEBF0FBECDBFDF91CF9108959B
S1131D90CF93DF93CDB7DEB720911D0130911E01A3
S1131DA080911F0190912001281739070CF44BC032
S1131DB020912701309128018091230190912401E1
S1131DC0820F931F90932801809327012091210172
S1131DD03091220180911F0190912001820F931F65
S1131DE090932201809321012091210130912201BD
S1131DF080911D0190911E01281739072CF48091C0
S1131E00290190912A0169C02091290130912A0168
S1131E108091250190912601820F931F90932A01AE
S1131E2080932901209121013091220180911D018B
S1131E3090911E01A901481B590BCA0190932201DC
S1131E408093210146C02091290130912A0180917B
S1131E50250190912601820F931F90932A0180936C
S1131E602901209121013091220180911D0190913D
S1131E701E01820F931F90932201809321012091D0
S1131E8021013091220180911F0190912001281796
S1131E9039070CF4D8CF2091270130912801809183
S1131EA0230190912401820F931F90932801809322
S1131EB02701209121013091220180911F019091ED
S1131EC02001A901481B590BCA0190932201809358
S1131ED021018091290190912A01DF91CF910895E8
S1131EE0CF93DF9300D0CDB7DEB79A83898389E29D
S1131EF090E023E0FC0120838BE290E0FC0110825F
S1131F008AE290E025E9FC01208385E990E026E05F
S1131F10FC01208382E390E022E330E0F901208198
S1131F202F7EFC01208381E390E021E330E0F9017E
S1131F3020812061FC01208389E990E023E0FC01F9
S1131F4020838BE990E0FC0110828AE990E02DE97E
S1131F50FC0120838DE990E026E0FC0120830F90B2
S1131F600F90DF91CF910895CF93DF9300D01F920C
S1131F70CDB7DEB78BE290E0FC01808189838AE2F1
S1131F8090E0FC0180818A838CE290E0FC018081F6
S1131F908B838B81882379F48A81882F90E08270E7
S1131FA09927892B41F481E080937F01109280016D
S1131FB01092810172C090917F0181E0992309F40C
S1131FC080E08823C9F010927F018B81882309F077
S1131FD064C081E08093820181E08093800184E386
S1131FE091E0909388018093870110928C01109264
S1131FF08B0189818B8351C09091800181E0992369
S113200009F480E08823F9F080918B0190918C0190
S1132010019690938C0180938B012091C50130919E
S1132020C60141E08217930708F440E0442351F0CD
S113203010928C0110928B011092800181E08093A8
S1132040810101C02AC09091810181E0992309F4A2
S113205080E0882311F180918701909188019C018F
S11320602F5F3F4F30938801209387012B81FC0120
S1132070208380918B0190918C01019690938C0127
S113208080938B0121E0489708F420E0222329F073
S11320908EE180937D01109281010F900F900F903B
S11320A0DF91CF9108951F920F9200905F000F92DD
S11320B0112400905B000F922F933F934F935F93F3
S11320C06F937F938F939F93AF93BF93EF93FF93FC
S11320D0CF93DF93CDB7DEB747DFDF91CF91FF9189
S11320E0EF91BF91AF919F918F917F916F915F918C
S11320F04F913F912F910F9000925B000F900092AF
S11321005F000F901F901895CF93DF9300D01F921C
S1132110CDB7DEB78BE990E0FC01808189838AE941
S113212090E0FC0180818A838CE990E0FC0180814D
S11321308B838B81882379F48A81882F90E0827045
S11321409927892B41F481E08093830110928401C3
S11321501092850172C09091830181E0992309F462
S113216080E08823C9F0109283018B81882309F0D1
S113217064C081E08093860181E0809384018CE4D3
S113218091E090938A018093890110928E011092BC
S11321908D0189818B8351C09091840181E09923C1
S11321A009F480E08823F9F080918D0190918E01EB
S11321B0019690938E0180938D012091C5013091F9
S11321C0C60141E08217930708F440E0442351F02C
S11321D010928E0110928D011092840181E08093FF
S11321E0850101C02AC09091850181E0992309F4F9
S11321F080E0882311F18091890190918A019C01EA
S11322002F5F3F4F30938A01209389012B81FC017A
S1132210208380918D0190918E01019690938E017F
S113222080938D0121E0489708F420E0222329F0CF
S11322308EE180937E01109285010F900F900F9094
S1132240DF91CF9108951F920F9200905F000F923B
S1132250112400905B000F922F933F934F935F9351
S11322606F937F938F939F93AF93BF93EF93FF935A
S1132270CF93DF93CDB7DEB747DFDF91CF91FF91E7
S1132280EF91BF91AF919F918F917F916F915F91EA
S11322904F913F912F910F9000925B000F9000920D
S11322A05F000F901F901895CF93DF931F92CDB7C7
S11322B0DEB780918F01882311F580917D01809391
S11322C07C0191E0882309F490E0992309F48AC001
S11322D0198211C08981882F90E02981222F30E052
S11322E02C5C3E4FF90120818C599E4FFC012083C8
S11322F089818F5F89838981883160F373C080917C
S11323008F01813011F580917E0180937C0191E0F1
S1132310882309F490E0992309F464C0198211C058
S11323208981882F90E02981222F30E0245B3E4F61
S1132330F90120818C599E4FFC01208389818F5F94
S113234089838981883160F34DC080917D01882320
S113235021F480917E01882311F081E001C080E0A6
S1132360982F90937C0181E0992309F480E08823DD
S1132370C9F1198234C08981882F90E08C5C9E4F0A
S1132380FC0120818981882F90E0845B9E4FFC01B1
S1132390908181E0921708F080E0882379F08981A8
S11323A0882F90E02981222F30E02C5C3E4FF901E8
S11323B020818C599E4FFC0120830EC08981882F77
S11323C090E02981222F30E0245B3E4FF9012081E7
S11323D08C599E4FFC01208389818F5F8983898179
S11323E0883148F290917D0181E0992309F480E0DD
S11323F0882329F080917D01815080937D01909103
S11324007E0181E0992309F480E0882329F08091FA
S11324107E01815080937E010F90DF91CF910895CA
S1132420CF93DF9300D000D0CDB7DEB79A838983F2
S11324307C836B8389819A81019739F48B819C8198
S1132440019619F483E391E04BDD0F900F900F9008
S11324500F90DF91CF910895CF93DF93CDB7DEB77F
S11324606FEF7FEF81E090E0DBDFDF91CF910895A4
S1132470CF93DF9300D0CDB7DEB7A7D0882F90E0FD
S11324809A83898321E089819A81892B09F420E048
S1132490222319F089819A8102C08FEF9FEF0F9058
S11324A00F90DF91CF910895CF93DF9300D0CDB7F4
S11324B0DEB79A83898383E290E02CEFFC012083CA
S11324C082E290E022E230E0F90120812370FC01F5
S11324D020830F900F90DF91CF910895CF93DF93D6
S11324E000D0CDB7DEB780910701882331F0809109
S11324F0070181508093070163C081E290E0FC01F1
S1132500808183608A838A818F3F11F410929501C0
S113251080919401282F30E081E09A819F3F09F453
S113252080E0882F90E082239323892BE1F080912F
S113253095018A3028F4809195018F5F80939501ED
S1132540809195018A3040F08A81809590910601AE
S11325509864892389830DC08A81809590910601AE
S11325608923898306C08A818095909106018923F5
S1132570898389818823F1F0809193018830D0F494
S113258080919101882F90E08A569E4F2981FC0109
S11325902083809193018F5F8093930180919101B7
S11325A0873030F4809191018F5F8093910102C054
S11325B0109291018A818093060182E4809307013D
S11325C00F900F90DF91CF910895CF93DF931F92D7
S11325D0CDB7DEB780919301882311F480E01BC04E
S11325E080919201882F90E08A569E4FFC01808151
S11325F0898380919201873030F4809192018F5FBA
S11326008093920102C010929201809193018150B3
S11326108093930189810F90DF91CF910895CF9397
S1132620DF9300D000D0CDB7DEB79A8389837C8353
S11326306B8389819A81019739F48B819C810196FE
S113264019F480E991E030DF0F900F900F900F9014
S1132650DF91CF910895CF93DF93CDB7DEB76FEFBE
S11326607FEF81E090E0DBDFDF91CF910895CF939E
S1132670DF9300D01F92CDB7DEB789837B836A8353
S1132680898172D180E090E00F900F900F90DF91DC
S1132690CF910895CF93DF9300D01F92CDB7DEB7CB
S11326A09B838A8360E070E087E393E10E94F032C9
S11326B09093A00180939F018BE390E02FEFFC01A6
S11326C020838AE390E0FC01108285E390E025E317
S11326D030E0F90120812F77FC01208384E390E02E
S11326E024E330E0F90120812068FC01208385E6A1
S11326F090E025E630E0F90120812160FC0120838F
S113270084E690E024E630E0F90120812160FC01B8
S1132710208385E390E025E330E0F90120812E7FDA
S1132720FC01208384E390E024E330E0F90120817C
S11327302160FC012083198206C08A819B818CD090
S113274089818F5F898389818630B8F38A819B81EF
S113275068E3C4D000000000000000008A819B816F
S113276068E3BCD00000000000000000000000008E
S11327700000000000000000000000000000000055
S11327800000000000000000000000008A819B811E
S113279068E3A4D08A819B8168E0A0D08A819B8170
S11327A066E09CD08A819B8161E098D08A819B817C
S11327B062E094D08A819B816EE090D00F900F905C
S11327C00F90DF91CF9108951F93CF93DF93CDB7EF
S11327D0DEB78AE390E0FC0110828BE390E02FEFF8
S11327E0FC01208385E690E025E630E0F9012081B4
S11327F02160FC01208385E390E025E330E0F901CA
S113280020812E7FFC01208385E390E025E330E0E6
S1132810F90120812068FC012083000000000000F1
S11328200000000000000000000089E390E0FC01CB
S1132830108185E390E025E330E0F90120812F77D2
S1132840FC012083812F88231CF41F3F09F0CACF89
S1132850DF91CF911F910895CF93DF9300D0CDB72F
S1132860DEB79A8389838AE390E02FEFFC0120830B
S113287085E690E025E630E0F90120812E7FFC0119
S1132880208385E390E025E330E0F90120812E7F69
S1132890FC01208385E390E025E330E0F901208109
S11328A02068FC0120838BE390E028E3FC01208373
S11328B00000000000000000000000000000000014
S11328C088E390E028E330E0F90120812F77FC01D0
S11328D020830F900F90DF91CF910895CF93DF93D2
S11328E000D01F92CDB7DEB79A8389836B836CDFE8
S11328F08AE390E02FEFFC01208385E690E025E653
S113290030E0F90120812E7FFC01208385E390E0F3
S113291025E330E0F90120812E7FFC01208385E34B
S113292090E025E330E0F90120812068FC01208358
S11329308BE390E02B81FC01208300000000000069
S11329400000000000000000000085E390E025E3A3
S113295030E0F90120812F77FC0120830F900F9044
S11329600F90DF91CF910895CF93DF931F92CDB74E
S1132970DEB7898329DF8AE390E02FEFFC0120830F
S113298085E690E025E630E0F90120812E7FFC0108
S1132990208385E390E025E330E0F9012081216084
S11329A0FC01208385E390E025E330E0F9012081F8
S11329B02068FC0120838BE390E02981FC012083C3
S11329C00000000000000000000000000000000003
S11329D085E390E025E330E0F90120812F77FC01C5
S11329E020830F90DF91CF910895CF93DF9300D090
S11329F000D01F92CDB7DEB79B838A836C834D834F
S1132A008D8189838C81882F90E08130910549F0F4
S1132A1082309105ACF08230910539F0039749F08A
S1132A2010C08981805C89830CC08981805F89831F
S1132A3008C08981805C89838981805F898301C022
S1132A4000008981806889838A819B81698146DF4E
S1132A500F900F900F900F900F90DF91CF910895EA
S1132A60CF93DF9300D0CDB7DEB78F8198854A85A9
S1132A706985BBDFCE010D969A83898349815A818A
S1132A8080919F019091A0012B853C85B9010E9402
S1132A909F330F900F90DF91CF910895CF93DF93E1
S1132AA000D0CDB7DEB79A83898389819A8161E0AA
S1132AB015DF89819A8162E011DF0F900F90DF9119
S1132AC0CF910895CF93DF9300D000D0CDB7DEB778
S1132AD09A8389837C836B8389819A81019739F4F2
S1132AE08B819C81019619F48EE991E0D3DD0F90DE
S1132AF00F900F900F90DF91CF910895CF93DF93B4
S1132B00CDB7DEB76FEF7FEF81E090E0DBDFDF91E1
S1132B10CF910895CF93DF931F92CDB7DEB789830A
S1132B208981882F90E0880F991F835F9E4FFC0155
S1132B3080819181929582958F7089279F708927D2
S1132B400F90DF91CF910895CF93DF9300D01F9220
S1132B50CDB7DEB79B838A83A8958EE991E09EDF8B
S1132B608BE897E0292F2F938F931F921F928EE962
S1132B7091E0892F8F938EE991E08F9371DF0F900D
S1132B800F900F900F900F900F908CE997E0292FE2
S1132B902F938F931F9281E08F938EE991E0892F79
S1132BA08F938EE991E08F935BDF0F900F900F90DE
S1132BB00F900F900F908DEA97E0292F2F938F930A
S1132BC01F9283E08F938EE991E0892F8F938EE992
S1132BD091E08F9345DF0F900F900F900F900F901F
S1132BE00F908A819B810E94022889838981882F82
S1132BF090E08031910509F18131910534F48430FC
S1132C00910551F0089761F01CC080329105D9F00C
S1132C1080389105D1F015C08A819B811DD016C0E2
S1132C2090917C0181E0992309F480E0882309F0E4
S1132C3008C08A819B817DD509C08A819B81FED68B
S1132C408BCFA895CECF000001C000000F900F904D
S1132C500F90DF91CF910895CF93DF9300D000D0F0
S1132C601F92CDB7DEB79D838C83A8958EE991E042
S1132C7015DF8EEB97E0292F2F938F931F921F92CE
S1132C808EE991E0892F8F938EE991E08F93E8DEAE
S1132C900F900F900F900F900F900F908091A801BC
S1132CA0882F90E09C012F5F3F4F8FEC97E0432FDC
S1132CB04F932F93292F2F938F931F9281E08F93FC
S1132CC08EE991E0892F8F938EE991E08F93C8DE8E
S1132CD08DB79EB708960FB6F894DEBF0FBECDBF72
S1132CE081EE97E0292F2F938F931F9283E08F9388
S1132CF08EE991E0892F8F938EE991E08F93B0DE76
S1132D000F900F900F900F900F900F908C819D81DA
S1132D100E94022889838981882F90E0803191055F
S1132D2009F48EC08131910534F48430910539F071
S1132D30089749F0FCC0809709F4FBC0F8C08C8167
S1132D409D81B2D192CF8C819D81FCD09B838A835B
S1132D508B818095881F8827881F882309F440C0A9
S1132D608A81682F88EA91E00E94442B82EF97E0E1
S1132D70292F2F938F931F921F928EE991E0892F11
S1132D808F938EE991E08F936BDE0F900F900F90ED
S1132D900F900F900F908A819B819C012F5F3F4F72
S1132DA083E098E0432F4F932F93292F2F938F93F2
S1132DB01F9281E08F938EE991E0892F8F938EE9A2
S1132DC091E08F934DDE8DB79EB708960FB6F894B9
S1132DD0DEBF0FBECDBF8C819D810E94D527AAC0C6
S1132DE085E198E0292F2F938F931F921F928EE9EC
S1132DF091E0892F8F938EE991E08F9331DE0F90CC
S1132E000F900F900F900F900F9086E298E0292F6B
S1132E102F938F931F9281E08F938EE991E0892FF6
S1132E208F938EE991E08F931BDE0F900F900F909C
S1132E300F900F900F908C819D810E94D52715CF04
S1132E4088EA91E00E94C12A9B838A838B818095C2
S1132E50881F8827881F8823D1F187E398E0292FCA
S1132E602F938F931F921F928EE991E0892F8F9356
S1132E708EE991E08F93F4DD0F900F900F900F90F7
S1132E800F900F908A819B819C012F5F3F4F88E4B4
S1132E9098E0432F4F932F93292F2F938F931F92B3
S1132EA081E08F938EE991E0892F8F938EE991E0F1
S1132EB08F93D6DD8DB79EB708960FB6F894DEBF14
S1132EC00FBECDBF8C819D810E94D52733C08AE57A
S1132ED098E0292F2F938F931F921F928EE991E0F0
S1132EE0892F8F938EE991E08F93BADD0F900F9025
S1132EF00F900F900F900F908BE698E0292F2F934F
S1132F008F931F9281E08F938EE991E0892F8F93A5
S1132F108EE991E08F93A4DD0F900F900F900F90A6
S1132F200F900F908C819D810E94D5279ECEA895ED
S1132F30EDCE00000F900F900F900F900F90DF9147
S1132F40CF910895CF93DF9300D000D01F92CDB7D7
S1132F50DEB79D838C838EE991E0A0DD8CE798E059
S1132F60292F2F938F931F921F928EE991E0892F1F
S1132F708F938EE991E08F9373DD0F900F900F90F4
S1132F800F900F900F908091A801882F90E00196E8
S1132F909A8389838DE898E02A812F9329812F933E
S1132FA0292F2F938F931F9281E08F938EE991E0C5
S1132FB0892F8F938EE991E08F9352DD8DB79EB761
S1132FC008960FB6F894DEBF0FBECDBF89819A81F3
S1132FD0892B21F481E090E09A83898381E08093B6
S1132FE09401A89580EA98E02A812F9329812F9350
S1132FF0292F2F938F931F9283E08F938EE991E073
S1133000892F8F938EE991E08F932ADD8DB79EB738
S113301008960FB6F894DEBF0FBECDBF8C819D819C
S11330200E9402288B838B81882F90E08031910548
S1133030E9F08131910534F48430910509F1089760
S1133040A9F028C080349105D9F08038910519F091
S1133050809739F01FC01092940189819A81019759
S11330601BC0109294018FEF9FEF16C089819A8143
S113307048972CF489819A8101969A838983B1CFE8
S113308089819A8102972CF089819A8101979A8388
S11330908983A7CFA895C2CF0F900F900F900F9060
S11330A00F90DF91CF910895EF92FF920F931F93AA
S11330B0CF93DF93CDB7DEB763970FB6F894DEBF37
S11330C00FBECDBF9B878A87A8958EE991E0E6DC89
S11330D083EB98E0292F2F938F931F921F928EE9F1
S11330E091E0892F8F938EE991E08F93B9DC0F9053
S11330F00F900F900F900F900F9084EC98E0292F71
S11331002F938F931F9281E08F938EE991E0892F03
S11331108F938EE991E08F93A3DC0F900F900F9023
S11331200F900F900F9085ED98E0292F2F938F9398
S11331301F9283E08F938EE991E0892F8F938EE91C
S113314091E08F938DDC0F900F900F900F900F9064
S11331500F908A859B850E94022889838981882F04
S113316090E08031910509F4AFC1813191053CF4BF
S11331708430910569F0089709F4E5C069C280328A
S1133180910509F467C28038910509F465C260C2EB
S113319086EE98E0292F2F938F931F921F928EE92A
S11331A091E0892F8F938EE991E08F9359DC0F90F2
S11331B00F900F900F900F900F9087EF98E0292FAA
S11331C02F938F931F9281E08F938EE991E0892F43
S11331D08F938EE991E08F9343DC0F900F900F90C3
S11331E00F900F900F908A859B850E94B9269B8330
S11331F08A838B818095881F8827881F882309F4F8
S1133200A1C08A819B8185559E4FFC0180818823C2
S113321039F42A813B818A859B85B9012BD292C0DE
S11332208EE991E03BDC88E099E0292F2F938F937E
S11332301F921F928EE991E0892F8F938EE991E07E
S11332408F930EDC0F900F900F900F900F900F90B4
S113325089E199E0292F2F938F931F9281E08F9317
S11332608EE991E0892F8F938EE991E08F93F8DBBB
S11332700F900F900F900F900F900F908A81682FEE
S113328088EA91E00E94932B9D838C838C819D819D
S11332909C01990F440B550B8AE491E0DC010E94D8
S11332A0B932DC01CB0128EE33E040E050E0BC0150
S11332B0CD010E948832DA01C9019093A301809361
S11332C0A2018A859B85EE24E394F12C0FE017E29A
S11332D024E046E062EA71E00E94C2249F838E8368
S11332E08091A2019091A30141E02E813F81281792
S11332F0390709F440E0442329F18E819F819C0120
S113330040E050E088EE93E0DC010E94B932DC0139
S1133310CB012AE431E040E050E0BC01CD010E9441
S11333208832DA01C9019093A3018093A2018091AC
S1133330A2019091A3012A81AC01622F88EA91E055
S11333400E94C82BC1CE8AE299E0292F2F938F9334
S11333501F921F928EE991E0892F8F938EE991E05D
S11333608F937EDB0F900F900F900F900F900F9024
S11333708BE399E0292F2F938F931F9281E08F93F2
S11333808EE991E0892F8F938EE991E08F9368DB2A
S11333900F900F900F900F900F900F908A859B8540
S11333A00E94B9269B838A838B818095881F8827F6
S11333B0881F882309F487C08A819B8185559E4F85
S11333C0FC018081882339F42A813B818A859B858D
S11333D0B90150D178C08EE991E060DB8CE499E0CA
S11333E0292F2F938F931F921F928EE991E0892F9B
S11333F08F938EE991E08F9333DB0F900F900F90B2
S11334000F900F900F908A819B819C012F5F3F4FFB
S11334108DE599E0432F4F932F93292F2F938F936B
S11334201F9281E08F938EE991E0892F8F938EE92B
S113343091E08F9315DB8DB79EB708960FB6F8947D
S1133440DEBF0FBECDBF8FE699E0292F2F938F9358
S11334501F9282E08F938EE991E0892F8F938EE9FA
S113346091E08F93FDDA0F900F900F900F900F90D3
S11334700F9080E899E0292F2F938F931F9283E078
S11334808F938EE991E0892F8F938EE991E08F934A
S1133490E7DA0F900F900F900F900F900F908A859E
S11334A09B850E94022888878885803819F0888542
S11334B08032A9F78885803831F48A81682F88EAB8
S11334C091E00E94042C00CE8EE991E0E7DA81E9D4
S11334D099E0292F2F938F931F921F928EE991E0E9
S11334E0892F8F938EE991E08F93BADA0F900F9022
S11334F00F900F900F900F9082EA99E0292F2F934D
S11335008F931F9281E08F938EE991E0892F8F939F
S11335108EE991E08F93A4DA0F900F900F900F90A3
S11335200F900F9083EB99E0292F2F938F931F9285
S113353082E08F938EE991E0892F8F938EE991E059
S11335408F938EDA0F900F900F900F900F900F9033
S113355084EC99E0292F2F938F931F9283E08F930C
S11335608EE991E0892F8F938EE991E08F9378DA39
S11335700F900F900F900F900F900F908A859B855E
S11335800E94022889878985803819F089858032CC
S1133590A9F78985803809F05AC085ED99E0292F6B
S11335A02F938F931F9281E08F938EE991E0892F5F
S11335B08F938EE991E08F9353DA0F900F900F90D1
S11335C00F900F900F908A859B850E94022889870F
S11335D08985803819F089858032A9F789858038F2
S11335E0B1F58EE991E05ADA86EE99E0292F2F930E
S11335F08F931F921F928EE991E0892F8F938EE90A
S113360091E08F932DDA0F900F900F900F900F9001
S11336100F9087EF99E0292F2F938F931F9281E0CA
S11336208F938EE991E0892F8F938EE991E08F93A8
S113363017DA0F900F900F900F900F900F9088EA69
S113364091E00E94702C8A859B850E94D5273CCDF1
S1133650A8957FCD000001C0000063960FB6F894D2
S1133660DEBF0FBECDBFDF91CF911F910F91FF90B1
S1133670EF900895CF93DF9300D000D0CDB7DEB79D
S11336809A8389837C836B838EE991E007DA88E0EF
S11336909AE02C812F932B812F93292F2F938F9393
S11336A01F921F928EE991E0892F8F938EE991E00A
S11336B08F93D6D98DB79EB708960FB6F894DEBF10
S11336C00FBECDBF8AE19AE0292F2F938F931F92CB
S11336D081E08F938EE991E0892F8F938EE991E0B9
S11336E08F93BED90F900F900F900F900F900F9063
S11336F08BE29AE0292F2F938F931F9282E08F936E
S11337008EE991E0892F8F938EE991E08F93A8D968
S11337100F900F900F900F900F900F9089819A81C6
S11337200E94D5270F900F900F900F90DF91CF91AB
S11337300895CF93DF9300D000D01F92CDB7DEB7AA
S11337409D838C83A8958EE991E0A8D98CE39AE0B7
S1133750292F2F938F931F921F928EE991E0892F27
S11337608F938EE991E08F937BD90F900F900F90F8
S11337700F900F900F908091A901882F90E09C01E9
S11337802F5F3F4F8DE49AE0432F4F932F93292FC0
S11337902F938F931F9281E08F938EE991E0892F6D
S11337A08F938EE991E08F935BD98DB79EB708967E
S11337B00FB6F894DEBF0FBECDBF8FE59AE0292F78
S11337C02F938F931F9283E08F938EE991E0892F3B
S11337D08F938EE991E08F9343D90F900F900F90C0
S11337E00F900F900F908C819D810E9402288983F5
S11337F08981882F90E08031910509F44FC081318F
S1133800910534F48430910539F00897A1F052C041
S1133810809709F451C04EC088EA91E00E94372A8B
S1133820882341F085E192E00E941D2E8C819D81C8
S11338304CD088CF3FC080E79AE0292F2F938F93F5
S11338401F9281E08F938EE991E0892F8F938EE907
S113385091E08F9305D90F900F900F900F900F90D8
S11338600F908C819D810E94B9269B838A8321E0DD
S11338708A819B818F3F9F4F0CF420E0222369F0C3
S11338808A81682F88EA91E00E94C62985E192E046
S11338900E941D2E8C819D8118D054CF88EA91E01E
S11338A00E94552985E192E00E941D2E8C819D8104
S11338B00CD048CFA89597CF00000F900F900F9091
S11338C00F900F90DF91CF910895CF93DF9300D0A5
S11338D000D01F92CDB7DEB79D838C838EE991E033
S11338E0DDD881E89AE0292F2F938F931F921F929E
S11338F08EE991E0892F8F938EE991E08F93B0D870
S11339000F900F900F900F900F900F9082E99AE014
S1133910292F2F938F931F9281E08F938EE991E04B
S1133920892F8F938EE991E08F939AD80F900F90FF
S11339300F900F900F900F9084EA9AE0292F2F9305
S11339408F931F9283E08F938EE991E0892F8F9359
S11339508EE991E08F9384D80F900F900F900F9081
S11339600F900F905AC0A89520914B0230914C02B1
S113397044E6429FC001439F900D1124892F99274B
S11339809A8389834CE061E08EE991E02ED88981A5
S11339909A818436910584F485EB9AE02A812F93E9
S11339A029812F93292F2F938F930E9478330F907F
S11339B00F900F900F9009C089EB9AE0292F2F9355
S11339C08F930E9478330F900F908091A50290916D
S11339D0A6020E943A338B8381E08823F1F08B8125
S11339E0882F90E08830910531F08031910539F0CD
S11339F0049741F012C081E0809349020EC01092F6
S1133A0049020BC088EA91E00E94A52A109249025B
S1133A1085E192E00E94452E00009091480281E0E9
S1133A20992309F480E0882309F09DCF0F900F902B
S1133A300F900F900F90DF91CF910895CF93DF9364
S1133A4000D01F92CDB7DEB79B838A83A8958EE9F9
S1133A5091E024D88CEB9AE0292F2F938F931F9217
S1133A601F928EE991E0892F8F938EE991E08F93D5
S1133A700E9430150F900F900F900F900F900F90A1
S1133A808DEC9AE0292F2F938F931F9281E08F93CF
S1133A908EE991E0892F8F938EE991E08F930E94B4
S1133AA030150F900F900F900F900F900F908EED98
S1133AB09AE0292F2F938F931F9283E08F938EE99F
S1133AC091E0892F8F938EE991E08F930E943015B6
S1133AD00F900F900F900F900F900F90A8958A81E0
S1133AE09B810E94022889838981882F90E08031FC
S1133AF09105F1F08131910534F48430910561F040
S1133B00089771F019C08034910571F080389105DF
S1133B10A9F08097A9F010C08A819B8118D096CF14
S1133B208A819B8182D092CF8A819B817AD48ECFE5
S1133B308A819B81BFD18ACFA895D1CF000001C0D3
S1133B4000000F900F900F90DF91CF910895EF92A6
S1133B50FF920F931F93CF93DF9300D000D0CDB784
S1133B60DEB79C838B838EE991E00E944E158FEE25
S1133B709AE0292F2F938F931F921F928EE991E041
S1133B80892F8F938EE991E08F930E9430150F90C7
S1133B900F900F900F900F900F9080E09BE0292FD3
S1133BA02F938F931F9281E08F938EE991E0892F59
S1133BB08F938EE991E08F930E9430150F900F90B0
S1133BC00F900F900F900F90A8958B819C81EE24FD
S1133BD0E394F12C08EE11E023E047E065EC71E09A
S1133BE0D1D69A8389838091C5019091C60141E021
S1133BF029813A812817390709F440E0442351F018
S1133C0089819A819093C6018093C50188EA91E0E5
S1133C100E9428290F900F900F900F90DF91CF9161
S1133C201F910F91FF90EF900895CF93DF93CDB73D
S1133C30DEB727970FB6F894DEBF0FBECDBF9F83C4
S1133C408E831A828EE991E00E944E1581E19BE0F9
S1133C50292F2F938F931F921F928EE991E0892F22
S1133C608F938EE991E08F930E9430150F900F90FF
S1133C700F900F900F900F9082E29BE0292F2F93CB
S1133C808F931F9281E08F938EE991E0892F8F9318
S1133C908EE991E08F930E9430150F900F900F9052
S1133CA00F900F900F90A89519828EC08981880F6C
S1133CB0880F8B838981282F30E08A8186958695A9
S1133CC0882F90E0880F991F880F991F820F931FE8
S1133CD081529E4FFC0180818C834B8162E08EE98E
S1133CE091E00E94F5148A81882F90E09C01237052
S1133CF033278981882F90E02817390701F58981B6
S1133D00882F90E09C012F5F3F4F8A81869586958E
S1133D10882F90E0880F991F880F991F280F391F4B
S1133D2083E39BE0432F4F932F93292F2F938F935C
S1133D300E9478330F900F900F900F901FC08981CD
S1133D40882F90E09C012F5F3F4F8A81869586954E
S1133D50882F90E0880F991F880F991F280F391F0B
S1133D608AE39BE0432F4F932F93292F2F938F9315
S1133D700E9478330F900F900F900F908C81882FB2
S1133D8090E09C012F5F3F4F81E49BE0432F4F93D2
S1133D902F93292F2F938F938B818F9383E08F936E
S1133DA08EE991E0892F8F938EE991E08F930E94A1
S1133DB030158DB79EB708960FB6F894DEBF0FBEC8
S1133DC0CDBF89818F5F89838981843008F46ECF68
S1133DD08A818370880F880F8D5F8B834B8163E0AA
S1133DE08EE991E00E94F514A8958E819F810E942E
S1133DF002288D838D81882F90E080319105B9F060
S1133E008131910534F48430910551F00897B1F073
S1133E1048C08034910549F180389105E9F141C0E9
S1133E208A81882319F08A8181508A833CCF8A81D0
S1133E30873118F48A818F5F8A8335CF8A81882FEE
S1133E4090E081529E4FFC018081843068F48A8125
S1133E50882F90E09C0121523E4FF90120812F5F71
S1133E6081529E4FFC0120831ECF8A81882F90E0CF
S1133E7081529E4FFC018081882369F08A81882FBA
S1133E8090E09C0121523E4FF90120812150815242
S1133E909E4FFC01208307CF88EA91E00E942829E5
S1133EA0000027960FB6F894DEBF0FBECDBFDF919A
S1133EB0CF910895CF92DF92EF92FF920F931F93C9
S1133EC0CF93DF93CDB7DEB762970FB6F894DEBF1A
S1133ED00FBECDBF9E838D8319821A828EE991E035
S1133EE00E944E158FEF9FEF909309018093080174
S1133EF0809108019091090199230CF0DCC087E4BA
S1133F009BE0292F2F938F931F921F928EE991E0AC
S1133F10892F8F938EE991E08F930E9430150F9033
S1133F200F900F900F900F900F908091C701909178
S1133F30C8016C01E12CF12C80E00E948A15CC01AF
S1133F40A0E0B0E0A7019601BC01CD010E94663259
S1133F507B018C018091CD019091CE019C0140E0C8
S1133F6050E0C801B7010E948832DA01C9019C01FE
S1133F7088E59BE0432F4F932F93292F2F938F9303
S1133F8085E08F9381E08F938EE991E0892F8F9361
S1133F908EE991E08F930E9430158DB79EB70896F5
S1133FA00FB6F894DEBF0FBECDBF8091C9019091CA
S1133FB0CA016C01E12CF12C81E00E948A15CC012C
S1133FC0A0E0B0E0A7019601BC01CD010E946632D9
S1133FD07B018C018091CF019091D0019C0140E044
S1133FE050E0C801B7010E948832DA01C9019C017E
S1133FF080E69BE0432F4F932F93292F2F938F938A
S113400085E08F9382E08F938EE991E0892F8F93DF
S11340108EE991E08F930E9430158DB79EB7089674
S11340200FB6F894DEBF0FBECDBF8091CB01909147
S1134030CC016C01E12CF12C82E00E948A15CC01A8
S1134040A0E0B0E0A7019601BC01CD010E94663258
S11340507B018C018091D1019091D2019C0140E0BF
S113406050E0C801B7010E948832DA01C9019C01FD
S113407088E69BE0432F4F932F93292F2F938F9301
S113408085E08F9383E08F938EE991E0892F8F935E
S11340908EE991E08F930E9430158DB79EB70896F4
S11340A00FB6F894DEBF0FBECDBF84EF91E09093BE
S11340B00901809308010E9438129C838B83A89580
S11340C08B819C81019609F459C08A81882309F562
S11340D08B81882F90E080329105B9F0803891056A
S11340E031F0049709F04AC081E08A8311C08D81C0
S11340F09E8157D08EE991E00E944E158FEF9FEF7D
S1134100909309018093080103C081E08983000032
S113411035C08A818130A9F48B81882F90E0803466
S1134120910531F08038910531F0809721F006C077
S113413082E08A8305C081E0898302C01A8200007C
S11341401DC08B81882F90E08032910591F08038DA
S1134150910591F48D819E814FD28EE991E00E9468
S11341604E158FEF9FEF90930901809308011A82F7
S113417005C081E0898302C01A82000089818823F6
S113418009F4B6CE62960FB6F894DEBF0FBECDBF6B
S1134190DF91CF911F910F91FF90EF90DF90CF901F
S11341A00895CF93DF93CDB7DEB727970FB6F89472
S11341B0DEBF0FBECDBF9F838E8319828091F7012E
S11341C08B838091F8018C838091F9018D8380E742
S11341D09BE0292F2F938F931F921F928EE991E0DA
S11341E0892F8F938EE991E08F930E9430150F9061
S11341F00F900F900F900F900F9081E89BE0292F64
S11342002F938F931F9281E08F938EE991E0892FF2
S11342108F938EE991E08F930E9430150F900F9049
S11342200F900F900F900F9082E99BE0292F2F930E
S11342308F931F9282E08F938EE991E0892F8F9361
S11342408EE991E08F930E9430150F900F900F909C
S11342500F900F900F9083EA9BE0292F2F938F9359
S11342601F9283E08F938EE991E0892F8F938EE9DB
S113427091E08F930E9430150F900F900F900F9044
S11342800F900F90A8958B818031B9F58C81803186
S1134290A1F58D81803189F584EB9BE0292F2F9343
S11342A08F9388E08F9382E08F938EE991E0892F3A
S11342B08F938EE991E08F930E9430150F900F90A9
S11342C00F900F900F900F908BEB9BE0292F2F9363
S11342D08F9388E08F9383E08F938EE991E0892F09
S11342E08F938EE991E08F930E9430150F900F9079
S11342F00F900F900F900F9030C082EC9BE0292F0D
S11343002F938F9388E08F9382E08F938EE991E0CF
S1134310892F8F938EE991E08F930E9430150F902F
S11343200F900F900F900F900F9089EC9BE0292F26
S11343302F938F9388E08F9383E08F938EE991E09E
S1134340892F8F938EE991E08F930E9430150F90FF
S11343500F900F900F900F900F9089818E5F40E027
S1134360682F8EE991E00E94F51401C0A8958E8112
S11343709F8148D68A8381E09A81992309F080E05D
S11343808823A1F78A81882F90E080319105B1F1CB
S11343908131910534F48430910591F1089741F00D
S11343A030C08034910589F080389105D1F029C05E
S11343B08981882319F089818150898380E18D83E3
S11343C08D818C838C818B831CC08981882319F413
S11343D089818F5F89831D828D818C838C818B83FE
S11343E010C08B818093F7018C818093F8018D81BB
S11343F08093F90188EA91E02BD703C0000001C043
S113440000008A81803221F08A81803809F03ACF15
S113441027960FB6F894DEBF0FBECDBFDF91CF91C4
S11344200895CF92DF92EF92FF920F931F93CF9351
S1134430DF93CDB7DEB72C970FB6F894DEBF0FBE6F
S1134440CDBF9C838B838EE991E00E944E1580ED55
S11344509BE0292F2F938F931F921F928EE991E057
S1134460892F8F938EE991E08F930E9430150F90DE
S11344700F900F900F900F900F9080918902282F2A
S113448030E08AED9BE0432F4F932F93292F2F93F6
S11344908F9385E08F9381E08F938EE991E0892F4C
S11344A08F938EE991E08F930E9430158DB79EB75C
S11344B008960FB6F894DEBF0FBECDBF8091C90138
S11344C09091CA016C01E12CF12C81E00E948A15C3
S11344D0CC01A0E0B0E0A7019601BC01CD010E948F
S11344E066327B018C018091CF019091D0019C01B7
S11344F040E050E0C801B7010E948832DA01C901E6
S11345009C0182EE9BE0432F4F932F93292F2F93EF
S11345108F9385E08F9382E08F938EE991E0892FCA
S11345208F938EE991E08F930E9430158DB79EB7DB
S113453008960FB6F894DEBF0FBECDBF8091CB01B5
S11345409091CC016C01E12CF12C82E00E948A153F
S1134550CC01A0E0B0E0A7019601BC01CD010E940E
S113456066327B018C018091D1019091D2019C0132
S113457040E050E0C801B7010E948832DA01C90165
S11345809C018AEE9BE0432F4F932F93292F2F9367
S11345908F9385E08F9383E08F938EE991E0892F49
S11345A08F938EE991E08F930E9430158DB79EB75B
S11345B008960FB6F894DEBF0FBECDBF0E94381226
S11345C09A838983A89589819A81809731F089811A
S11345D09A818038910509F03ACF2C960FB6F89459
S11345E0DEBF0FBECDBFDF91CF911F910F91FF9022
S11345F0EF90DF90CF900895CF92DF92EF92FF92E9
S11346000F931F93CF93DF93CDB7DEB762970FB6A7
S1134610F894DEBF0FBECDBF9A87898719821E82A8
S113462086E08F838CE088878EE991E00E944E15A6
S113463082EF9BE0292F2F938F931F921F928EE975
S113464091E0892F8F938EE991E08F930E9430152A
S11346500F900F900F900F900F900F9083E09CE0BD
S1134660292F2F938F931F9281E08F938EE991E0EE
S1134670892F8F938EE991E08F930E9430150F90CC
S11346800F900F900F900F900F90A8951A8273C0FF
S11346908A81882F90E09E012A5F3F4F820F931FEB
S11346A0FC018081482F62E08EE991E00E94F514BC
S11346B099818A819817A9F48A81882F90E09C01B6
S11346C02F5F3F4F84E19CE0432F4F932F93292F7B
S11346D02F938F930E9478330F900F900F900F9029
S11346E014C08A81882F90E09C012F5F3F4F8AE19C
S11346F09CE0432F4F932F93292F2F938F930E9446
S113470078330F900F900F900F908A81882F90E04C
S11347100296880F991F8D539E4FFC016081718111
S113472040E25CE08A81882F90E09E012A5F3F4F3F
S1134730820F931FFC018081972F9F93962F9F9345
S1134740952F9F93942F9F938F9383E08F938EE95C
S113475091E0892F8F938EE991E08F930E94301519
S11347608DB79EB708960FB6F894DEBF0FBECDBFC7
S11347708A818F5F8A838A81833008F489CF89850F
S11347809A8540D48B838B81882F90E0803191056A
S113479031F08034910589F0049741F050C089814B
S11347A0823018F489818F5F898349C08981882385
S11347B019F089818150898342C08981882F90E0D2
S11347C09E012A5F3F4F820F931FFC013081898134
S11347D0882F90E00296880F991FBC016D537E4F7D
S11347E089859A850F2EF4EBEF2EF12CF02D08E13C
S11347F011E023E0432FC6D09D838C838981882FC9
S113480090E00296880F991F8D539E4FFC012081E2
S113481031818C819D812817390781F08981882F06
S113482090E00296880F991F8D539E4F2C813D81F5
S1134830FC013183208388EA91E00AD500008B8152
S1134840803221F08B81803809F01FCF8B81803238
S113485009F489C01A827FC08A81082F10E08A81F6
S11348600E948A159C01C8010596880F991F8D53D3
S11348709E4FFC01318320838A81082F10E08A81B6
S1134880882F90E00596880F991F8D539E4FFC0149
S1134890808191819C0140E050E086EE90E0DC0153
S11348A00E94B9326B017C018A81882F90E00296C4
S11348B0880F991F8D539E4FFC01808191819C012B
S11348C040E050E0C701B6010E948832DA01C90114
S11348D09C01C8010896880F991F8D539E4FFC01B7
S11348E0318320838A81082F10E08A81882F90E009
S11348F00596880F991F8D539E4FFC0180819181ED
S11349009C0140E050E084EB90E0DC010E94B9326D
S11349106B017C018A81882F90E00296880F991F91
S11349208D539E4FFC01808191819C0140E050E0B9
S1134930C701B6010E948832DA01C9019C01C8018D
S11349400B96880F991F8D539E4FFC013183208352
S11349508A818F5F8A838A81833008F47DCF88EAD5
S113496091E076D4A89562960FB6F894DEBF0FBE98
S1134970CDBFDF91CF911F910F91FF90EF90DF900A
S1134980CF900895EF92FF920F931F93CF93DF93ED
S1134990CDB7DEB766970FB6F894DEBF0FBECDBFB6
S11349A09E878D87788B6F87498B2A8B1C8B0B8B0B
S11349B0FE8AED8A8A89853010F084E08A8B198218
S11349C01A828F859889FC01808191819C838B83D5
S11349D01D8235C08D81E82FF0E04B815C819A0106
S11349E0ADECBCEC0E94AA32969587959695879576
S11349F096958795880F991F9C01220F331F220FCC
S1134A00331F820F931F9A01281B390BC901282FCA
S1134A10CF018C559E4FFC0120838B819C819C018E
S1134A20ADECBCEC0E94AA32969587959695879535
S1134A30969587959C838B838D818F5F8D838D81E4
S1134A40843040F281E0809394018091A401282F66
S1134A5030E08091A501882F90E0880F991FAC0168
S1134A60440F551F440F551F840F951F280F391FDE
S1134A708091A601482F50E064E6649FC001659FC1
S1134A80900D1124280F391F8091A701682F70E021
S1134A9048EE53E0649FC001659F900D749F900D94
S1134AA01124820F931F9C838B832B813C818B89E0
S1134AB09C898217930708F042C08B899C899C8348
S1134AC08B838B819C819F838E83188635C08885D8
S1134AD0E82FF0E04E815F819A01ADECBCEC0E94BE
S1134AE0AA32969587959695879596958795880F7A
S1134AF0991F9C01220F331F220F331F820F931F14
S1134B009A01281B390BC901282FCF018C559E4FC0
S1134B10FC0120838E819F819C01ADECBCEC0E9442
S1134B20AA329695879596958795969587959F83AE
S1134B308E8388858F5F88878885843040F22B81B7
S1134B403C818D899E892817390708F042C08D89D8
S1134B509E899C838B838B819C819A8789871B8602
S1134B6035C08B85E82FF0E049855A859A01ADEC74
S1134B70BCEC0E94AA329695879596958795969552
S1134B808795880F991F9C01220F331F220F331F13
S1134B90820F931F9A01281B390BC901282FCF01BB
S1134BA08C559E4FFC01208389859A859C01ADEC30
S1134BB0BCEC0E94AA329695879596958795969512
S1134BC087959A8789878B858F5F8B878B858430C0
S1134BD040F2A8958A89843000F584E29CE02C8117
S1134BE02F932B812F93292F2F938F9389898F9321
S1134BF083E08F938EE991E0892F8F938EE991E082
S1134C008F930E9430152DB73EB7285F3F4F0FB6E4
S1134C10F894DEBF0FBECDBF1EC089E29CE02C819C
S1134C202F932B812F93292F2F938F9389898F93E0
S1134C3083E08F938EE991E0892F8F938EE991E041
S1134C408F930E9430158DB79EB708960FB6F894CF
S1134C50DEBF0FBECDBF9A898989980F8A81E92F5B
S1134C60E81B8E2F8150482F63E08EE991E00E946B
S1134C70F5148D859E85C6D18C878C85882F90E010
S1134C8080319105A1F08131910534F4843091058E
S1134C90A9F0089709F158C080349105A1F1803832
S1134CA0910509F44EC0809709F444C04DC08A812F
S1134CB0882319F08A8181508A8346C08A81282FEB
S1134CC030E08A89882F90E00197281739071CF46F
S1134CD08A818F5F8A8338C08A81882F90E08C55BF
S1134CE09E4FFC018081893068F48A81882F90E08E
S1134CF09C012C553E4FF90120812F5F8C559E4F0E
S1134D00FC01208321C08A81882F90E08C559E4F1E
S1134D10FC018081882369F08A81882F90E09C01BE
S1134D202C553E4FF901208121508C559E4FFC019A
S1134D3020830AC08F859889FC01808191819C839E
S1134D408B8381E0898300008981882309F47DCEE7
S1134D50109294018B819C8166960FB6F894DEBF05
S1134D600FBECDBFDF91CF911F910F91FF90EF90B8
S1134D700895CF93DF93CDB7DEB727970FB6F89496
S1134D80DEBF0FBECDBF9F838E838091A801882F85
S1134D9090E001969C838B838EE29CE02C812F9380
S1134DA02B812F93292F2F938F931F9282E08F9320
S1134DB08EE991E0892F8F938EE991E08F930E9481
S1134DC030158DB79EB708960FB6F894DEBF0FBEA8
S1134DD0CDBF81E0809394018B819C8118161906C4
S1134DE0F4F01A8219820EC089819A8185559E4FEA
S1134DF0FC018081882309F009C089819A81019688
S1134E009A83898389819A81489774F389819A81E5
S1134E1048972CF489819A8101969C838B83A89569
S1134E2081E49CE02C812F932B812F93292F2F93A6
S1134E308F931F9283E08F938EE991E0892F8F9354
S1134E408EE991E08F930E9430158DB79EB7089636
S1134E500FB6F894DEBF0FBECDBF8E819F81D2D036
S1134E608D838D81882F90E080319105F9F0813117
S1134E7091053CF48430910509F445C00897B1F0DC
S1134E8089C08034910509F43EC08038910519F039
S1134E90809739F07FC0109294018B819C81019797
S1134EA07BC0109294018EEF9FEF76C08B819C8122
S1134EB08831910514F087E190E09A8389830EC0CC
S1134EC089819A8185559E4FFC018081882309F050
S1134ED009C089819A8101969A83898389819A81FB
S1134EE0479774F389819A8185559E4FFC0180818F
S1134EF0882321F089819A81019602C080E090E0A4
S1134F009C838B838CCF8B819C8102979923F4F0B3
S1134F108B819C8102979A8389830EC089819A81AF
S1134F2085559E4FFC018081882309F009C0898141
S1134F309A8101979A83898389819A81992374F745
S1134F4089819A8101969C838B8323C08B819C8168
S1134F50019719F41C821B821CC087E190E09A839C
S1134F6089830EC089819A8185559E4FFC01808179
S1134F70882309F009C089819A8101979A838983DA
S1134F8089819A81992374F789819A8101969C83F6
S1134F908B8345CFA89561CF27960FB6F894DEBFD3
S1134FA00FBECDBFDF91CF910895CF93DF9300D093
S1134FB000D000D0CDB7DEB79E838D8319821A82CC
S1134FC01B821C820DC0A895000089819A81AB8147
S1134FD0BC810196A11DB11D89839A83AB83BC83D7
S1134FE089819A81AB81BC8180349244AF40B10500
S1134FF050F326960FB6F894DEBF0FBECDBFDF91F7
S1135000CF910895CF93DF9300D000D0CDB7DEB712
S11350109C838B8301C0A8950E9438129A8389834C
S113502021E089819A81019609F020E0222399F7F1
S113503089810F900F900F900F90DF91CF91089579
S1135040CF93DF9300D000D0CDB7DEB79C838B83A2
S113505085E59AEA9093C4018093C30181E090E0CE
S11350609093C6018093C50186EE90E09093CC01A5
S11350708093CB018091CB019091CC019093CA0194
S11350808093C9018091C9019091CA019093C8018C
S11350908093C70186ED91E09093D2018093D10172
S11350A08091D1019091D2019093D0018093CF014E
S11350B08091CF019091D0019093CE018093CD0146
S11350C086ED91E09093D8018093D7018091D70128
S11350D09091D8019093D6018093D5018091D50108
S11350E09091D6019093D4018093D3018EE591E001
S11350F09093DE018093DD018091DD019091DE01CA
S11351009093DC018093DB018091DB019091DC01C1
S11351109093DA018093D9011092F9018091F901F9
S11351208093F8018091F8018093F70148E150E001
S113513060E070E08FED91E00E94E93247E350E0D7
S113514060E070E083EC91E00E94AB371A82198230
S113515012C029813A814BE1429FC001439F900DC7
S11351601124895C9F4F60E00E94B43789819A8141
S113517001969A83898389819A81489754F30F9081
S11351800F900F900F90DF91CF910895CF93DF93FD
S113519000D000D000D0CDB7DEB79E838D8380E0F1
S11351A090E00E94A6379C838B838B819C818535FC
S11351B09A4A21F08D819E8143DF2CC047E350E061
S11351C060E070E083EC91E00E948E371092FA0167
S11351D01A8219821BC029813A814BE1429FC00186
S11351E0439F900D1124895C9F4F0E949E37482F46
S11351F02D813E8189819A81820F931F0396FC0140
S1135200408389819A8101969A83898389819A81CD
S113521048970CF38D819E812FEFFC0122838D81B1
S11352209E81FC0122818D819E81FC0120838D81E0
S11352309E81FC0120818D819E81FC012183269623
S11352400FB6F894DEBF0FBECDBFDF91CF910895A6
S1135250CF93DF9300D0CDB7DEB79A838983809153
S1135260C5019091C601893E914030F088EE91E0ED
S11352709093C6018093C5018091C5019091C601A8
S1135280892B31F481E090E09093C6018093C501AD
S113529047E350E060E070E083EC91E00E94AB37BC
S11352A00F900F90DF91CF910895CF93DF9300D0AB
S11352B000D0CDB7DEB79C838B838B819C81FC01AE
S11352C020818B819C81FC0122838B819C81FC0148
S11352D021818B819C81FC0120838B819C81FC0139
S11352E08181282F30E04BE1429FC001439F900D04
S11352F01124895C9F4F4BE150E0BC018AEF91E09F
S11353000E948E378B819C81FC018181882F90E0E3
S11353100196489774F58B819C81FC018181882FCB
S113532090E001969A83898316C02B813C81898100
S11353309A81820F931F0396FC018081882331F0A8
S113534029818B819C81FC01218309C089819A81F7
S113535001969A83898389819A81489734F3898154
S11353609A8148975CF08B819C812FEFFC0121830B
S113537005C08B819C812FEFFC01218381E00F907C
S11353800F900F900F90DF91CF910895CF93DF93FB
S113539000D000D01F92CDB7DEB79C838B836D8382
S11353A08D81882F90E02B813C81820F931F03967F
S11353B0FC018081882309F451C08D81282F30E0BD
S11353C04BE1429FC001439F900D1124895C9F4F84
S11353D04BE150E0BC018AEF91E00E948E378D8151
S11353E0873140F58B819C812FEFFC0121838D81D6
S11353F0882F90E001969A83898317C02B813C8182
S113540089819A81820F931F0396FC0180818823EE
S113541039F029818B819C81FC01218300000FC01C
S113542089819A8101969A83898389819A8148978F
S11354302CF305C08B819C812FEFFC0121838B8190
S11354409C81FC0120818B819C81FC0122838B81C6
S11354509C812D81FC01208381E001C080E00F90BC
S11354600F900F900F900F90DF91CF910895CF93ED
S1135470DF9300D000D0CDB7DEB79C838B838B81C4
S11354809C81FC0120818B819C81FC0121838B8187
S11354909C81FC0122818B819C81FC0120838B8176
S11354A09C81FC018281282F30E04BE1429FC001A6
S11354B0439F900D1124895C9F4F4BE150E0BC0148
S11354C08AEF91E00E948E378B819C81FC0182815E
S11354D0882371F18B819C81FC018281882F90E06B
S11354E001979A83898316C02B813C8189819A8193
S11354F0820F931F0396FC018081882331F0298158
S11355008B819C81FC01228309C089819A81019746
S11355109A83898389819A81992334F789819A812D
S113552099235CF48B819C812FEFFC01228305C0BD
S11355308B819C812FEFFC01228381E00F900F90DF
S11355400F900F90DF91CF910895CF93DF9300D008
S1135550CDB7DEB79A83898389819A81FC01208142
S113556089819A81FC01218389819A81FC012281AC
S113557089819A81FC0120830F900F90DF91CF9154
S11355800895CF93DF9300D000D0CDB7DEB79C83CE
S11355908B8387E190E09A83898316C02B813C81B9
S11355A089819A81820F931F0396FC01808188234D
S11355B031F089819A8101969A83898309C089810E
S11355C09A8101979A83898389819A81992334F7EF
S11355D089819A8148971CF08FEF9FEF4EC0898193
S11355E09A81992314F41A8219822B813C8189812E
S11355F09A81820F931F0396FC018081882319F0FE
S11356008FEF9FEF3AC02B813C8189819A81820F71
S1135610931F039621E0FC01208329813A814BE109
S1135620429FC001439F900D1124895C9F4F61E00C
S11356300E94B43729813A814BE1429FC001439FC4
S1135640900D11240196895C9F4F6AE570E00E94D9
S1135650C13729813A814BE1429FC001439F900D9C
S113566011240396895C9F4F48E150E0BC0184E615
S113567091E00E94AB3789819A810F900F900F902F
S11356800F90DF91CF910895CF93DF9300D01F92B5
S1135690CDB7DEB79A8389836B838B81883108F019
S11356A03CC08B81882F90E029813A81820F931F1F
S11356B0039621E0FC0120838B81282F30E04BE10D
S11356C0429FC001439F900D1124895C9F4F61E06C
S11356D00E94B4378B81282F30E04BE1429FC001F8
S11356E0439F900D11240196895C9F4F6AE570E0F9
S11356F00E94C1378B81282F30E04BE1429FC001CB
S1135700439F900D11240396895C9F4F48E150E01C
S1135710BC0184E691E00E94AB370F900F900F908C
S1135720DF91CF910895CF93DF9300D01F92CDB72F
S1135730DEB79A8389836B838B81883118F08FEF6E
S11357409FEF20C08B81282F30E04BE1429FC001A6
S1135750439F900D1124895C9F4F0E949E3788239C
S113576019F48FEF9FEF0EC08B81282F30E04BE1AF
S1135770429FC001439F900D11240196895C9F4F65
S11357800E94A6370F900F900F90DF91CF9108954C
S1135790CF93DF9300D000D01F92CDB7DEB79A83AA
S11357A089836B835D834C838B81883110F080E027
S11357B023C08B81282F30E04BE1429FC001439FDF
S11357C0900D1124895C9F4F0E949E37882311F409
S11357D080E012C08B81282F30E04BE1429FC00152
S11357E0439F900D11240196895C9F4F2C813D812C
S11357F0B9010E94C13781E00F900F900F900F9074
S11358000F90DF91CF910895CF93DF9300D000D014
S1135810CDB7DEB79B838A836C838C81883110F08B
S113582080E057C08C81282F30E04BE1429FC001BB
S1135830439F900D1124895C9F4F0E949E378823BB
S113584011F480E046C08C81282F30E04BE1429F68
S1135850C001439F900D1124895C9F4F60E00E941A
S1135860B4378C81882F90E02A813B81820F931F6B
S11358700396FC0110828A819B81FC0191818C81B9
S1135880981731F58A819B812FEFFC0121838C814C
S1135890873118F48C818F5F01C087E1898315C03B
S11358A08981882F90E02A813B81820F931F039680
S11358B0FC018081882331F08A819B812981FC014C
S11358C0218306C089818F5F89838981883140F370
S11358D081E00F900F900F900F90DF91CF9108957A
S11358E0CF93DF9300D000D0CDB7DEB79C838B83FA
S11358F08B819C81039648E150E060E070E069D6BA
S11359001A82198212C029813A814BE1429FC00157
S1135910439F900D1124895C9F4F60E00E94B4372F
S113592089819A8101969A83898389819A8148978A
S113593054F38B819C812FEFFC0122838B819C810A
S1135940FC0122818B819C81FC0120838B819C81C1
S1135950FC0120818B819C81FC0121830F900F909D
S11359600F900F90DF91CF910895CF93DF9300D0E4
S113597000D0CDB7DEB79A8389837C836B8389811A
S11359809A81019739F48B819C81019619F488EAF4
S113599091E0FCDB0F900F900F900F90DF91CF916F
S11359A00895CF93DF93CDB7DEB76FEF7FEF81E03C
S11359B090E0DBDFDF91CF910895CF93DF9300D0A8
S11359C000D0CDB7DEB78C838C81882F90E08459CA
S11359D0934F9A83898389819A81FC0184918B8373
S11359E08B810F900F900F900F90DF91CF910895BE
S11359F0CF93DF9300D000D0CDB7DEB78C838C81FA
S1135A00882F90E08C5A934F9A83898389819A8155
S1135A10FC0184918B838B810F900F900F900F90DA
S1135A20DF91CF910895CF93DF9300D0CDB7DEB748
S1135A309A8389838FE490E0FC0110828AE490E0E9
S1135A4020ED37E0FC01318320838CE490E0FC01FD
S1135A50118210828EE490E02AE0FC01208387E525
S1135A6090E027E530E0F90120812061FC012083EA
S1135A700F900F90DF91CF910895CF93DF9300D0D3
S1135A80CDB7DEB789836A8399818A81891710F437
S1135A90898101C08A810F900F90DF91CF91089581
S1135AA0CF93DF9300D000D000D0CDB7DEB7909174
S1135AB0480281E0992309F080E0882341F048E11D
S1135AC050E064E671E086E192E07AD5ADC0809161
S1135AD04902882309F0A8C080914D0290914E029A
S1135AE0019690934E0280934D020E94C80E9093AB
S1135AF04C0280934B021B826DC08B81882F90E0F7
S1135B008C599E4FFC018081482F50E080914B02BC
S1135B1090914C0220E031E0281B390B429FC001D8
S1135B20439F900D529F900D1124909350028093A7
S1135B304F028B81882F90E083509E4FFC0180811F
S1135B40482F50E020914B0230914C02429FC001FB
S1135B50439F900D529F900D112490935202809375
S1135B605102809150028C838C81282F30E08091E7
S1135B7052028D838D81882F90E0820F931F9A8328
S1135B8089838B81882F90E083509E4FFC01208174
S1135B908B81882F90E08C599E4FFC018081622F6D
S1135BA06CDF8E838E81282F30E089819A812817BB
S1135BB0390728F48E81882F90E09A8389838B811A
S1135BC0882F90E029818A5E9D4FFC0120838B8180
S1135BD08F5F8B838B81883108F48FCF80914A0249
S1135BE08823B1F480914B0290914C0221E08F3FC5
S1135BF0910509F008F420E02223B1F048E150E0D7
S1135C006DEF71E084E691E0DBD4109248020CC0A1
S1135C1080914B0290914C0221E0892B09F020E005
S1135C20222311F01092480226960FB6F894DEBF94
S1135C300FBECDBFDF91CF910895CF93DF9300D0F6
S1135C40CDB7DEB79A8389838091FB019091FC01E3
S1135C5020E031E040E050E0BC0180E090E00E94B0
S1135C603F0E10924E0210924D0210924902109271
S1135C704C0210924B0210924A0281E08093480237
S1135C800F900F90DF91CF910895CF93DF9300D0C1
S1135C90CDB7DEB79A83898387E590E027E530E0C6
S1135CA0F90120812F7EFC01208380914B02909189
S1135CB04C02AC0180914D0290914E0220E030E004
S1135CC060E070E00E943F0E81E080934A0287E525
S1135CD090E027E530E0F90120812061FC01208378
S1135CE00F900F90DF91CF910895EF92FF920F9351
