S00B00004170702E73726563F8
S113000009C6000030C600002EC600002CC6000041
S11300102AC6000028C6000026C6000024C6000028
S113002022C6000020C600001EC600001CC6000038
S11300300C94412D18C6000016C6000014C600001A
S113004012C6000010C600000C9416100CC6000066
S11300500AC60000A3C6000006C6000004C60000CD
S113006002C6000000C60000FEC50000FCC500007A
S1130070FAC50000F8C500000C94E610F4C50000B1
S1130080F2C50000F0C50000EEC50000444D582044
S113009063682E202533642D2533643A00253264A9
S11300A02000464C20002532642000464C200025C8
S11300B032642000464C20003E253032643C00204F
S11300C02530326420002025303264200020464C44
S11300D020003E253032643C00202530326420006C
S11300E02025303264200020464C20003E2530324A
S11300F0643C002025303264200020253032642006
S11301000020464C20003E253032643C002025303F
S1130110326420002025303264200020464C200028
S11301203E253032643C00202530326420002025F6
S1130130303264200020464C20003E253032643C9E
S11301400020253032642000202530326420002035
S1130150464C2000456C7369732064696769746157
S11301606C202B2B002020202056202025642E25B7
S113017064202020202020202000202E2E2E626F9C
S11301806F74696E672E2E2E202000000305070869
S11301900A0B0C0D0E0F1011121314151617181943
S11301A0191A1B1C1D1D1E1F202021222323242558
S11301B02526272828292A2A2B2C2C2D2E2E2F3091
S11301C03031323233333435353637373838393ADB
S11301D03A3B3C3C3D3D3E3F3F404041424243432D
S11301E0444545464647474849494A4A4B4C4C4D85
S11301F04D4E4F4F505051515253535454555656DF
S113020057575859595A5A5B5C5C5D5D5E5F5F6035
S11302106061626263636465656666676868696A8B
S11302206A6B6B6C6D6D6E6F6F70707172727374DC
S113023074757676777878797A7A7B7C7D7D7E7F23
S11302407F808181828384848586878788898A8B5D
S11302508B8C8D8E8F8F9091929394959596979881
S1130260999A9B9C9D9E9FA0A1A2A3A4A5A6A8A980
S1130270AAABACAEAFB0B2B3B5B6B8BABBBDBFC132
S1130280C3C5C7CACCD0D3D7DDE4FF000305060835
S1130290090A0C0D0E1011121314161718191A1C32
S11302A01C1E1F2021222324262628292A2B2C2DFC
S11302B02E2F303133333435373838393B3C3D3EDB
S11302C03F3F4142434445464748494A4B4C4D4EC3
S11302D04F505152535455565758595A5B5B5C5EB4
S11302E05F606162636465666667686A6B6C6D6EA5
S11302F06E6F7071737474757677787A7A7B7C7D9F
S11303007E7F808182828385868787888A8B8B8C97
S11303108D8F8F909192939495969798999A9B9C90
S11303209C9D9F9FA0A1A3A3A4A5A6A7A8A9AAAB8F
S1130330ABACAEAEAFB1B1B2B3B4B5B6B7B8B8B991
S1130340BBBBBCBEBEBFC1C1C2C3C4C5C6C7C8C98E
S1130350CACACBCDCDCECFD0D1D2D3D3D4D6D6D793
S1130360D8D9DBDBDCDDDEDEDFE1E1E2E3E4E6E697
S1130370E7E8E9EAEBEBECEEEEEFF0F1F2F3F3F49D
S1130380F6F7F8F8F9FAFBFCFDFEFF101011121352
S11303901415161718191A1B1C1D1E1E1F202122A6
S11303A0232425262728292A2B2C2D2D2E2F3031A6
S11303B032333435363738393A3B3C3C3D3E3F40A6
S11303C04142434445464748494A4B4B4C4D4E4FA6
S11303D0505152535455565758595A5A5B5C5D5EA6
S11303E05F60616263646566676869696A6B6C6DA6
S11303F06E6F70717273747576777878797A7B7CA6
S11304007D7E7F80818283848586878788898A8BA5
S11304108C8D8E8F90919293949596969798999AA5
S11304209B9C9D9E9FA0A1A2A3A4A5A5A6A7A8A9A5
S1130430AAABACADAEAFB0B1B2B3B4B4B5B6B7B8A5
S1130440B9BABBBCBDBEBFC0C1C2C3C3C4C5C6C7A5
S1130450C8C9CACBCCCDCECFD0D1D2D2D3D4D5D6A5
S1130460D7D8D9DADBDCDDDEDFE0E1E1E2E3E4E5A5
S1130470E6E7E8E9EAEBECEDEEEFF0F0F1F2F3F4A5
S1130480F5F6F7F8F9FAFBFCFDFEFF00222223241F
S11304902526272828292A2B2C2D2E2F2F303132A0
S11304A033343536363738393A3B3C3C3D3E3F40B1
S11304B0414243434445464748494A4A4B4C4D4EC2
S11304C04F5050515253545556575758595A5B5CD4
S11304D05D5E5E5F60616263646465666768696AE5
S11304E06B6B6C6D6E6F70717272737475767778F6
S11304F079797A7B7C7D7E7F7F8081828384858607
S1130500868788898A8B8C8D8D8E8F909192939318
S11305109495969798999A9A9B9C9D9E9FA0A1A129
S1130520A2A3A4A5A6A7A7A8A9AAABACADAEAEAF3B
S1130530B0B1B2B3B4B5B5B6B7B8B9BABBBCBCBD4B
S1130540BEBFC0C1C2C2C3C4C5C6C7C8C9C9CACB5D
S1130550CCCDCECFD0D0D1D2D3D4D5D6D6D7D8D96E
S1130560DADBDCDDDDDEDFE0E1E2E3E4E4E5E6E77F
S1130570E8E9EAEAEBECEDEEEFF0F1F1F2F3F4F591
S1130580F6F7F8F8F9FAFBFCFDFEFF00222223241B
S11305902526272828292A2B2C2D2E2F2F3031329F
S11305A033343536363738393A3B3C3C3D3E3F40B0
S11305B0414243434445464748494A4A4B4C4D4EC1
S11305C04F5050515253545556575758595A5B5CD3
S11305D05D5E5E5F60616263646465666768696AE4
S11305E06B6B6C6D6E6F70717272737475767778F5
S11305F079797A7B7C7D7E7F7F8081828384858606
S1130600868788898A8B8C8D8D8E8F909192939317
S11306109495969798999A9A9B9C9D9E9FA0A1A128
S1130620A2A3A4A5A6A7A7A8A9AAABACADAEAEAF3A
S1130630B0B1B2B3B4B5B5B6B7B8B9BABBBCBCBD4A
S1130640BEBFC0C1C2C2C3C4C5C6C7C8C9C9CACB5C
S1130650CCCDCECFD0D0D1D2D3D4D5D6D6D7D8D96D
S1130660DADBDCDDDDDEDFE0E1E2E3E4E4E5E6E77E
S1130670E8E9EAEAEBECEDEEEFF0F1F1F2F3F4F590
S1130680F6F7F8F8F9FAFBFCFDFEFF0000000000A5
S11306900000000000000000000000000000000056
S11306A00000000000000000000000000000000046
S11306B00000000000000000000000000000000036
S11306C00000000000000000000000000000000026
S11306D00000000000000000000000000000000016
S11306E00000000000000000000000FFFFFFFFFF0B
S11306F0FFFFFFFFFFFFFFFFFFFFFFFFFFFFFFFF06
S1130700FFFFFFFFFFFFFFFFFFFFFFFFFFFFFFFFF5
S1130710FFFFFFFFFFFFFFFFFFFFFFFFFFFFFFFFE5
S1130720FFFFFFFFFFFFFFFFFFFFFFFFFFFFFFFFD5
S1130730FFFFFFFFFFFFFFFFFFFFFFFFFFFFFFFFC5
S1130740FFFFFFFFFFFFFFFFFFFFFFFFFFFFFFFFB5
S1130750FFFFFFFFFFFFFFFFFFFFFFFFFFFFFFFFA5
S1130760FFFFFFFFFFFFFFFFFFFFFFFFFFFFFFFF95
S1130770FFFFFFFFFFFFFFFFFFFFFFFFFFFFFFFF85
S1130780FFFFFFFFFFFFFFFFFFFFFF20204D616919
S11307906E20202020202020202020002020202027
S11307A02020204D656E752020202020004D656D91
S11307B0202020506C617920202053747000202068
S11307C020204D656D6F727920202020202000208C
S11307D02043757272656E742025642020202020C9
S11307E00045646974202053746F20202053746F73
S11307F02B00202053746F72656420746F3A20209C
S113080020200020202020202020202020256420BB
S1130810202020200020202020457363617065641F
S113082020202020200020202020202020202020E4
S113083020202020202000202053746F7265642023
S1130840746F3A2020202000202020202020202007
S113085020202564202020202000202020204D65F9
S11308606D6F72792020202020200020202020205D
S1130870202066756C6C2020202020002020202061
S1130880204D656D6F7279202020202000202020CB
S113089043757272656E743A2020253264202000FC
S11308A020202053746F726520746F3A20253264BF
S11308B0202000202020204D656D6F72792020209B
S11308C0202020002020202020456469742020203E
S11308D0202020200054696D6520202044656C2070
S11308E02020436C72002053656C656374206D6531
S11308F06D6F727920200020746F20656469742004
S113090074696D652020200020205370656369663A
S113091079206E6577202020002020202020746913
S11309206D6520202020202020002053656C656305
S113093074206D656D6F7279202000202020746F03
S11309402064656C6574652020202000202050728E
S113095065737320456E7465722020200020746FC7
S11309602064656C657465206D256420202000205A
S11309706F722070726573732045736361706500D4
S1130980202020746F2063616E63656C202020201A
S11309900020507265737320456E74657220746F05
S11309A0200020636C656172206D656D6D6F7269E6
S11309B0657300206F7220707265737320457363D2
S11309C061706500202020746F2063616E63656C24
S11309D020202020002020202070726F6365656431
S11309E02020202020002020436C656172696E67FE
S11309F020616C6C202000202020206D656D6D6FBF
S1130A0072696573202020002020204D656D6F726F
S1130A107920202532642020200020202020646FAB
S1130A206573206E6F742020202000202020202059
S1130A306578697374212020202020002020205014
S1130A406C61796261636B20202020200020204E9D
S1130A506578742020202025642020202020004256
S1130A6061636B202020546F2020204E6578740031
S1130A7020202053656C656374206E657874202093
S1130A8000202043726F7373666164652020202008
S1130A902000202070657263656E74203D20202044
S1130AA0202020004261636B2020486F6C6420206A
S1130AB020476F200025326400464C0020436F6EAF
S1130AC066696775726174696F6E2020002020204A
S1130AD02020536574757020202020202000446D50
S1130AE078202020437572762020446961670020B5
S1130AF0436F6E6669677572652020202020200090
S1130B0020202020444D5820616464726573732052
S1130B100020204F7574707574206375727665209B
S1130B20200020202020202074797065202020209F
S1130B302020003E253032643C00202530326420E1
S1130B400020253164200020204C69766520766FD2
S1130B506C746167652020004C313D253364560078
S1130B604C323D25336456004C333D2533645600E6
S1130B70205265666572656E636520202020202002
S1130B800020202020766F6C74616765732020201C
S1130B9020003E4C25643C00204C25642000253375
S1130BA06400253033640025303464002020204361
S1130BB0757272656E743A202532642020200020FC
S1130BC0202053656C656374203A2025326420200C
S1130BD02000000106070C0D1213020308090E0F72
S1130BE0141504050A0B1011161700000101020266
S1130BF000000101020200000101020200000101E3
S1130C0002021B077C0DF60DEF11EE1241152F2A7F
S1130C10A12D133011241FBECFEFD0E1DEBFCDBF15
S1130C2011E0A0E0B1E0EEEFFAE600E00BBF02C095
S1130C3007900D92AC30B107D9F722E0ACE0B1E0F7
S1130C4001C01D92AD3AB207E1F716E0CAE0D6E062
S1130C5004C02197FE010E949030C130D107C9F72A
S1130C6023D70C947D35CCC9CF93DF9300D0CDB777
S1130C70DEB79A8389830F900F90DF91CF91089507
S1130C80CF93DF93CDB7DEB787E290E020ECFC0191
S1130C90208386E290E02FECFC012083DF91CF914A
S1130CA00895CF93DF9300D0CDB7DEB787E290E00D
S1130CB0FC01808187708983809119018A3078F5DD
S1130CC08FE590E0FC0180818A83F89484E290E0CF
S1130CD0FC01208131818981882F90E04981442F52
S1130CE050E0440F551F4D5E5E4FFA014081518123
S1130CF0240F351F880F991F8D5E9E4FFC01318391
S1130D0020838FE590E02A81FC0120838981823051
S1130D1029F4809119018F5F8093190123C089817F
S1130D20882F90E02981222F30E0220F331F2D5E7F
S1130D303E4FF90120813181880F991F835F9E4FB7
S1130D40FC01318320838981882F90E0880F991FCB
S1130D508D5E9E4FFC01118210828981823011F4D4
S1130D601092190187E290E029812F5F298329815C
S1130D70206CFC0120838981833030F486E290E08A
S1130D802FECFC01208305C086E290E026E6FC01FE
S1130D9020830F900F90DF91CF9108951F920F92AF
S1130DA000905F000F92112400905B000F922F932C
S1130DB03F934F935F936F937F938F939F93AF93DF
S1130DC0BF93EF93FF93CF93DF93CDB7DEB769DF84
S1130DD0DF91CF91FF91EF91BF91AF919F918F914F
S1130DE07F916F915F914F913F912F910F9000925E
S1130DF05B000F9000925F000F901F901895CF93A7
S1130E00DF9300D000D0CDB7DEB79A8389837C838B
S1130E106B8389819A81019739F48B819C81019636
S1130E2019F48CE091E020DF0F900F900F900F9059
S1130E30DF91CF910895CF93DF93CDB7DEB76FEFF6
S1130E407FEF81E090E0DBDFDF91CF910895CF93D6
S1130E50DF9300D0CDB7DEB79A8389830F900F90CC
S1130E60DF91CF910895CF93DF93CDB7DEB72F975E
S1130E700FB6F894DEBF0FBECDBF998788871A825C
S1130E808FE991E00E94111533C19A81892F880F4F
S1130E90890F880F880F8B832091C6013091C70179
S1130EA08B81882F90E0820F931FAC01455F5F4FC9
S1130EB02091C6013091C7018B81882F90E0280FC3
S1130EC0391F8CE890E0652F6F934F93432F4F9316
S1130ED02F93292F2F938F931F921F928FE991E0C5
S1130EE0892F8F938FE991E08F930E94F3148DB72C
S1130EF09EB70A960FB6F894DEBF0FBECDBF198217
S1130F00CFC09981892F880F890F8B5F8C8389814A
S1130F10282F30E08B81882F90E0820F931F8B590C
S1130F209E4FFC018081882F90E024E6289FA00139
S1130F30299F500D11242FEF30E0CA01B9010E94FE
S1130F404230CB018D834C8161E08FE991E00E94B6
S1130F50B8148D81843690F48D81282F30E08DE98A
S1130F6090E0432F4F932F93292F2F938F930E9419
S1130F7031310F900F900F900F9009C082EA90E0EA
S1130F80292F2F938F930E9431310F900F904C8112
S1130F9062E08FE991E00E94B8148981882F90E083
S1130FA09C012C5F3F4F8B81882F90E0820F931F11
S1130FB08B599E4FFC018081882F90E024E6289F66
S1130FC0A001299F500D11242FEF30E0CA01B9016F
S1130FD00E944230CB018D838D81843690F48D81C3
S1130FE0282F30E086EA90E0432F4F932F93292F48
S1130FF02F938F930E9431310F900F900F900F9089
S113100009C08BEA90E0292F2F938F930E943131EE
S11310100F900F908981882F90E09C01285F3F4FAB
S11310208B81882F90E0820F931F8B599E4FFC0178
S11310308081882F90E024E6289FA001299F500DED
S113104011242FEF30E0CA01B9010E944230CB01D4
S11310508D834C8163E08FE991E00E94B8148D8107
S1131060843690F48D81282F30E08FEA90E0432F6E
S11310704F932F93292F2F938F930E9431310F90E9
S11310800F900F900F9009C084EB90E0292F2F93BD
S11310908F930E9431310F900F9089818F5F8983E4
S11310A08981843008F42DCF8091A3029091A40209
S11310B00E94F3309F838E8321E08E819F8101966D
S11310C009F420E02223A1F08E81882F90E0803162
S11310D0910569F08038910529F0049709F008C05A
S11310E01A8206C082EA91E00E94671501C00000DE
S11310F090917D0181E0992309F480E0882309F02F
S1131100C4CE2F960FB6F894DEBF0FBECDBFDF91CD
S1131110CF910895CF93DF93CDB7DEB76C970FB619
S1131120F894DEBF0FBECDBF98878F838FE991E01F
S11311300E94111581E080939501A89580911C016E
S1131140883008F00EC11982EFC08981880F880F9A
S11311508A838981882F90E08B599E4FFC0180817E
S1131160882F90E024E6289FA001299F500D112488
S11311702FEF30E0CA01B9010E944230CB018B83CA
S11311804A8160E08FE991E00E94B81490911C01BB
S113119089819817A9F48981882F90E09C012F5F99
S11311A03F4F88EB90E0432F4F932F93292F2F939A
S11311B08F930E9431310F900F900F900F9014C0B5
S11311C08981882F90E09C012F5F3F4F8FEB90E047
S11311D0432F4F932F93292F2F938F930E943131B5
S11311E00F900F900F900F904A8161E08FE991E08A
S11311F00E94B8148B818436A8F48B81282F30E0A8
S113120086EC90E0432F4F932F93292F2F938F93A6
S11312100E9431310F900F900F900F908B8180932B
S11312201B0109C08DEC90E0292F2F938F930E940E
S113123031310F900F908981882F90E004968B595B
S11312409E4FFC018081882F90E024E6289FA00116
S1131250299F500D11242FEF30E0CA01B9010E94DB
S11312604230CB018B834A8162E08FE991E00E9496
S1131270B81480911C01282F30E08981882F90E0D8
S1131280049628173907A9F48981882F90E09C01D6
S11312902B5F3F4F82ED90E0432F4F932F93292FE5
S11312A02F938F930E9431310F900F900F900F90D6
S11312B014C08981882F90E09C012B5F3F4F89EDFA
S11312C090E0432F4F932F93292F2F938F930E94B6
S11312D031310F900F900F900F904A8163E08FE9A6
S11312E091E00E94B8148B81843690F48B81282F6E
S11312F030E080EE90E0432F4F932F93292F2F93CC
S11313008F930E9431310F900F900F900F9009C06E
S113131087EE90E0292F2F938F930E9431310F9005
S11313200F9089818F5F89838981843008F40DCF80
S113133080911C018370880F880F8D5F8A83809150
S11313401C01843038F44A8161E08FE991E00E9405
S1131350B81406C04A8163E08FE991E00E94B81492
S113136028C280911C01803108F012C11982F3C097
S11313708981880F880F8A838981882F90E0089655
S11313808B599E4FFC018081882F90E024E6289F92
S1131390A001299F500D11242FEF30E0CA01B9019B
S11313A00E944230CB018B834A8160E08FE991E057
S11313B00E94B81480911C01282F30E08981882F65
S11313C090E0089628173907A9F48981882F90E0BE
S11313D09C01275F3F4F8CEE90E0432F4F932F9358
S11313E0292F2F938F930E9431310F900F900F90DC
S11313F00F9014C08981882F90E09C01275F3F4F94
S113140083EF90E0432F4F932F93292F2F938F93A4
S11314100E9431310F900F900F900F904A8161E03C
S11314208FE991E00E94B8148B81843690F48B810B
S1131430282F30E08AEF90E0432F4F932F93292FEA
S11314402F938F930E9431310F900F900F900F9034
S113145009C081E091E0292F2F938F930E943131AD
S11314600F900F908981882F90E00C968B599E4F96
S1131470FC018081882F90E024E6289FA001299F09
S1131480500D11242FEF30E0CA01B9010E944230FF
S1131490CB018B834A8162E08FE991E00E94B8140A
S11314A080911C01282F30E08981882F90E00C96D0
S11314B028173907A9F48981882F90E09C01235FBC
S11314C03F4F86E091E0432F4F932F93292F2F9383
S11314D08F930E9431310F900F900F900F9014C092
S11314E08981882F90E09C01235F3F4F8DE091E03C
S11314F0432F4F932F93292F2F938F930E94313192
S11315000F900F900F900F904A8163E08FE991E064
S11315100E94B8148B81843690F48B81282F30E09C
S113152084E191E0432F4F932F93292F2F938F938F
S11315300E9431310F900F900F900F9009C08BE1F2
S113154091E0292F2F938F930E9431310F900F90A8
S113155089818F5F89838981823008F409CF8091E2
S11315601C018370880F880F8D5F8A8380911C0112
S11315708C3038F44A8161E08FE991E00E94B8141C
S113158006C04A8163E08FE991E00E94B81411C15A
S11315901982F3C08981880F880F8A838981882FF3
S11315A090E040968B599E4FFC018081882F90E0FB
S11315B024E6289FA001299F500D11242FEF30E02D
S11315C0CA01B9010E944230CB018B834A8160E099
S11315D08FE991E00E94B81480911C01282F30E01B
S11315E08981882F90E0409628173907A9F48981CA
S11315F0882F90E09C012F5E3F4F80E291E0432FC3
S11316004F932F93292F2F938F930E9431310F9053
S11316100F900F900F9014C08981882F90E09C0147
S11316202F5E3F4F87E291E0432F4F932F93292F53
S11316302F938F930E9431310F900F900F900F9042
S11316404A8161E08FE991E00E94B8148B8184366D
S113165090F48B81282F30E08EE291E0432F4F935A
S11316602F93292F2F938F930E9431310F900F9036
S11316700F900F9009C085E391E0292F2F938F934A
S11316800E9431310F900F908981882F90E0449609
S11316908B599E4FFC018081882F90E024E6289F7F
S11316A0A001299F500D11242FEF30E0CA01B90188
S11316B00E944230CB018B834A8162E08FE991E042
S11316C00E94B81480911C01282F30E08981882F52
S11316D090E0449628173907A9F48981882F90E06F
S11316E09C012B5E3F4F8AE391E0432F4F932F934E
S11316F0292F2F938F930E9431310F900F900F90C9
S11317000F9014C08981882F90E09C012B5E3F4F7D
S113171081E491E0432F4F932F93292F2F938F939D
S11317200E9431310F900F900F900F904A8163E027
S11317308FE991E00E94B8148B81843690F48B81F8
S1131740282F30E088E491E0432F4F932F93292FE3
S11317502F938F930E9431310F900F900F900F9021
S113176009C08FE491E0292F2F938F930E94313188
S11317700F900F9089818F5F89838981843008F469
S113178009CF80911C018370880F880F8D5F8A8335
S113179080911C01843138F44A8161E08FE991E041
S11317A00E94B81406C04A8163E08FE991E00E9468
S11317B0B8140CC0A89590917D0181E0992309F497
S11317C080E0882319F010929501E6C014D69D8319
S11317D08C8321E08C819D81019609F020E02223F5
S11317E049F78C81882F90E080319105E1F08131B7
S11317F0910534F48430910561F00897F1F0CBC081
S11318008034910509F46BC08038910509F4B9C09E
S1131810C2C080911C01882329F080911C01815051
S113182080931C018ACC80911C018B3028F4809118
S11318301C018F5F80931C0180CC80911C01882F38
S113184090E08B599E4FFC018081882F90E024E624
S1131850289FA001299F500D11242FEF30E0CA01C9
S1131860B9010E944230CB018B8380911C01882FE7
S113187090E08B599E4FFC01908181E09F3F09F0DD
S113188080E0882309F02AC080911C01882F90E011
S11318909C012B593E4FF90120812F5F8B599E4F9C
S11318A0FC01208380911C01882F90E08B599E4F6E
S11318B0FC018081882F90E024E6289FA001299FC5
S11318C0500D11242FEF30E0CA01B9010E944230BB
S11318D0CB018E839E818B81981739F22ECC809117
S11318E01C01882F90E08B599E4FFC018081882F2A
S11318F090E024E6289FA001299F500D11242FEF8A
S113190030E0CA01B9010E944230CB018B8380913F
S11319101C01882F90E08B599E4FFC01908181E03F
S1131920992309F080E0882309F02AC080911C01E2
S1131930882F90E09C012B593E4FF90120812150C2
S11319408B599E4FFC01208380911C01882F90E0CD
S11319508B599E4FFC018081882F90E024E6289FBC
S1131960A001299F500D11242FEF30E0CA01B901C5
S11319700E944230CB018E839E818B81981739F26D
S1131980DCCB1092950182EA91E00E94671581E018
S11319908093950101C00DCF6C960FB6F894DEBF0D
S11319A00FBECDBFDF91CF910895CF93DF9300D0C9
S11319B000D000D0CDB7DEB79E838D8384E591E05F
S11319C0292F2F938F931F921F928FE991E0892FD4
S11319D08F938FE991E08F930E94F3140F900F90EF
S11319E00F900F900F900F9085E691E01F921F9239
S11319F01F9221E02F93292F2F938F931F9281E021
S1131A008F938FE991E0892F8F938FE991E08F93E2
S1131A10EAD78DB79EB70A960FB6F894DEBF0FBE0D
S1131A20CDBF8AE791E0292F2F938F931F9283E0F4
S1131A308F938FE991E0892F8F938FE991E08F93B2
S1131A40D2D70F900F900F900F900F900F90198294
S1131A501A821B821C820DC0A895000089819A817C
S1131A60AB81BC810196A11DB11D89839A83AB838F
S1131A70BC8389819A81AB81BC81803A9648A1401C
S1131A80B10550F3789490917D0181E0992309F494
S1131A9080E0882321F08D819E81E5D903C08D816A
S1131AA09E8138DBA895EFCFCF93DF93CDB7DEB718
S1131AB08AE191E07ADF80E090E0DF91CF910895B0
S1131AC0CF93DF9300D000D0CDB7DEB79A8389835C
S1131AD07C836B8389819A81019739F48B819C8102
S1131AE0019619F48AE191E0B2D90F900F900F900A
S1131AF00F90DF91CF910895CF93DF93CDB7DEB7E9
S1131B006FEF7FEF81E090E0DBDFDF91CF9108950D
S1131B10CF93DF9300D0CDB7DEB79A8389830F903C
S1131B200F90DF91CF910895CF93DF9300D000D031
S1131B301F92CDB7DEB78C836D838C81882F90E0A4
S1131B4080529E4FFC018081282F30E08D81882FA8
S1131B5090E0322F2227820F931F85579D4F9A833F
S1131B60898389819A81FC0184918B838B810F9075
S1131B700F900F900F900F90DF91CF910895CF9316
S1131B80DF9300D000D0CDB7DEB78C838C81882F53
S1131B9090E085579E4F9A83898389819A81FC01BD
S1131BA084918B838B810F900F900F900F90DF9116
S1131BB0CF910895CF93DF9300D000D0CDB7DEB797
S1131BC09A8389837C836B8389819A81019739F411
S1131BD08B819C81019619F48DE191E099DF0F903E
S1131BE00F900F900F90DF91CF910895CF93DF93D3
S1131BF0CDB7DEB76FEF7FEF81E090E0DBDFDF9101
S1131C00CF910895CF93DF93CDB7DEB728970FB662
S1131C10F894DEBF0FBECDBF9A8389837C836B8328
S1131C205E834D8338872F832B813C8189819A8100
S1131C30A901481B590BCA0199231CF4919581955C
S1131C40910990931F0180931E012B813C8189810E
S1131C509A81821793071CF481E090E002C08FEF11
S1131C609FEF90932501809324012F8138858D81E6
S1131C709E81A901481B590BCA0199231CF4919513
S1131C808195910990932101809320012F813885BA
S1131C908D819E81821793071CF481E090E002C03D
S1131CA08FEF9FEF909327018093260189819A817A
S1131CB090932D0180932C0180912C0190912D0102
S1131CC090932901809328018D819E8190932F0107
S1131CD080932E0180912E0190912F0190932B01DE
S1131CE080932A018B819C819093310180933001F0
S1131CF08F81988590933301809332011092230150
S1131D001092220128960FB6F894DEBF0FBECDBF05
S1131D10DF91CF910895CF93DF93CDB7DEB72091B4
S1131D201E0130911F0180912001909121012817FB
S1131D3039070CF44BC0209128013091290180917E
S1131D40240190912501820F931F90932901809380
S1131D50280120912201309123018091200190914A
S1131D602101820F931F90932301809322012091DC
S1131D7022013091230180911E0190911F012817A7
S1131D8039072CF480912A0190912B0169C020918C
S1131D902A0130912B018091260190912701820F15
S1131DA0931F90932B0180932A012091220130915B
S1131DB0230180911E0190911F01A901481B590B19
S1131DC0CA01909323018093220146C020912A01E5
S1131DD030912B018091260190912701820F931F4E
S1131DE090932B0180932A012091220130912301A9
S1131DF080911E0190911F01820F931F90932301E4
S1131E0080932201209122013091230180912001AD
S1131E1090912101281739070CF4D8CF209128017B
S1131E20309129018091240190912501820F931F03
S1131E30909329018093280120912201309123015C
S1131E408091200190912101A901481B590BCA01DD
S1131E50909323018093220180912A0190912B0178
S1131E60DF91CF910895CF93DF9300D0CDB7DEB744
S1131E709A83898389E290E023E0FC0120838BE24A
S1131E8090E0FC0110828AE290E025E9FC012083C5
S1131E9085E990E026E0FC01208382E390E022E3E0
S1131EA030E0F90120812F7EFC01208381E390E062
S1131EB021E330E0F90120812061FC01208389E9DC
S1131EC090E023E0FC0120838BE990E0FC01108288
S1131ED08AE990E02DE9FC0120838DE990E026E079
S1131EE0FC0120830F900F90DF91CF910895CF9341
S1131EF0DF9300D01F92CDB7DEB78BE290E0FC01F8
S1131F00808189838AE290E0FC0180818A838CE26B
S1131F1090E0FC0180818B838B81882379F48A8112
S1131F20882F90E082709927892B41F481E0809377
S1131F308001109281011092820172C090918001FF
S1131F4081E0992309F480E08823C9F0109280018C
S1131F508B81882309F064C081E08093830181E050
S1131F608093810185E391E09093890180938801B6
S1131F7010928D0110928C0189818B8351C09091B4
S1131F80810181E0992309F480E08823F9F08091AC
S1131F908C0190918D01019690938D0180938C0119
S1131FA02091C6013091C70141E08217930708F4DC
S1131FB040E0442351F010928D0110928C01109254
S1131FC0810181E08093820101C02AC09091820145
S1131FD081E0992309F480E0882311F1809188013C
S1131FE0909189019C012F5F3F4F30938901209389
S1131FF088012B81FC01208380918C0190918D01BB
S1132000019690938D0180938C0121E0489708F408
S113201020E0222329F08EE180937E011092820138
S11320200F900F900F90DF91CF9108951F920F9210
S113203000905F000F92112400905B000F922F9389
S11320403F934F935F936F937F938F939F93AF933C
S1132050BF93EF93FF93CF93DF93CDB7DEB747DF03
S1132060DF91CF91FF91EF91BF91AF919F918F91AC
S11320707F916F915F914F913F912F910F900092BB
S11320805B000F9000925F000F901F901895CF9304
S1132090DF9300D01F92CDB7DEB78BE990E0FC014F
S11320A0808189838AE990E0FC0180818A838CE9BC
S11320B090E0FC0180818B838B81882379F48A8171
S11320C0882F90E082709927892B41F481E08093D6
S11320D08401109285011092860172C0909184014E
S11320E081E0992309F480E08823C9F010928401E7
S11320F08B81882309F064C081E08093870181E0AB
S1132100809385018DE491E090938B0180938A0103
S113211010928F0110928E0189818B8351C090910E
S1132120850181E0992309F480E08823F9F0809106
S11321308E0190918F01019690938F0180938E016F
S11321402091C6013091C70141E08217930708F43A
S113215040E0442351F010928F0110928E011092AE
S1132160850181E08093860101C02AC09091860197
S113217081E0992309F480E0882311F180918A0198
S113218090918B019C012F5F3F4F30938B012093E3
S11321908A012B81FC01208380918E0190918F0113
S11321A0019690938F0180938E0121E0489708F463
S11321B020E0222329F08EE180937F011092860192
S11321C00F900F900F90DF91CF9108951F920F926F
S11321D000905F000F92112400905B000F922F93E8
S11321E03F934F935F936F937F938F939F93AF939B
S11321F0BF93EF93FF93CF93DF93CDB7DEB747DF62
S1132200DF91CF91FF91EF91BF91AF919F918F910A
S11322107F916F915F914F913F912F910F90009219
S11322205B000F9000925F000F901F901895CF9362
S1132230DF931F92CDB7DEB780919001882311F50B
S113224080917E0180937D0191E0882309F490E0E0
S1132250992309F48AC0198211C08981882F90E0DA
S11322602981222F30E02B5C3E4FF90120818B59CC
S11322709E4FFC01208389818F5F89838981883106
S113228060F373C080919001813011F580917F01DA
S113229080937D0191E0882309F490E0992309F467
S11322A064C0198211C08981882F90E02981222F6E
S11322B030E0235B3E4FF90120818B599E4FFC0196
S11322C0208389818F5F89838981883160F34DC040
S11322D080917E01882321F480917F01882311F06D
S11322E081E001C080E0982F90937D0181E09923E3
S11322F009F480E08823C9F1198234C08981882FC8
S113230090E08B5C9E4FFC0120818981882F90E0B6
S1132310835B9E4FFC01908181E0921708F080E07E
S1132320882379F08981882F90E02981222F30E059
S11323302B5C3E4FF90120818B599E4FFC01208379
S11323400EC08981882F90E02981222F30E0235B01
S11323503E4FF90120818B599E4FFC0120838981D6
S11323608F5F89838981883148F290917E0181E071
S1132370992309F480E0882329F080917E0181501B
S113238080937E0190917F0181E0992309F480E09C
S1132390882329F080917F01815080937F010F90E1
S11323A0DF91CF910895CF93DF9300D000D0CDB7C4
S11323B0DEB79A8389837C836B8389819A810197B1
S11323C039F48B819C81019619F484E391E04BDD0F
S11323D00F900F900F900F90DF91CF910895CF93AE
S11323E0DF93CDB7DEB76FEF7FEF81E090E0DBDF07
S11323F0DF91CF910895CF93DF9300D0CDB7DEB7AF
S1132400A7D0882F90E09A83898321E089819A81DB
S1132410892B09F420E0222319F089819A8102C0D2
S11324208FEF9FEF0F900F90DF91CF910895CF938F
S1132430DF9300D0CDB7DEB79A83898383E290E03F
S11324402CEFFC01208382E290E022E230E0F901EB
S113245020812370FC0120830F900F90DF91CF9196
S11324600895CF93DF9300D0CDB7DEB780910701F5
S1132470882331F08091070181508093070163C064
S113248081E290E0FC01808183608A838A818F3FAE
S113249011F41092960180919501282F30E081E08B
S11324A09A819F3F09F480E0882F90E08223932350
S11324B0892BE1F0809196018A3028F4809196016D
S11324C08F5F80939601809196018A3040F08A81D3
S11324D08095909106019864892389830DC08A812F
S11324E08095909106018923898306C08A8180950D
S11324F0909106018923898389818823F1F0809151
S113250094018830D0F480919201882F90E089560C
S11325109E4F2981FC012083809194018F5F8093D9
S1132520940180919201873030F4809192018F5F01
S11325308093920102C0109292018A8180930601D5
S113254082E4809307010F900F90DF91CF9108955B
S1132550CF93DF931F92CDB7DEB780919401882388
S113256011F480E01BC080919301882F90E089567C
S11325709E4FFC018081898380919301873030F4E0
S1132580809193018F5F8093930102C01092930115
S11325908091940181508093940189810F90DF91FF
S11325A0CF910895CF93DF9300D000D0CDB7DEB79D
S11325B09A8389837C836B8389819A81019739F417
S11325C08B819C81019619F481E991E030DF0F90B1
S11325D00F900F900F90DF91CF910895CF93DF93D9
S11325E0CDB7DEB76FEF7FEF81E090E0DBDFDF9107
S11325F0CF910895CF93DF9300D01F92CDB7DEB76C
S113260089837B836A83898172D180E090E00F9013
S11326100F900F90DF91CF910895CF93DF9300D067
S11326201F92CDB7DEB79B838A8360E070E08AEFA8
S113263092E10E94A9309093A1018093A0018BE3C1
S113264090E02FEFFC0120838AE390E0FC011082EC
S113265085E390E025E330E0F90120812F77FC0148
S1132660208384E390E024E330E0F90120812068B2
S1132670FC01208385E690E025E630E0F901208125
S11326802160FC01208384E690E024E630E0F90137
S113269020812160FC01208385E390E025E330E084
S11326A0F90120812E7FFC01208384E390E024E360
S11326B030E0F90120812160FC012083198206C0E9
S11326C08A819B818CD089818F5F898389818630BF
S11326D0B8F38A819B8168E3C4D000000000000045
S11326E000008A819B8168E3BCD0000000000000E8
S11326F000000000000000000000000000000000D6
S113270000000000000000000000000000000000C5
S113271000008A819B8168E3A4D08A819B8168E060
S1132720A0D08A819B8166E09CD08A819B8161E0F4
S113273098D08A819B8162E094D08A819B816EE0EB
S113274090D00F900F900F90DF91CF9108951F9329
S1132750CF93DF93CDB7DEB78AE390E0FC0110821C
S11327608BE390E02FEFFC01208385E690E025E6E3
S113277030E0F90120812160FC01208385E390E0B1
S113278025E330E0F90120812E7FFC01208385E3DD
S113279090E025E330E0F90120812068FC012083EA
S11327A00000000000000000000000000000000025
S11327B089E390E0FC01108185E390E025E330E0BB
S11327C0F90120812F77FC012083812F88231CF4B9
S11327D01F3F09F0CACFDF91CF911F910895CF9386
S11327E0DF9300D0CDB7DEB79A8389838AE390E084
S11327F02FEFFC01208385E690E025E630E0F90127
S113280020812E7FFC01208385E390E025E330E0E6
S1132810F90120812E7FFC01208385E390E025E3EC
S113282030E0F90120812068FC0120838BE390E0F3
S113283028E3FC01208300000000000000000000E9
S113284000000000000088E390E028E330E0F90194
S113285020812F77FC0120830F900F90DF91CF917F
S11328600895CF93DF9300D01F92CDB7DEB79A833C
S113287089836B836CDF8AE390E02FEFFC01208374
S113288085E690E025E630E0F90120812E7FFC0109
S1132890208385E390E025E330E0F90120812E7F59
S11328A0FC01208385E390E025E330E0F9012081F9
S11328B02068FC0120838BE390E02B81FC012083C2
S11328C00000000000000000000000000000000004
S11328D085E390E025E330E0F90120812F77FC01C6
S11328E020830F900F900F90DF91CF910895CF9395
S11328F0DF931F92CDB7DEB7898329DF8AE390E0A7
S11329002FEFFC01208385E690E025E630E0F90115
S113291020812E7FFC01208385E390E025E330E0D5
S1132920F90120812160FC01208385E390E025E307
S113293030E0F90120812068FC0120838BE390E0E2
S11329402981FC0120830000000000000000000039
S113295000000000000085E390E025E330E0F90189
S113296020812F77FC0120830F90DF91CF91089570
S1132970CF93DF9300D000D01F92CDB7DEB79B83F7
S11329808A836C834D838D8189838C81882F90E029
S11329908130910549F082309105ACF08230910587
S11329A039F0039749F010C08981805C89830CC099
S11329B08981805F898308C08981805C898389815A
S11329C0805F898301C000008981806889838A814E
S11329D09B81698146DF0F900F900F900F900F90AD
S11329E0DF91CF910895CF93DF9300D0CDB7DEB7B9
S11329F08F8198854A856985BBDFCE010D969A83C0
S1132A00898349815A818091A0019091A1012B85EC
S1132A103C85B9010E9458310F900F90DF91CF91FE
S1132A200895CF93DF9300D0CDB7DEB79A8389831F
S1132A3089819A8161E015DF89819A8162E011DFE1
S1132A400F900F90DF91CF910895CF93DF9300D033
S1132A5000D0CDB7DEB79A8389837C836B83898169
S1132A609A81019739F48B819C81019619F48FE93D
S1132A7091E0D3DD0F900F900F900F90DF91CF91E5
S1132A800895CF93DF93CDB7DEB76FEF7FEF81E08B
S1132A9090E0DBDFDF91CF910895CF93DF931F9216
S1132AA0CDB7DEB789838981882F90E0880F991F7D
S1132AB0835F9E4FFC0180819181929582958F70F6
S1132AC089279F7089270F90DF91CF910895CF9325
S1132AD0DF9300D01F92CDB7DEB79B838A83A8957E
S1132AE08FE991E09EDF8BE897E0292F2F938F9356
S1132AF01F921F928FE991E0892F8F938FE991E0C4
S1132B008F9371DF0F900F900F900F900F900F9095
S1132B108CE997E0292F2F938F931F9281E08F9355
S1132B208FE991E0892F8F938FE991E08F935BDF99
S1132B300F900F900F900F900F900F908DEA97E0E9
S1132B40292F2F938F931F9283E08F938FE991E026
S1132B50892F8F938FE991E08F9345DF0F900F902A
S1132B600F900F900F900F908A819B810E94712586
S1132B7089838981882F90E08031910509F1813121
S1132B80910534F48430910551F0089761F01CC02C
S1132B9080329105D9F080389105D1F015C08A8131
S1132BA09B811DD016C090917D0181E0992309F489
S1132BB080E0882309F008C08A819B817DD509C003
S1132BC08A819B81FED68BCFA895CECF000001C011
S1132BD000000F900F900F90DF91CF910895CF9345
S1132BE0DF9300D000D01F92CDB7DEB79D838C83D6
S1132BF0A8958FE991E015DF8EEB97E0292F2F93AD
S1132C008F931F921F928FE991E0892F8F938FE901
S1132C1091E08F93E8DE0F900F900F900F900F903C
S1132C200F908091A901882F90E09C012F5F3F4F66
S1132C308FEC97E0432F4F932F93292F2F938F934C
S1132C401F9281E08F938FE991E0892F8F938FE911
S1132C5091E08F93C8DE8DB79EB708960FB6F894AF
S1132C60DEBF0FBECDBF81EE97E0292F2F938F9348
S1132C701F9283E08F938FE991E0892F8F938FE9DF
S1132C8091E08F93B0DE0F900F900F900F900F9004
S1132C900F908C819D810E94712589838981882F61
S1132CA090E08031910509F48EC08131910534F4AE
S1132CB08430910539F0089749F0FCC0809709F4F5
S1132CC0FBC0F8C08C819D81B2D192CF8C819D8153
S1132CD0FCD09B838A838B818095881F8827881FDB
S1132CE0882309F440C08A81682F89EA91E00E9410
S1132CF0A22882EF97E0292F2F938F931F921F9280
S1132D008FE991E0892F8F938FE991E08F936BDEA8
S1132D100F900F900F900F900F900F908A819B81CE
S1132D209C012F5F3F4F83E098E0432F4F932F93F5
S1132D30292F2F938F931F9281E08F938FE991E036
S1132D40892F8F938FE991E08F934DDE8DB79EB7D6
S1132D5008960FB6F894DEBF0FBECDBF8C819D815F
S1132D600E944425AAC085E198E0292F2F938F93D0
S1132D701F921F928FE991E0892F8F938FE991E041
S1132D808F9331DE0F900F900F900F900F900F9054
S1132D9086E298E0292F2F938F931F9281E08F93DF
S1132DA08FE991E0892F8F938FE991E08F931BDE58
S1132DB00F900F900F900F900F900F908C819D812A
S1132DC00E94442515CF89EA91E00E941F289B8325
S1132DD08A838B818095881F8827881F8823D1F157
S1132DE087E398E0292F2F938F931F921F928FE9E7
S1132DF091E0892F8F938FE991E08F93F4DD0F9009
S1132E000F900F900F900F900F908A819B819C01DF
S1132E102F5F3F4F88E498E0432F4F932F93292F40
S1132E202F938F931F9281E08F938FE991E0892FE5
S1132E308F938FE991E08F93D6DD8DB79EB7089677
S1132E400FB6F894DEBF0FBECDBF8C819D810E946A
S1132E50442533C08AE598E0292F2F938F931F923E
S1132E601F928FE991E0892F8F938FE991E08F93DF
S1132E70BADD0F900F900F900F900F900F908BE68C
S1132E8098E0292F2F938F931F9281E08F938FE9DE
S1132E9091E0892F8F938FE991E08F93A4DD0F90B8
S1132EA00F900F900F900F900F908C819D810E9436
S1132EB044259ECEA895EDCE00000F900F900F9064
S1132EC00F900F90DF91CF910895CF93DF9300D0AF
S1132ED000D01F92CDB7DEB79D838C838FE991E03C
S1132EE0A0DD8CE798E0292F2F938F931F921F92D8
S1132EF08FE991E0892F8F938FE991E08F9373DDB0
S1132F000F900F900F900F900F900F908091A90148
S1132F10882F90E001969A8389838DE898E02A812E
S1132F202F9329812F93292F2F938F931F9281E021
S1132F308F938FE991E0892F8F938FE991E08F939D
S1132F4052DD8DB79EB708960FB6F894DEBF0FBE5C
S1132F50CDBF89819A81892B21F481E090E09A8305
S1132F60898381E080939501A89580EA98E02A817D
S1132F702F9329812F93292F2F938F931F9283E0CF
S1132F808F938FE991E0892F8F938FE991E08F934D
S1132F902ADD8DB79EB708960FB6F894DEBF0FBE34
S1132FA0CDBF8C819D810E9471258B838B81882F5D
S1132FB090E080319105E9F08131910534F4843059
S1132FC0910509F10897A9F028C080349105D9F03A
S1132FD08038910519F0809739F01FC0109295013F
S1132FE089819A8101971BC0109295018FEF9FEF01
S1132FF016C089819A8148972CF489819A81019617
S11330009A838983B1CF89819A8102972CF089812F
S11330109A8101979A838983A7CFA895C2CF0F90ED
S11330200F900F900F900F90DF91CF910895EF9232
S1133030FF920F931F93CF93DF93CDB7DEB76397C0
S11330400FB6F894DEBF0FBECDBF9B878A87A895C5
S11330508FE991E0E6DC83EB98E0292F2F938F939F
S11330601F921F928FE991E0892F8F938FE991E04E
S11330708F93B9DC0F900F900F900F900F900F90DB
S113308084EC98E0292F2F938F931F9281E08F93E4
S11330908FE991E0892F8F938FE991E08F93A3DCDF
S11330A00F900F900F900F900F900F9085ED98E078
S11330B0292F2F938F931F9283E08F938FE991E0B1
S11330C0892F8F938FE991E08F938DDC0F900F9070
S11330D00F900F900F900F908A859B850E94712509
S11330E089838981882F90E08031910509F4AFC1EB
S11330F0813191053CF48430910569F0089709F415
S1133100E5C069C28032910509F467C2803891052F
S113311009F465C260C286EE98E0292F2F938F933D
S11331201F921F928FE991E0892F8F938FE991E08D
S11331308F9359DC0F900F900F900F900F900F907A
S113314087EF98E0292F2F938F931F9281E08F931D
S11331508FE991E0892F8F938FE991E08F9343DC7E
S11331600F900F900F900F900F900F908A859B8572
S11331700E9428249B838A838B818095881F8827BB
S1133180881F882309F4A1C08A819B8184559E4F9E
S1133190FC018081882339F42A813B818A859B85BF
S11331A0B9012BD292C08FE991E03BDC88E099E031
S11331B0292F2F938F931F921F928FE991E0892FCC
S11331C08F938FE991E08F930EDC0F900F900F9007
S11331D00F900F900F9089E199E0292F2F938F93EF
S11331E01F9281E08F938FE991E0892F8F938FE96C
S11331F091E08F93F8DB0F900F900F900F900F904A
S11332000F908A81682F89EA91E00E94F1289D83BA
S11332108C838C819D819C01990F440B550B8AE40E
S113322091E0DC010E948630DC01CB0128EE33E022
S113323040E050E0BC01CD010E945530DA01C901E3
S11332409093A4018093A3018A859B85EE24E39443
S1133250F12C0FE017E224E046E063EA71E00E94FB
S113326031229F838E838091A3019091A40141E038
S11332702E813F812817390709F440E0442329F1BE
S11332808E819F819C0140E050E088EE93E0DC0158
S11332900E948630DC01CB012AE431E040E050E0BA
S11332A0BC01CD010E945530DA01C9019093A401FB
S11332B08093A3018091A3019091A4012A81AC0180
S11332C0622F89EA91E00E942629C1CE8AE299E020
S11332D0292F2F938F931F921F928FE991E0892FAB
S11332E08F938FE991E08F937EDB0F900F900F9077
S11332F00F900F900F908BE399E0292F2F938F93CA
S11333001F9281E08F938FE991E0892F8F938FE94A
S113331091E08F9368DB0F900F900F900F900F90B8
S11333200F908A859B850E9428249B838A838B81A6
S11333308095881F8827881F882309F487C08A817D
S11333409B8184559E4FFC018081882339F42A8116
S11333503B818A859B85B90150D178C08FE991E082
S113336060DB8CE499E0292F2F938F931F921F9297
S11333708FE991E0892F8F938FE991E08F9333DB6D
S11333800F900F900F900F900F900F908A819B8158
S11333909C012F5F3F4F8DE599E0432F4F932F936F
S11333A0292F2F938F931F9281E08F938FE991E0C0
S11333B0892F8F938FE991E08F9315DB8DB79EB79B
S11333C008960FB6F894DEBF0FBECDBF8FE699E026
S11333D0292F2F938F931F9282E08F938FE991E08F
S11333E0892F8F938FE991E08F93FDDA0F900F90DF
S11333F00F900F900F900F9080E899E0292F2F9352
S11334008F931F9283E08F938FE991E0892F8F939D
S11334108FE991E08F93E7DA0F900F900F900F9060
S11334200F900F908A859B850E94712588878885D7
S1133430803819F088858032A9F78885803831F47E
S11334408A81682F89EA91E00E94622900CE8FE97F
S113345091E0E7DA81E999E0292F2F938F931F9266
S11334601F928FE991E0892F8F938FE991E08F93D9
S1133470BADA0F900F900F900F900F900F9082EA8E
S113348099E0292F2F938F931F9281E08F938FE9D7
S113349091E0892F8F938FE991E08F93A4DA0F90B5
S11334A00F900F900F900F900F9083EB99E0292FBE
S11334B02F938F931F9282E08F938FE991E0892F4E
S11334C08F938FE991E08F938EDA0F900F900F9086
S11334D00F900F900F9084EC99E0292F2F938F93E6
S11334E01F9283E08F938FE991E0892F8F938FE967
S11334F091E08F9378DA0F900F900F900F900F90C8
S11335000F908A859B850E947125898789858038DB
S113351019F089858032A9F78985803809F05AC065
S113352085ED99E0292F2F938F931F9281E08F933C
S11335308FE991E0892F8F938FE991E08F9353DA8C
S11335400F900F900F900F900F900F908A859B858E
S11335500E94712589878985803819F08985803290
S1133560A9F789858038B1F58FE991E05ADA86EEBA
S113357099E0292F2F938F931F921F928FE991E047
S1133580892F8F938FE991E08F932DDA0F900F900D
S11335900F900F900F900F9087EF99E0292F2F93A2
S11335A08F931F9281E08F938FE991E0892F8F93FE
S11335B08FE991E08F9317DA0F900F900F900F908F
S11335C00F900F9089EA91E00E94CE298A859B850D
S11335D00E9444253CCDA8957FCD000001C0000089
S11335E063960FB6F894DEBF0FBECDBFDF91CF91C7
S11335F01F910F91FF90EF900895CF93DF9300D028
S113360000D0CDB7DEB79A8389837C836B838FE93F
S113361091E007DA88E09AE02C812F932B812F9395
S1133620292F2F938F931F921F928FE991E0892F57
S11336308F938FE991E08F93D6D98DB79EB7089673
S11336400FB6F894DEBF0FBECDBF8AE19AE0292FF2
S11336502F938F931F9281E08F938FE991E0892FAD
S11336608F938FE991E08F93BED90F900F900F90B5
S11336700F900F900F908BE29AE0292F2F938F9346
S11336801F9282E08F938FE991E0892F8F938FE9C6
S113369091E08F93A8D90F900F900F900F900F90F7
S11336A00F9089819A810E9444250F900F900F906A
S11336B00F90DF91CF910895CF93DF9300D000D086
S11336C01F92CDB7DEB79D838C83A8958FE991E0D7
S11336D0A8D98CE39AE0292F2F938F931F921F92DE
S11336E08FE991E0892F8F938FE991E08F937BD9B4
S11336F00F900F900F900F900F900F908091AA0150
S1133700882F90E09C012F5F3F4F8DE49AE0432F78
S11337104F932F93292F2F938F931F9281E08F9391
S11337208FE991E0892F8F938FE991E08F935BD993
S11337308DB79EB708960FB6F894DEBF0FBECDBF07
S11337408FE59AE0292F2F938F931F9283E08F9315
S11337508FE991E0892F8F938FE991E08F9343D97B
S11337600F900F900F900F900F900F908C819D8170
S11337700E94712589838981882F90E08031910589
S113378009F44FC08131910534F48430910539F046
S11337900897A1F052C0809709F451C04EC089EA3D
S11337A091E00E949527882341F083E192E00E94F2
S11337B07B2B8C819D814CD088CF3FC080E79AE0E1
S11337C0292F2F938F931F9281E08F938FE991E09C
S11337D0892F8F938FE991E08F9305D90F900F90E4
S11337E00F900F900F900F908C819D810E94282440
S11337F09B838A8321E08A819B818F3F9F4F0CF4B6
S113380020E0222369F08A81682F89EA91E00E94EE
S1133810242783E192E00E947B2B8C819D8118D028
S113382054CF89EA91E00E94B32683E192E00E949A
S11338307B2B8C819D810CD048CFA89597CF00001D
S11338400F900F900F900F900F90DF91CF910895EC
S1133850CF93DF9300D000D01F92CDB7DEB79D8306
S11338608C838FE991E0DDD881E89AE0292F2F93AA
S11338708F931F921F928FE991E0892F8F938FE985
S113388091E08F93B0D80F900F900F900F900F90FE
S11338900F9082E99AE0292F2F938F931F9281E052
S11338A08F938FE991E0892F8F938FE991E08F9324
S11338B09AD80F900F900F900F900F900F9084EA6A
S11338C09AE0292F2F938F931F9283E08F938FE990
S11338D091E0892F8F938FE991E08F9384D80F9093
S11338E00F900F900F900F900F905AC0A8952091B1
S11338F0490230914A0244E6429FC001439F900D21
S11339001124892F99279A8389834CE061E08FE9F8
S113391091E02ED889819A818436910584F485EBCF
S11339209AE02A812F9329812F93292F2F938F9304
S11339300E9431310F900F900F900F9009C089EBC6
S11339409AE0292F2F938F930E9431310F900F907B
S11339508091A3029091A4020E94F3308B8381E0B2
S11339608823F1F08B81882F90E08830910531F025
S11339708031910539F0049741F012C081E08093C1
S113398047020EC0109247020BC089EA91E00E94E0
S113399003281092470283E192E00E94A32B0000C7
S11339A09091460281E0992309F480E0882309F08C
S11339B09DCF0F900F900F900F900F90DF91CF91AC
S11339C00895CF93DF9300D01F92CDB7DEB79B83CA
S11339D08A83A8958FE991E024D88CEB9AE0292F6B
S11339E02F938F931F921F928FE991E0892F8F93CA
S11339F08FE991E08F930E94F3140F900F900F9032
S1133A000F900F900F908DEC9AE0292F2F938F93A6
S1133A101F9281E08F938FE991E0892F8F938FE933
S1133A2091E08F930E94F3140F900F900F900F90DA
S1133A300F900F908EED9AE0292F2F938F931F9262
S1133A4083E08F938FE991E0892F8F938FE991E041
S1133A508F930E94F3140F900F900F900F900F907C
S1133A600F90A8958A819B810E9471258983898101
S1133A70882F90E080319105C1F08131910534F4B3
S1133A808430910551F0089761F013C0803291059C
S1133A9091F08038910589F00CC08A819B8114D003
S1133AA098CF8A819B817ED094CF8A819B81C3D118
S1133AB090CFA895D7CF000001C000000F900F90C1
S1133AC00F90DF91CF910895EF92FF920F931F9380
S1133AD0CF93DF9300D000D0CDB7DEB79C838B8328
S1133AE08FE991E00E9411158FEE9AE0292F2F9310
S1133AF08F931F921F928FE991E0892F8F938FE903
S1133B0091E08F930E94F3140F900F900F900F90F9
S1133B100F900F9080E09BE0292F2F938F931F929B
S1133B2081E08F938FE991E0892F8F938FE991E062
S1133B308F930E94F3140F900F900F900F900F909B
S1133B400F90A8958B819C81EE24E394F12C04EFD3
S1133B5011E023E047E066EC71E083D49A83898323
S1133B608091C6019091C70141E029813A812817CB
S1133B70390709F440E0442351F089819A819093F4
S1133B80C7018093C60189EA91E00E9486260F90BE
S1133B900F900F900F90DF91CF911F910F91FF9095
S1133BA0EF900895CF93DF93CDB7DEB727970FB685
S1133BB0F894DEBF0FBECDBF9F838E831A828FE938
S1133BC091E00E94111581E19BE0292F2F938F939F
S1133BD01F921F928FE991E0892F8F938FE991E0D3
S1133BE08F930E94F3140F900F900F900F900F90EB
S1133BF00F9082E29BE0292F2F938F931F9281E0F5
S1133C008F938FE991E0892F8F938FE991E08F93C0
S1133C100E94F3140F900F900F900F900F900F903D
S1133C20A89519828EC08981880F880F8B8389811A
S1133C30282F30E08A8186958695882F90E0880F1A
S1133C40991F880F991F820F931F80529E4FFC016A
S1133C5080818C834B8162E08FE991E00E94B814EB
S1133C608A81882F90E09C01237033278981882FD3
S1133C7090E02817390701F58981882F90E09C018D
S1133C802F5F3F4F8A8186958695882F90E0880F15
S1133C90991F880F991F280F391F83E39BE0432F37
S1133CA04F932F93292F2F938F930E9431310F908D
S1133CB00F900F900F901FC08981882F90E09C0176
S1133CC02F5F3F4F8A8186958695882F90E0880FD5
S1133CD0991F880F991F280F391F8AE39BE0432FF0
S1133CE04F932F93292F2F938F930E9431310F904D
S1133CF00F900F900F908C81882F90E09C012F5F84
S1133D003F4F81E49BE0432F4F932F93292F2F9311
S1133D108F938B818F9383E08F938FE991E0892F29
S1133D208F938FE991E08F930E94F3148DB79EB720
S1133D3008960FB6F894DEBF0FBECDBF89818F5FA2
S1133D4089838981843008F46ECF8A818370880FD7
S1133D50880F8D5F8B834B8163E08FE991E00E9434
S1133D60B814A8958E819F81BCD68D838D81882FB0
S1133D7090E080319105D9F08131910534F484309B
S1133D80910571F00897D1F04BC08034910569F129
S1133D908038910509F440C0809709F442C040C0BE
S1133DA08A81882319F08A8181508A8339CF8A8154
S1133DB08B3018F48A818F5F8A8332CF8A81882F6F
S1133DC090E080529E4FFC018081843068F48A81A7
S1133DD0882F90E09C0120523E4FF90120812F5FF3
S1133DE080529E4FFC0120831BCF8A81882F90E054
S1133DF080529E4FFC018081882369F08A81882F3C
S1133E0090E09C0120523E4FF901208121508052C4
S1133E109E4FFC01208304CF89EA91E077D702C04A
S1133E20FFCE000027960FB6F894DEBF0FBECDBFBD
S1133E30DF91CF910895CF92DF92EF92FF920F938B
S1133E401F93CF93DF93CDB7DEB761970FB6F89486
S1133E50DEBF0FBECDBF9D838C8319821A828FE98A
S1133E6091E00E94111587E49BE0292F2F938F93F3
S1133E701F921F928FE991E0892F8F938FE991E030
S1133E808F930E94F3140F900F900F900F900F9048
S1133E900F908091C8019091C9016C01E12CF12C23
S1133EA080E00E944D15CC01A0E0B0E0A70196018E
S1133EB0BC01CD010E941F307B018C018091CE0199
S1133EC09091CF019C0140E050E0C801B7010E94ED
S1133ED05530DA01C9019C0188E59BE0432F4F93DB
S1133EE02F93292F2F938F9385E08F9381E08F93C6
S1133EF08FE991E0892F8F938FE991E08F930E944E
S1133F00F3148DB79EB708960FB6F894DEBF0FBEB4
S1133F10CDBF8091CA019091CB016C01E12CF12CB1
S1133F2081E00E944D15CC01A0E0B0E0A70196010C
S1133F30BC01CD010E941F307B018C018091D00116
S1133F409091D1019C0140E050E0C801B7010E946A
S1133F505530DA01C9019C0180E69BE0432F4F9361
S1133F602F93292F2F938F9385E08F9382E08F9344
S1133F708FE991E0892F8F938FE991E08F930E94CD
S1133F80F3148DB79EB708960FB6F894DEBF0FBE34
S1133F90CDBF8091CC019091CD016C01E12CF12C2D
S1133FA082E00E944D15CC01A0E0B0E0A70196018B
S1133FB0BC01CD010E941F307B018C018091D20194
S1133FC09091D3019C0140E050E0C801B7010E94E8
S1133FD05530DA01C9019C0188E69BE0432F4F93D9
S1133FE02F93292F2F938F9385E08F9383E08F93C3
S1133FF08FE991E0892F8F938FE991E08F930E944D
S1134000F3148DB79EB708960FB6F894DEBF0FBEB3
S1134010CDBF8C819D8165D58B83A8958A818823AA
S1134020B1F48B81882F90E08032910561F0803863
S1134030910531F0049709F039C081E08A8306C004
S11340408C819D8146D081E0898300002FC08A81C4
S11340508130A9F48B81882F90E08034910531F070
S11340608038910531F0809721F006C082E08A8380
S113407005C081E0898302C01A82000017C08B81C9
S1134080882F90E08032910561F08038910561F4C9
S11340908C819D811ED08FE991E00E9411151A82B6
S11340A005C081E0898302C01A82000089818823C7
S11340B009F4D9CE61960FB6F894DEBF0FBECDBF1A
S11340C0DF91CF911F910F91FF90EF90DF90CF90F0
S11340D00895CF92DF92EF92FF920F931F93CF93A5
S11340E0DF93CDB7DEB762970FB6F894DEBF0FBE8D
S11340F0CDBF9A87898719821E8286E08F838CE0E0
S113410088878FE991E00E94111580E79BE0292FB1
S11341102F938F931F921F928FE991E0892F8F9392
S11341208FE991E08F930E94F3140F900F900F90FA
S11341300F900F900F9081E89BE0292F2F938F937E
S11341401F9281E08F938FE991E0892F8F938FE9FC
S113415091E08F930E94F3140F900F900F900F90A3
S11341600F900F90A8951A8273C08A81882F90E0CF
S11341709E012A5F3F4F820F931FFC018081482FCD
S113418062E08FE991E00E94B81499818A819817BE
S1134190A9F48A81882F90E09C012F5F3F4F82E928
S11341A09BE0432F4F932F93292F2F938F930E949C
S11341B031310F900F900F900F9014C08A81882F87
S11341C090E09C012F5F3F4F88E99BE0432F4F9382
S11341D02F93292F2F938F930E9431310F900F909B
S11341E00F900F908A81882F90E00296880F991F74
S11341F08C539E4FFC01608171814EE95BE08A81A2
S1134200882F90E09E012A5F3F4F820F931FFC018D
S11342108081972F9F93962F9F93952F9F93942FF1
S11342209F938F9383E08F938FE991E0892F8F93EE
S11342308FE991E08F930E94F3148DB79EB708968F
S11342400FB6F894DEBF0FBECDBF8A818F5F8A831D
S11342508A81833008F489CF89859A8542D48B83F7
S11342608B81882F90E08031910531F08034910565
S113427089F0049741F050C08981823018F4898113
S11342808F5F898349C08981882319F0898181508E
S1134290898342C08981882F90E09E012A5F3F4F25
S11342A0820F931FFC0130818981882F90E0029650
S11342B0880F991FBC016C537E4F89859A850F2EF8
S11342C0F4EBEF2EF12CF02D08E111E023E0432F65
S11342D0C8D09D838C838981882F90E00296880FB3
S11342E0991F8C539E4FFC01208131818C819D81CB
S11342F02817390781F08981882F90E00296880F6A
S1134300991F8C539E4F2C813D81FC013183208366
S113431089EA91E0FBD400008B81803221F08B810B
S1134320803809F01FCF8B81803219F489859A85F2
S113433082DD1A827FC08A81082F10E08A810E9460
S11343404D159C01C8010596880F991F8C539E4FEB
S1134350FC01318320838A81082F10E08A81882F11
S113436090E00596880F991F8C539E4FFC01808125
S113437091819C0140E050E086EE90E0DC010E94D7
S113438086306B017C018A81882F90E00296880F29
S1134390991F8C539E4FFC01808191819C0140E0C8
S11343A050E0C701B6010E945530DA01C9019C01F1
S11343B0C8010896880F991F8C539E4FFC013183C6
S11343C020838A81082F10E08A81882F90E0059647
S11343D0880F991F8C539E4FFC01808191819C0111
S11343E040E050E084EB90E0DC010E9486306B01F9
S11343F07C018A81882F90E00296880F991F8C5344
S11344009E4FFC01808191819C0140E050E0C701F6
S1134410B6010E945530DA01C9019C01C8010B960E
S1134420880F991F8C539E4FFC01318320838A810E
S11344308F5F8A838A81833008F47DCF89EA91E093
S113444065D4A89562960FB6F894DEBF0FBECDBFB3
S1134450DF91CF911F910F91FF90EF90DF90CF905C
S11344600895EF92FF920F931F93CF93DF93CDB7ED
S1134470DEB766970FB6F894DEBF0FBECDBF9E873A
S11344808D87788B6F87498B2A8B1C8B0B8BFE8ACD
S1134490ED8A8A89853010F084E08A8B19821A8229
S11344A08F859889FC01808191819C838B831D82F7
S11344B035C08D81E82FF0E04B815C819A01ADEC31
S11344C0BCEC0E947730969587959695879596953E
S11344D08795880F991F9C01220F331F220F331FCA
S11344E0820F931F9A01281B390BC901282FCF0172
S11344F08B559E4FFC0120838B819C819C01ADECEC
S1134500BCEC0E94773096958795969587959695FD
S113451087959C838B838D818F5F8D838D81843080
S113452040F281E0809395018091A501282F30E02D
S11345308091A601882F90E0880F991FAC01440F49
S1134540551F440F551F840F951F280F391F809145
S1134550A701482F50E064E6649FC001659F900D59
S11345601124280F391F8091A801682F70E048EEAC
S113457053E0649FC001659F900D749F900D1124BA
S1134580820F931F9C838B832B813C818B899C8915
S11345908217930708F042C08B899C899C838B8384
S11345A08B819C819F838E83188635C08885E82FF4
S11345B0F0E04E815F819A01ADECBCEC0E94773053
S11345C0969587959695879596958795880F991FC3
S11345D09C01220F331F220F331F820F931F9A0156
S11345E0281B390BC901282FCF018B559E4FFC0185
S11345F020838E819F819C01ADECBCEC0E947730BE
S11346009695879596958795969587959F838E839E
S113461088858F5F88878885843040F22B813C8130
S11346208D899E892817390708F042C08D899E8993
S11346309C838B838B819C819A8789871B8635C059
S11346408B85E82FF0E049855A859A01ADECBCECE6
S11346500E94773096958795969587959695879538
S1134660880F991F9C01220F331F220F331F820FC3
S1134670931F9A01281B390BC901282FCF018B5591
S11346809E4FFC01208389859A859C01ADECBCEC8E
S11346900E947730969587959695879596958795F8
S11346A09A8789878B858F5F8B878B85843040F2CF
S11346B0A8958A89843000F582EA9BE02C812F93A7
S11346C02B812F93292F2F938F9389898F9383E0A5
S11346D08F938FE991E0892F8F938FE991E08F93E6
S11346E00E94F3142DB73EB7285F3F4F0FB6F894DE
S11346F0DEBF0FBECDBF1EC087EA9BE02C812F9387
S11347002B812F93292F2F938F9389898F9383E064
S11347108F938FE991E0892F8F938FE991E08F93A5
S11347200E94F3148DB79EB708960FB6F894DEBFB7
S11347300FBECDBF9A898989980F8A81E92FE81B1A
S11347408E2F8150482F63E08FE991E00E94B814C6
S11347508D859E85C6D18C878C85882F90E080318D
S11347609105A1F08131910534F484309105A9F0CB
S1134770089709F158C080349105A1F1803891055A
S113478009F44EC0809709F444C04DC08A8188233F
S113479019F08A8181508A8346C08A81282F30E0AB
S11347A08A89882F90E00197281739071CF48A8199
S11347B08F5F8A8338C08A81882F90E08B559E4F03
S11347C0FC018081893068F48A81882F90E09C0103
S11347D02B553E4FF90120812F5F8B559E4FFC01D5
S11347E0208321C08A81882F90E08B559E4FFC0145
S11347F08081882369F08A81882F90E09C012B5561
S11348003E4FF901208121508B559E4FFC0120839E
S11348100AC08F859889FC01808191819C838B8358
S113482081E0898300008981882309F47DCE109278
S113483095018B819C8166960FB6F894DEBF0FBEFE
S1134840CDBFDF91CF911F910F91FF90EF9008950D
S1134850CF93DF93CDB7DEB727970FB6F894DEBFBB
S11348600FBECDBF9F838E838091A901882F90E0D6
S113487001969C838B838CEA9BE02C812F932B8164
S11348802F93292F2F938F931F9282E08F938FE979
S113489091E0892F8F938FE991E08F930E94F31415
S11348A08DB79EB708960FB6F894DEBF0FBECDBF86
S11348B081E0809395018B819C8118161906F4F090
S11348C01A8219820EC089819A8184559E4FFC01F7
S11348D08081882309F009C089819A8101969A838D
S11348E0898389819A81489774F389819A81489749
S11348F02CF489819A8101969C838B83A8958FEBF4
S11349009BE02C812F932B812F93292F2F938F930F
S11349101F9283E08F938FE991E0892F8F938FE922
S113492091E08F930E94F3148DB79EB708960FB64B
S1134930F894DEBF0FBECDBF8E819F81D2D08D8310
S11349408D81882F90E080319105F9F081319105B6
S11349503CF48430910509F445C00897B1F089C04E
S11349608034910509F43EC08038910519F0809790
S113497039F07FC0109295018B819C8101977BC097
S1134980109295018EEF9FEF76C08B819C818831C8
S1134990910514F087E190E09A8389830EC08981A0
S11349A09A8184559E4FFC018081882309F009C0B7
S11349B089819A8101969A83898389819A8147970B
S11349C074F389819A8184559E4FFC0180818823E8
S11349D021F089819A81019602C080E090E09C8355
S11349E08B838CCF8B819C8102979923F4F08B81EC
S11349F09C8102979A8389830EC089819A81845508
S1134A009E4FFC018081882309F009C089819A8125
S1134A1001979A83898389819A81992374F789817B
S1134A209A8101969C838B8323C08B819C810197FF
S1134A3019F41C821B821CC087E190E09A8389834D
S1134A400EC089819A8184559E4FFC018081882300
S1134A5009F009C089819A8101979A8389838981A0
S1134A609A81992374F789819A8101969C838B8317
S1134A7045CFA89561CF27960FB6F894DEBF0FBE39
S1134A80CDBFDF91CF910895CF93DF9300D000D0B5
S1134A9000D0CDB7DEB79E838D8319821A821B8224
S1134AA01C820DC0A895000089819A81AB81BC81CC
S1134AB00196A11DB11D89839A83AB83BC8389812F
S1134AC09A81AB81BC8180349244AF40B10550F3EC
S1134AD026960FB6F894DEBF0FBECDBFDF91CF91FF
S1134AE00895CF93DF9300D01F92CDB7DEB79B8399
S1134AF08A8301C0A8950E94FB11898380E08823E2
S1134B00C9F789810F900F900F90DF91CF9108958D
S1134B10CF93DF9300D000D0CDB7DEB79C838B83D7
S1134B2085E59AEA9093C5018093C40181E090E001
S1134B309093C7018093C60186EE90E09093CD01D7
S1134B408093CC018091CC019091CD019093CB01C5
S1134B508093CA018091CA019091CB019093C901BD
S1134B608093C80186ED91E09093D3018093D201A4
S1134B708091D2019091D3019093D1018093D0017F
S1134B808091D0019091D1019093CF018093CE0177
S1134B9086ED91E09093D9018093D8018091D8015A
S1134BA09091D9019093D7018093D6018091D60139
S1134BB09091D7019093D5018093D4018EE591E033
S1134BC09093DF018093DE018091DE019091DF01FB
S1134BD09093DD018093DC018091DC019091DD01F3
S1134BE09093DB018093DA0148E150E060E070E0EB
S1134BF080EE91E00E94A23044E350E060E070E077
S1134C0084EC91E00E9464351A82198212C02981D1
S1134C103A814BE1429FC001439F900D11248C5C6B
S1134C209F4F60E00E946D3589819A8101969A8335
S1134C30898389819A81489754F30F900F900F903C
S1134C400F90DF91CF910895CF93DF9300D000D0E0
S1134C5000D0CDB7DEB79E838D8380E090E00E94C4
S1134C605F359C838B838B819C8185359A4A21F0A7
S1134C708D819E814DDF2CC044E350E060E070E004
S1134C8084EC91E00E9447351092F8011A8219824F
S1134C901BC029813A814BE1429FC001439F900D83
S1134CA011248C5C9F4F0E945735482F2D813E81E3
S1134CB089819A81820F931F0396FC014083898125
S1134CC09A8101969A83898389819A8148970CF302
S1134CD08D819E812FEFFC0122838D819E81FC01B9
S1134CE022818D819E81FC0120838D819E81FC0126
S1134CF020818D819E81FC01218326960FB6F89434
S1134D00DEBF0FBECDBFDF91CF910895CF93DF9368
S1134D1000D0CDB7DEB79A8389838091C601909184
S1134D20C701853F914030F084EF91E09093C70133
S1134D308093C6018091C6019091C701892B31F4FB
S1134D4081E090E09093C7018093C60144E350E072
S1134D5060E070E084EC91E00E9464350F900F9065
S1134D60DF91CF910895CF93DF9300D000D0CDB7DA
S1134D70DEB79C838B838B819C81FC0120818B819A
S1134D809C81FC0122838B819C81FC0121818B818C
S1134D909C81FC0120838B819C81FC018181282FD3
S1134DA030E04BE1429FC001439F900D11248C5C85
S1134DB09F4F4BE150E0BC0188EF91E00E944735E2
S1134DC08B819C81FC018181882F90E0019648971A
S1134DD074F58B819C81FC018181882F90E0019680
S1134DE09A83898316C02B813C8189819A81820FA1
S1134DF0931F0396FC018081882331F029818B81E4
S1134E009C81FC01218309C089819A8101969A833E
S1134E10898389819A81489734F389819A81489753
S1134E205CF08B819C812FEFFC01218305C08B8179
S1134E309C812FEFFC01218381E00F900F900F9054
S1134E400F90DF91CF910895CF93DF9300D000D0DE
S1134E501F92CDB7DEB79C838B836D838D81882FA2
S1134E6090E02B813C81820F931F0396FC0180818B
S1134E70882309F451C08D81282F30E04BE1429FF3
S1134E80C001439F900D11248C5C9F4F4BE150E077
S1134E90BC0188EF91E00E9447358D81873140F550
S1134EA08B819C812FEFFC0121838D81882F90E0E1
S1134EB001969A83898317C02B813C8189819A81C9
S1134EC0820F931F0396FC018081882339F0298186
S1134ED08B819C81FC01218300000FC089819A8110
S1134EE001969A83898389819A8148972CF305C016
S1134EF08B819C812FEFFC0121838B819C81FC01A0
S1134F0020818B819C81FC0122838B819C812D815A
S1134F10FC01208381E001C080E00F900F900F908E
S1134F200F900F90DF91CF910895CF93DF9300D02E
S1134F3000D0CDB7DEB79C838B838B819C81FC0131
S1134F4020818B819C81FC0121838B819C81FC01CC
S1134F5022818B819C81FC0120838B819C81FC01BB
S1134F608281282F30E04BE1429FC001439F900D86
S1134F7011248C5C9F4F4BE150E0BC0188EF91E021
S1134F800E9447358B819C81FC018281882371F1C9
S1134F908B819C81FC018281882F90E001979A8308
S1134FA0898316C02B813C8189819A81820F931F4A
S1134FB00396FC018081882331F029818B819C81B7
S1134FC0FC01228309C089819A8101979A8389838C
S1134FD089819A81992334F789819A8199235CF490
S1134FE08B819C812FEFFC01228305C08B819C81E6
S1134FF02FEFFC01228381E00F900F900F900F9010
S1135000DF91CF910895CF93DF9300D0CDB7DEB772
S11350109A83898389819A81FC01208189819A817B
S1135020FC01218389819A81FC01228189819A81F1
S1135030FC0120830F900F90DF91CF910895CF93BF
S1135040DF9300D000D0CDB7DEB79C838B8387E19C
S113505090E09A83898316C02B813C8189819A814F
S1135060820F931F0396FC018081882331F089818C
S11350709A8101969A83898309C089819A810197CB
S11350809A83898389819A81992334F789819A81C2
S113509048971CF08FEF9FEF4EC089819A81992326
S11350A014F41A8219822B813C8189819A81820F9E
S11350B0931F0396FC018081882319F08FEF9FEFE3
S11350C03AC02B813C8189819A81820F931F039678
S11350D021E0FC01208329813A814BE1429FC001F8
S11350E0439F900D11248C5C9F4F61E00E946D35AD
S11350F029813A814BE1429FC001439F900D1124C5
S113510001968C5C9F4F6AE570E00E947A35298194
S11351103A814BE1429FC001439F900D11240396B5
S11351208C5C9F4F48E150E0BC0185E691E00E9411
S1135130643589819A810F900F900F900F90DF91C1
S1135140CF910895CF93DF9300D01F92CDB7DEB7F0
S11351509A8389836B838B81883108F03CC08B816F
S1135160882F90E029813A81820F931F039621E0D2
S1135170FC0120838B81282F30E04BE1429FC0014A
S1135180439F900D11248C5C9F4F61E00E946D350C
S11351908B81282F30E04BE1429FC001439F900D4B
S11351A0112401968C5C9F4F6AE570E00E947A3569
S11351B08B81282F30E04BE1429FC001439F900D2B
S11351C0112403968C5C9F4F48E150E0BC0185E6B6
S11351D091E00E9464350F900F900F90DF91CF9172
S11351E00895CF93DF9300D01F92CDB7DEB79A8393
S11351F089836B838B81883118F08FEF9FEF20C0F8
S11352008B81282F30E04BE1429FC001439F900DDA
S113521011248C5C9F4F0E945735882319F48FEF1B
S11352209FEF0EC08B81282F30E04BE1429FC001DD
S1135230439F900D112401968C5C9F4F0E945F3513
S11352400F900F900F90DF91CF910895CF93DF933C
S113525000D000D01F92CDB7DEB79A8389836B83C9
S11352605D834C838B81883110F080E023C08B8177
S1135270282F30E04BE1429FC001439F900D112441
S11352808C5C9F4F0E945735882311F480E012C034
S11352908B81282F30E04BE1429FC001439F900D4A
S11352A0112401968C5C9F4F2C813D81B9010E9491
S11352B07A3581E00F900F900F900F900F90DF914F
S11352C0CF910895CF93DF9300D000D0CDB7DEB750
S11352D09B838A836C838C81883110F080E057C073
S11352E08C81282F30E04BE1429FC001439F900DF9
S11352F011248C5C9F4F0E945735882311F480E061
S113530046C08C81282F30E04BE1429FC001439F6F
S1135310900D11248C5C9F4F60E00E946D358C8150
S1135320882F90E02A813B81820F931F0396FC0112
S113533010828A819B81FC0191818C81981731F5BF
S11353408A819B812FEFFC0121838C81873118F4A2
S11353508C818F5F01C087E1898315C08981882F83
S113536090E02A813B81820F931F0396FC01808188
S1135370882331F08A819B812981FC01218306C025
S113538089818F5F89838981883140F381E00F901F
S11353900F900F900F90DF91CF910895CF93DF93EB
S11353A000D000D0CDB7DEB79C838B838B819C81EA
S11353B0039648E150E060E070E0C4D61A82198296
S11353C012C029813A814BE1429FC001439F900D55
S11353D011248C5C9F4F60E00E946D3589819A8115
S11353E001969A83898389819A81489754F38B81A2
S11353F09C812FEFFC0122838B819C81FC01228103
S11354008B819C81FC0120838B819C81FC01208108
S11354108B819C81FC0121830F900F900F900F9042
S1135420DF91CF910895CF93DF9300D000D0CDB713
S1135430DEB79A8389837C836B8389819A81019700
S113544039F48B819C81019619F489EA91E0FCDBA3
S11354500F900F900F900F90DF91CF910895CF93FD
S1135460DF93CDB7DEB76FEF7FEF81E090E0DBDF56
S1135470DF91CF910895CF93DF9300D000D0CDB7C3
S1135480DEB78C838C81882F90E08651944F9A8369
S1135490898389819A81FC0184918B838B810F900C
S11354A00F900F900F90DF91CF910895CF93DF93DA
S11354B000D000D0CDB7DEB78C838C81882F90E0EC
S11354C08E52944F9A83898389819A81FC018491B5
S11354D08B838B810F900F900F900F90DF91CF9162
S11354E00895CF93DF9300D0CDB7DEB79A83898335
S11354F08FE490E0FC0110828AE490E020ED37E034
S1135500FC01318320838CE490E0FC011182108241
S11355108EE490E02AE0FC01208387E590E027E513
S113552030E0F90120812061FC0120830F900F906D
S1135530DF91CF910895CF93DF9300D0CDB7DEB73D
S113554089836A8399818A81891710F4898101C0CA
S11355508A810F900F90DF91CF910895CF93DF93BD
S113556000D000D000D0CDB7DEB79091460281E0E4
S1135570992309F080E0882341F048E150E065E692
S113558071E084E192E0D5D5ADC0809147028823D3
S113559009F0A8C080914B0290914C02019690931F
S11355A04C0280934B020E948B0E90934A0280938C
S11355B049021B826DC08B81882F90E08B599E4FCE
S11355C0FC018081482F50E08091490290914A0269
S11355D020E031E0281B390B429FC001439F900D0E
S11355E0529F900D112490934E0280934D028B8113
S11355F0882F90E085509E4FFC018081482F50E019
S11356002091490230914A02429FC001439F900D6C
S1135610529F900D11249093500280934F028091D9
S11356204E028C838C81282F30E0809150028D8330
S11356308D81882F90E0820F931F9A8389838B81B9
S1135640882F90E085509E4FFC0120818B81882F0C
S113565090E08B599E4FFC018081622F6CDF8E831A
S11356608E81282F30E089819A812817390728F400
S11356708E81882F90E09A8389838B81882F90E094
S113568029818C5E9D4FFC0120838B818F5F8B83EE
S11356908B81883108F48FCF809148028823B1F43C
S11356A08091490290914A0221E08F3F910509F0CF
S11356B008F420E02223B1F048E150E06BEF71E000
S11356C085E691E036D5109246020CC080914902DD
S11356D090914A0221E0892B09F020E0222311F065
S11356E01092460226960FB6F894DEBF0FBECDBFC9
S11356F0DF91CF910895CF93DF9300D0CDB7DEB77C
S11357009A8389838091F9019091FA0120E031E034
S113571040E050E0BC0180E090E00E94020E109254
S11357204C0210924B021092470210924A021092BD
S113573049021092480281E0809346020F900F9034
S1135740DF91CF910895CF93DF9300D0CDB7DEB72B
S11357509A83898387E590E027E530E0F901208189
S11357602F7EFC0120838091490290914A02AC0172
S113577080914B0290914C0220E030E060E070E0B8
S11357800E94020E81E08093480287E590E027E5BD
S113579030E0F90120812061FC0120830F900F90FB
S11357A0DF91CF910895EF92FF920F931F93CF93C0
S11357B0DF93CDB7DEB764970FB6F894DEBF0FBEA4
S11357C0CDBF1B821C821D821E8280E180930B014F
S11357D080910B0180930A0180910A018093090151
S11357E01F82EAC08F81082F10E08F81882F90E0FC
S11357F08C5E9D4FFC018081682F8F810E94940DE7
S1135800282FC801845D9D4FFC0120838F8133DEE6
S1135810888788850E944D159A8789878F81882F6C
S113582090E080529E4FFC0180818330C9F08F81CB
S1135830882F90E080529E4FFC018081853081F05A
S11358408885882F90E00B96880F991F8C539E4F64
S1135850FC012081318189859A858217930760F440
S11358608F81882F90E0845D9D4FFC018081882F7B
S113587090E09A83898363C08F81882F90E080525F
S11358809E4FFC018081843099F48F81882F90E0B1
S1135890845D9D4FFC018081882F90E09A838983E9
S11358A08885882F90E0875F9E4FFC01108247C057
S11358B08F81882F90E0845D9D4FFC018081882F2B
S11358C090E09C878B878885882F90E00896880FC6
S11358D0991F8C539E4FFC018081918129853A85C3
S11358E0B901BCD3CB019E878D878F81882F90E02F
S11358F0845D9D4FFC018081282F30E040E050E022
S11359008885882F90E00896880F991F8C539E4FA6
S1135910FC0180819181CC01A0E0B0E0BC01CD010B
S11359208ED37B018C0189859A859C0140E050E0EF
S1135930C801B701BAD3DA01C9019A83898389817D
S11359409A818F3F910529F020F08FEF90E09A83A0
S113595089838F81082F10E089810E94BF0D282F31
S1135960C80189579D4FFC0120838F81882F90E0C7
S113597080529E4FFC0180818430D9F48F8196DD62
S1135980282F30E081E090E002C0880F991F2A950B
S1135990E2F7092E000CAA0BBB0B2B813C814D8135
S11359A05E81822B932BA42BB52B8B839C83AD839D
S11359B0BE838F818F5F8F838F81883108F412CFEC
S11359C08B819C81AD81BE8180939F029093A002C4
S11359D0A093A102B093A20264960FB6F894DEBF1E
S11359E00FBECDBFDF91CF911F910F91FF90EF902C
S11359F00895CF93DF9300D000D0CDB7DEB78CE409
S1135A0090E0FC01808191819A838983C1D00E94B6
S1135A1040060E943112809108018F3119F40E94CE
S1135A20171105C080910801803209F497DD809137
S1135A3008018F5F809308019091080181E0923200
S1135A4008F480E08823B1F0AEDE109208018CE403
S1135A5090E0FC01808191819C838B832B813C812C
S1135A6089819A81A901481B590BCA019093450267
S1135A70809344020F900F900F900F90DF91CF917D
S1135A8008951F920F9200905F000F9211240090CE
S1135A905B000F922F933F934F935F936F937F938A
S1135AA08F939F93AF93BF93EF93FF93CF93DF9322
S1135AB0CDB7DEB787E590E027E530E0F901208136
S1135AC02F7EFC01208395DFF89487E590E027E59D
S1135AD030E0F90120812061FC012083DF91CF9126
S1135AE0FF91EF91BF91AF919F918F917F916F91B2
S1135AF05F914F913F912F910F9000925B000F9017
S1135B0000925F000F901F901895CF93DF9300D001
S1135B1000D0CDB7DEB79A8389837C836B83898178
S1135B209A81019739F48B819C81019619F483E160
S1135B3092E0D7DC0F900F900F900F90DF91CF91F0
S1135B400895CF93DF93CDB7DEB76FEF7FEF81E09A
S1135B5090E0DBDFDF91CF910895CF93DF9300D006
S1135B60CDB7DEB79A83898388E390E02FEFFC01F9
S1135B70208387E390E026E7FC0120838DE290E018
S1135B8027E5FC0120830F900F90DF91CF910895BA
S1135B90CF93DF93CDB7DEB76C970FB6F894DEBF23
S1135BA00FBECDBF80915202882339F588E390E07F
S1135BB028E330E0F90120812F7EFC0120838EE26E
S1135BC090E0FC01808189838FE290E0FC01808178
S1135BD0898380915302882341F08FE290E02091E1
S1135BE009012A60FC012083EAC18FE290E0209140
S1135BF009012560FC012083E2C1809152028823BF
S1135C0009F45CC080915202893008F057C08EE2DA
S1135C1090E0FC0180818983809153028823D1F430
S1135C2080915202882F90E001978E52944F9B836B
S1135C308A838A819B81FC0184918C838C81882F47
S1135C4090E02FE230E0F90120818C5A9D4FFC0155
S1135C50208319C080915202882F90E001978E52C0
S1135C60944F9E838D838D819E81FC0184918F83CB
S1135C708F81882F90E02FE230E0F9012081845950
S1135C809D4FFC0120838FE290E020915202222F4D
S1135C9030E0215031092E52344F39872887288526
S1135CA03985F90124912A872A85222F30E0295742
S1135CB03D4FF9012081FC01208381C18091520272
S1135CC0893091F48EE290E0FC01808189838FE237
S1135CD090E0FC018081809384028FE290E0209127
S1135CE09F02FC0120836BC1809152028A3081F5AE
