:100000000C94BA050C94E2050C94E2050C94E205FC
:100010000C94E2050C94E2050C94E2050C94E205C4
:100020000C94E2050C94E2050C94E2050C94E205B4
:100030000C94CD150C94E2050C94E2050C94E205A9
:100040000C94E2050C94E2050C940A0B0C94E20566
:100050000C94E2050C94D0110C94E2050C94E2058A
:100060000C94E2050C94E2050C94E2050C94E20574
:100070000C94E2050C94E2050C949C0B0C94E205A4
:100080000C94E2050C94E2050C94E205760A330C1C
:100090006C0DE31004118111F511E712F915444DAF
:1000A000582063682E202533642D2533643A0025BB
:1000B00032642000464C20002532642000464C204B
:1000C000002532642000464C20003E253032643C3E
:1000D00000202530326420002025303264200020AA
:1000E000464C20003E253032643C002025303264EE
:1000F00020002025303264200020464C20003E2580
:100100003032643C0020253032642000202530321B
:1001100064200020464C20003E253032643C002004
:100120002530326420002025303264200020464CE7
:1001300020003E253032643C00202530326420000F
:100140002025303264200020464C20003E253032ED
:10015000643C0020253032642000202530326420A9
:100160000020464C2000456C736973206469676900
:1001700074616C202B2B0020202020562020256429
:100180002E2564202020202020202000202E2E2E0E
:10019000626F6F74696E672E2E2E202000000000A3
:1001A000000000000000000000000000000000004F
:1001B000000000000000000000000000000000003F
:1001C000000000000000000000000000000000002F
:1001D000000000000000000000000000000000001F
:1001E000000000000000000000000000000000000F
:1001F00000000000000000000000000000FFFFFF02
:10020000FFFFFFFFFFFFFFFFFFFFFFFFFFFFFFFFFE
:10021000FFFFFFFFFFFFFFFFFFFFFFFFFFFFFFFFEE
:10022000FFFFFFFFFFFFFFFFFFFFFFFFFFFFFFFFDE
:10023000FFFFFFFFFFFFFFFFFFFFFFFFFFFFFFFFCE
:10024000FFFFFFFFFFFFFFFFFFFFFFFFFFFFFFFFBE
:10025000FFFFFFFFFFFFFFFFFFFFFFFFFFFFFFFFAE
:10026000FFFFFFFFFFFFFFFFFFFFFFFFFFFFFFFF9E
:10027000FFFFFFFFFFFFFFFFFFFFFFFFFFFFFFFF8E
:10028000FFFFFFFFFFFFFFFFFFFFFFFFFFFFFFFF7E
:10029000FFFFFFFFFFFFFFFFFFFFFFFFFF00222227
:1002A00023242526272828292A2B2C2D2E2F2F30B2
:1002B000313233343536363738393A3B3C3C3D3EC3
:1002C0003F40414243434445464748494A4A4B4CD4
:1002D0004D4E4F5050515253545556575758595AE6
:1002E0005B5C5D5E5E5F60616263646465666768F7
:1002F000696A6B6B6C6D6E6F707172727374757608
:10030000777879797A7B7C7D7E7F7F808182838418
:100310008586868788898A8B8C8D8D8E8F90919229
:1003200093939495969798999A9A9B9C9D9E9FA03B
:10033000A1A1A2A3A4A5A6A7A7A8A9AAABACADAE4C
:10034000AEAFB0B1B2B3B4B5B5B6B7B8B9BABBBC5D
:10035000BCBDBEBFC0C1C2C2C3C4C5C6C7C8C9C96F
:10036000CACBCCCDCECFD0D0D1D2D3D4D5D6D6D780
:10037000D8D9DADBDCDDDDDEDFE0E1E2E3E4E4E591
:10038000E6E7E8E9EAEAEBECEDEEEFF0F1F1F2F3A3
:10039000F4F5F6F7F8F8F9FAFBFCFDFEFF10101182
:1003A00012131415161718191A1B1C1D1E1E1F20B8
:1003B0002122232425262728292A2B2C2D2D2E2FB8
:1003C000303132333435363738393A3B3C3C3D3EB8
:1003D0003F404142434445464748494A4B4B4C4DB8
:1003E0004E4F505152535455565758595A5A5B5CB8
:1003F0005D5E5F60616263646566676869696A6BB8
:100400006C6D6E6F70717273747576777878797AB7
:100410007B7C7D7E7F8081828384858687878889B7
:100420008A8B8C8D8E8F90919293949596969798B7
:10043000999A9B9C9D9E9FA0A1A2A3A4A5A5A6A7B7
:10044000A8A9AAABACADAEAFB0B1B2B3B4B4B5B6B7
:10045000B7B8B9BABBBCBDBEBFC0C1C2C3C3C4C5B7
:10046000C6C7C8C9CACBCCCDCECFD0D1D2D2D3D4B7
:10047000D5D6D7D8D9DADBDCDDDEDFE0E1E1E2E3B7
:10048000E4E5E6E7E8E9EAEBECEDEEEFF0F0F1F2B7
:10049000F3F4F5F6F7F8F9FAFBFCFDFEFF000305AF
:1004A0000608090A0C0D0E1011121314161718194C
:1004B0001A1C1C1E1F2021222324262628292A2B11
:1004C0002C2D2E2F303133333435373838393B3CEF
:1004D0003D3E3F3F4142434445464748494A4B4CD5
:1004E0004D4E4F505152535455565758595A5B5BC5
:1004F0005C5E5F606162636465666667686A6B6CB8
:100500006D6E6E6F7071737474757677787A7A7BAE
:100510007C7D7E7F808182828385868787888A8BA7
:100520008B8C8D8F8F909192939495969798999AA2
:100530009B9C9C9D9F9FA0A1A3A3A4A5A6A7A8A99F
:10054000AAABABACAEAEAFB1B1B2B3B4B5B6B7B89F
:10055000B8B9BBBBBCBEBEBFC1C1C2C3C4C5C6C7A0
:10056000C8C9CACACBCDCDCECFD0D1D2D3D3D4D6A1
:10057000D6D7D8D9DBDBDCDDDEDEDFE1E1E2E3E4A8
:10058000E6E6E7E8E9EAEBEBECEEEEEFF0F1F2F3AA
:10059000F3F4F6F7F8F8F9FAFBFCFDFEFF000305AB
:1005A00007080A0B0C0D0E0F101112131415161755
:1005B0001819191A1B1C1D1D1E1F20202122232360
:1005C00024252526272828292A2A2B2C2C2D2E2E97
:1005D0002F303031323233333435353637373838DF
:1005E000393A3A3B3C3C3D3D3E3F3F404041424230
:1005F0004343444545464647474849494A4A4B4C88
:100600004C4D4D4E4F4F50505151525353545455E1
:10061000565657575859595A5A5B5C5C5D5D5E5F38
:100620005F6060616262636364656566666768688F
:10063000696A6A6B6B6C6D6D6E6F6F7070717272E0
:10064000737474757676777878797A7A7B7C7D7D29
:100650007E7F7F8081818283848485868787888965
:100660008A8B8B8C8D8E8F8F90919293949595968B
:100670009798999A9B9C9D9E9FA0A1A2A3A4A5A692
:10068000A8A9AAABACAEAFB0B2B3B5B6B8BABBBD51
:10069000BFC1C3C5C7CACCD0D3D7DDE4FF000001BA
:1006A0000102020000010102020000010102020039
:1006B0000001010202000106070C0D1213020308DB
:1006C000090E0F141504050A0B101116172020200F
:1006D0004D656D6F72792020253264202020002026
:1006E000202020646F6573206E6F7420202020000E
:1006F000202020202065786973742120202020206C
:100700000020202043757272656E743A2025326491
:100710002020200020202053656C656374203A203F
:1007200025326420202000253033640025303464D5
:1007300000202020204D656D6F7279202020202020
:1007400020002020202020456469742020202020C3
:1007500020200054696D6520202044656C202020F5
:10076000436C72002053656C656374206D656D6F1A
:10077000727920200020746F206564697420746988
:100780006D65202020002020537065636966792004
:100790006E657720202000202020202074696D6560
:1007A00020202020202020002053656C65637420C9
:1007B0006D656D6F7279202000202020746F206499
:1007C000656C6574652020202000202050726573C0
:1007D0007320456E7465722020200020746F2064A1
:1007E000656C657465206D256420202000206F7283
:1007F00020707265737320457363617065002020FB
:1008000020746F2063616E63656C202020200020BF
:10081000507265737320456E74657220746F20008A
:1008200020636C656172206D656D6D6F72696573B3
:1008300000206F722070726573732045736361705E
:100840006500202020746F2063616E63656C20203A
:100850002020002020202070726F636565642020B6
:10086000202020002020436C656172696E67206142
:100870006C6C202000202020206D656D6D6F7269EA
:1008800065732020200020202020204D656D6F7290
:100890007920202020200020202043757272656E70
:1008A000743A202025326420200020202053746FC9
:1008B000726520746F3A20253264202000202020A9
:1008C000204D656D6F72792020202020200020208F
:1008D00043757272656E74202564202020202000EC
:1008E00045646974202053746F20202053746F2B4B
:1008F00000202053746F72656420746F3A202020AA
:1009000020002020202020202020202025642020BE
:100910002020200020202020457363617065642022
:1009200020202020002020202020202020202020E7
:10093000202020202000202053746F7265642074D2
:100940006F3A20202020002020202020202020205E
:10095000202564202020202000202020204D656DAF
:100960006F727920202020202000202020202020AD
:100970002066756C6C202020202000202043726FA0
:10098000737366616465202020202000202070653C
:100990007263656E74203D2020202020200042617B
:1009A000636B2020486F6C64202020476F20002557
:1009B000326400464C00202020506C6179626163F3
:1009C0006B20202020200020204E657874202020DD
:1009D0002025642020202020004261636B202020FD
:1009E000546F2020204E6578740020202053656CC1
:1009F000656374206E65787420200020204F757424
:100A00007075742063757276652020002020202088
:100A1000202074797065202020202020003E253081
:100A200032643C00202530326420002025316420CF
:100A30000020436F6E666967757265202020202054
:100A4000200020202020444D58206164647265738A
:100A50007320002054696D6562617365207365744D
:100A60007570200020202020202020202020202001
:100A700020202020004E65742E205053202020205E
:100A80002020202020004167722E2050532020205B
:100A90002020202020200020203C3C20200020205E
:100AA00020202020002020202020200020203C3C4E
:100AB000202000205265666572656E6365202020E7
:100AC0002020200020202020766F6C7461676573E1
:100AD00020202020003E4C25643C00204C25642032
:100AE000002533640020204C69766520766F6C7495
:100AF0006167652020004C313D25336456004C323F
:100B00003D25336456004C333D2533645600204365
:100B10006F6E66696775726174696F6E2020002060
:100B20002020202053657475702020202020200074
:100B3000446D7820202043757276202044696167D7
:100B40000020204D61696E202020202020202020C0
:100B50002000202020202020204D656E75202020A0
:100B60002020004D656D202020506C6179202020D0
:100B70005374700011241FBECFEFD0E1DEBFCDBF94
:100B800011E0A0E0B1E0E2E1F4E500E00BBF02C05B
:100B900007900D92A631B107D9F712E0A6E1B1E0B6
:100BA00001C01D92A83BB107E1F710E0CEE9D0E00B
:100BB00004C02297FE010E94042ACC38D107C9F74D
:100BC0000C94610A0C940000089508952F923F92AE
:100BD0004F925F926F927F928F929F92AF92BF924D
:100BE000CF92DF92EF92FF920F931F93CF93DF93F9
:100BF000CDB7DEB723970FB6F894DEBF0FBECDBFDB
:100C0000198286E791E00E945F0D80911801882388
:100C100009F4F5C04EE9242E40E0342E34E6832E4C
:100C20002FEA622E20E0722E98EB492E90E0592E8A
:100C3000A8958CE09981989F802D1124082F112769
:100C40008091940190919501800F911F0B969F9335
:100C50008F938091940190919501800F911F9F93A4
:100C60008F933F922F921F921F92E6E7F1E0FF933E
:100C7000EF930E94400D8DB79EB70A960FB6F89479
:100C80009EBF0FBE8DBF055D1E4F0A831B8368018B
:100C90007801AA24BB2483E0982E1A2D1B5FF7014C
:100CA0008081889DC00111246FEF70E00E94CD29E2
:100CB000062F412F61E086E791E00E94250D043662
:100CC00008F075C0802F99279F938F937F926F9222
:100CD0000E9432250F900F900F900F90412F62E0ED
:100CE00086E791E00E94250DF6018481889DC00170
:100CF00011246FEF70E00E94CD29643608F069C0BE
:100D0000862F99279F938F935F924F920E9432254F
:100D10000F900F900F900F90EA81FB818085889D46
:100D2000C00111246FEF70E00E94CD29062F412FE2
:100D300063E086E791E00E94250D043608F040C08C
:100D4000802F99279F938F9381EC90E09F938F93AF
:100D50000E9432250F900F900F900F909A9483E08D
:100D600090E0A80EB91E0894E11CF11C0894C11C67
:100D7000D11CEA81FB813196EA83FB8397FE8DCFFC
:100D80008091B2029091B3020E94F5248F3F49F006
:100D900099278031910571F1813191051CF50497F6
:100DA00061F180911801882309F042CF28C084EBBB
:100DB00090E09F938F930E9432250F900F908ECFDB
:100DC00086EC90E09F938F930E9432250F900F90B6
:100DD000C5CF8DEB90E09F938F930E9432250F90AB
:100DE0000F909ACF80389105E1F687EA92E00E9451
:100DF000CC23D7CFF1E0F983D4CF1982D2CF239679
:100E00000FB6F894DEBF0FBECDBFDF91CF911F911B
:100E10000F91FF90EF90DF90CF90BF90AF909F9099
:100E20008F907F906F905F904F903F902F9008959C
:100E3000CF92DF92EF92FF920F931F93CF93DF93A6
:100E400086E791E00E945F0D81E08093EE01309192
:100E50001701A895383008F0DBC0DD24F4E6CF2E6A
:100E6000EE24FF24E7011E2DFE01E55DFE4F80818B
:100E70008C9DC00111246FEF70E00E94CD29062FD8
:100E80004E2D60E086E791E00E94250D80911701CC
:100E90008D1509F454C22196DF93CF93219781EDEC
:100EA00090E09F938F930E9432250F900F900F90A8
:100EB0000F90412F61E086E791E00E94250D0436F6
:100EC00008F047C1802F99279F938F9388ED90E07A
:100ED0009F938F930E9432250F900F900F900F9049
:100EE000FE01E55DFE4F84818C9DC00111246FEFF2
:100EF00070E00E94CD29062F412F62E086E791E045
:100F00000E94250D80911701282F3327CE010496CA
:100F10002817390709F40CC22596DF93CF9325973C
:100F20008BEE90E09F938F930E9432250F900F904D
:100F30000F900F90412F63E086E791E00E94250D0E
:100F4000043608F00FC1802F99279F938F9382EF6B
:100F500090E09F938F930E9432250F900F900F90F7
:100F60000F90D394219684E090E0E80EF91E93E070
:100F70009D1508F078CF80911701182F1923110FB4
:100F8000110F190F981708F0E1C0412F63E086E7B1
:100F900091E00E94250D8091B2029091B3020E94CF
:100FA000F5248F3F09F4BBC199278031910509F4DD
:100FB000E9C1813191050CF0A0C18430910509F49B
:100FC0000CC2089741F730911701E32FFF27E55D29
:100FD000FE4F808124E6829FC00111246FEF70E0F4
:100FE0000E94CD29062F80818F3F09F432CF808166
:100FF0008F5F80838081829FC00111246FEF70E03A
:101000000E94CD29601779F3A895383008F425CFD0
:10101000303108F0C2C0E4E6CE2EEE24FF24E70112
:1010200073E0D72E1E2DFE01E55DFE4F80858C9D61
:10103000C00111246FEF70E00E94CD29062F4E2DC4
:1010400060E086E791E00E94250D80911701282F2E
:101050003327CE0108962817390709F48CC1299641
:10106000DF93CF93299785E091E09F938F930E9420
:1010700032250F900F900F900F90412F61E086E77F
:1010800091E00E94250D043608F075C0802F992745
:101090009F938F938CE091E09F938F930E943225D2
:1010A0000F900F900F900F90FE01E55DFE4F84852D
:1010B0008C9DC00111246FEF70E00E94CD29062F96
:1010C000412F62E086E791E00E94250D8091170193
:1010D000282F3327CE010C962817390709F444C16D
:1010E0002D96DF93CF932D978FE191E09F938F9370
:1010F0000E9432250F900F900F900F90412F63E0C8
:1011000086E791E00E94250D0436F0F5802F99279F
:101110009F938F9386E291E09F938F930E94322555
:101120000F900F900F900F90DA94219684E090E04A
:10113000E80EF91ED7FE76CF80911701182F137095
:10114000110F110F1D5F8C3008F01FCF412F61E090
:101150001ECF8FED90E09F938F930E9432250F90CA
:101160000F90BECE89EF90E09F938F930E9432251F
:101170000F900F90F6CE83E191E09F938F930E94A2
:1011800032250F900F9090CF8DE291E09F938F9337
:101190000E9432250F900F90C7CF64E6C62EEE2432
:1011A000FF24E70153E0D52E1E2DFE01E55DFE4F25
:1011B00080898C9DC00111246FEF70E00E94CD29C1
:1011C000062F4E2D60E086E791E00E94250D80916C
:1011D0001701282F3327CE0140962817390709F425
:1011E000BCC06196DF93CF93619789E391E09F93B1
:1011F0008F930E9432250F900F900F900F90412FE8
:1012000061E086E791E00E94250D043608F063C096
:10121000802F99279F938F9380E491E09F938F93E2
:101220000E9432250F900F900F900F90FE01E55D08
:10123000FE4F84898C9DC00111246FEF70E00E94E5
:10124000CD29062F412F62E086E791E00E94250D0F
:1012500080911701282F3327CE014496281739078C
:1012600009F474C06596DF93CF93659783E591E0A9
:101270009F938F930E9432250F900F900F900F90A5
:10128000412F63E086E791E00E94250D043660F56A
:10129000802F99279F938F938AE591E09F938F9357
:1012A0000E9432250F900F900F900F90DA942196A4
:1012B00084E090E0E80EF91ED7FE76CF809117010A
:1012C000182F1370110F110F1D5F843108F05DCEC0
:1012D000412F61E05CCE87E491E09F938F930E9461
:1012E00032250F900F90A2CF81E691E09F938F93CC
:1012F0000E9432250F900F90D9CF8034910509F4C8
:101300004AC08038910509F046CE1092EE0187EA76
:1013100092E00E94CC2381E08093EE0167C0A89503
:1013200080911801882309F436CE1092EE015EC038
:101330002596DF93CF93259784EE90E0F3CD219609
:10134000DF93CF9321978AEC90E0ABCD6596DF9346
:10135000CF9365978CE491E08BCF6196DF93CF9329
:10136000619782E391E043CF2D96DF93CF932D9742
:1013700088E191E0BBCE2996DF93CF9329978EEF3A
:1013800090E073CE30911701373108F062CD3F5FA6
:10139000309317015ECD30911701E32FFF27E55DF4
:1013A000FE4F808124E6829FC00111246FEF70E020
:1013B0000E94CD29062F8081882309F44ACD80819F
:1013C000815080838081829FC00111246FEF70E083
:1013D0000E94CD29601779F33CCD3091170133235A
:1013E00009F437CD31503093170133CDDF91CF91D0
:1013F0001F910F91FF90EF90DF90CF9008950F9382
:101400001F93CF93DF93EC0186E691E09F938F9338
:101410001F921F9206E711E01F930F930E94400D49
:101420008DB79EB706960FB6F8949EBF0FBE8DBFC0
:101430001F921F9281E090E09F938F9387E791E046
:101440009F938F931F9281E08F931F930F930E941E
:10145000400D8DB79EB70A960FB6F8949EBF0FBE8B
:101460008DBF8CE891E09F938F931F9283E08F93C1
:101470001F930F930E94400D8DB79EB706960FB62F
:10148000F8949EBF0FBE8DBF8FE392E4AFE0B0E053
:10149000A89500000197A109B109B7FFF9CF789489
:1014A00080911801882341F0CE010E94E605A8959D
:1014B000809118018823C1F7CE010E941807A895D2
:1014C000F7CFCFEFD0E1DEBFCDBF88E190E02EE0D7
:1014D0000FB6F894A89581BD0FBE21BD86E191E0BD
:1014E0000E94FF0980E090E00C94082A089523E010
:1014F00029B91BB885E98AB996E09093950094982C
:101500008C9A2093990010929B008DE980939A0009
:1015100090939D00089523E029B91BB885E98AB905
:1015200096E09093950094988C9A2093990010924D
:101530009B008DE980939A0090939D0008958BB154
:101540008AB14CB1442351F481FD08C081E08093FD
:1015500028014093270140932601089550912801C6
:101560005523A1F0109228014423A9F581E080932E
:101570002501809327018BE591E0909320018093D2
:101580001F0110921C0110921B01089580912701E8
:10159000882311F5809126018823E9F0E0911F014D
:1015A000F09120014193F0932001E0931F0180917D
:1015B0001B0190911C01019690931C0180931B01CB
:1015C00080911B0190911C01489728F08EE1809337
:1015D0002A0150932601089580911B0190911C01CE
:1015E000019690931C0180931B0120911B01309167
:1015F0001C0180919401909195012817390758F3A7
:1016000010921C0110921B015093270181E08093DE
:101610002601C0CF1F920F920FB60F9211242F9365
:101620003F934F935F936F937F938F939F93AF936A
:10163000BF93EF93FF930E949F0AFF91EF91BF9199
:10164000AF919F918F917F916F915F914F913F915A
:101650002F910F900FBE0F901F90189580919B00B7
:1016600080919A0040919C00442351F481FD08C070
:1016700081E0809324014093230140932201089547
:10168000509124015523A1F0109224014423A9F57F
:1016900081E0809321018093230183E491E0909382
:1016A0001E0180931D0110921A01109219010895D4
:1016B00080912301882311F5809122018823E9F08C
:1016C000E0911D01F0911E014193F0931E01E09302
:1016D0001D018091190190911A01019690931A01B0
:1016E000809319018091190190911A01489728F06F
:1016F0008EE1809329015093220108958091190170
:1017000090911A01019690931A01809319012091EA
:10171000190130911A018091940190919501281737
:10172000390758F310921A011092190150932301AE
:1017300081E080932201C0CF1F920F920FB60F92CB
:1017400011242F933F934F935F936F937F938F93C6
:101750009F93AF93BF93EF93FF930E942E0BFF9144
:10176000EF91BF91AF919F918F917F916F915F9119
:101770004F913F912F910F900FBE0F901F90189592
:10178000CF93DF93809100018823E1F480912A01B7
:1017900080931801809118018823F1F580912A0126
:1017A000882329F080912A01815080932A01809119
:1017B0002901882309F454C0809129018150809324
:1017C00029014EC08130C1F190E080912A01882327
:1017D00071F191E090931801809118018823F1F242
:1017E0004BE251E0BA01A3E4B1E0EBE5F1E027E11F
:1017F0000CC08081EB0188832150319611966F5F78
:101800007F4F4F5F5F4F27FDC9CF90818C91891724
:1018100080F38C91EA01EFCFABE5B1E0EBE2F1E0D0
:1018200027E18D918193215027FFFBCFB7CF809186
:101830002901882379F2CDCF809129018093180165
:1018400080911801882309F4A9CFA3E4B1E0EBE269
:10185000F1E027E18D918193215027FFFBCF9ECFAF
:10186000DF91CF91089583E791E00E94770A089570
:101870008FEF8ABB809165008E7F80936500A8986A
:10188000AF9A88E38BBB000000000000000000005E
:10189000000000000000C79808951ABA8FEF8BBBB4
:1018A00080916500816080936500A898AF9A0000E0
:1018B000000000000000000000000000000089B3EC
:1018C000AF9887FF02C08F3F59F708951F93182FD5
:1018D0000E944D0C8FEF8ABB809165008E7F8093B4
:1018E0006500A89AAF9A1BBB000000000000000032
:1018F0000000000000000000AF981F9108950E94B2
:10190000660C80E090E008951F93162F0E944D0C06
:101910008FEF8ABB809165008E7F80936500A898C9
:10192000AF9A1BBB00000000000000000000000098
:1019300000000000AF981F9108950F931F93CF935D
:101940008C0140E050E06BE271E18FE79CE00E9487
:10195000AC2490937501809374018FEF8BBB1ABAFE
:10196000AF98A79A8091650081608093650080910F
:101970006400816080936400A898A09AC5E0C801C3
:101980000E94380CC150C7FFFACF68E3C8010E941B
:10199000840C68E0C8010E94840C66E0C8010E94C3
:1019A000840C61E0C8010E94840C62E0C8010E94BE
:1019B000840C6EE0C8010E94840CCF911F910F919E
:1019C00008950F931F93CF938C0140E050E06BE29A
:1019D00071E18FE79CE00E94AC24909375018093A5
:1019E00074018FEF8BBB1ABAAF98A79A80916500EC
:1019F00081608093650080916400816080936400C1
:101A0000A898A09AC5E0C8010E94380CC150C7FF31
:101A1000FACF68E3C8010E94840C68E0C8010E9404
:101A2000840C66E0C8010E94840C61E0C8010E9439
:101A3000840C62E0C8010E94840C6EE0C8010E9420
:101A4000840CCF911F910F910895FC01262F33270D
:101A50002230310561F02330310524F02330310587
:101A600049F407C02130310529F4405C03C0405FD0
:101A700001C0405B4068642FCF010E94840C089530
:101A80000F931F93CF93DF93CDB7DEB789859A85E8
:101A90000B851C85492F682F8F8198850E94250D05
:101AA000AE01435F5F4FB801809174019091750161
:101AB0000E945725DF91CF911F910F9108950F93A9
:101AC0001F938C0161E00E94840C62E0C8010E94B7
:101AD000840C1F910F91089586E791E00E949D0C60
:101AE0000895CF93DF9385E59AEA909393018093CD
:101AF000920181E090E0909395018093940186EEAD
:101B000090E090939B0180939A0190939901809328
:101B10009801909397018093960186ED91E09093C0
:101B2000A1018093A00190939F0180939E019093C7
:101B30009D0180939C019093A7018093A6019093AF
:101B4000A5018093A4019093A3018093A2018EE547
:101B500091E09093AD018093AC019093AB018093A1
:101B6000AA019093A9018093A8011092C801109234
:101B7000C7011092C60188E1EEEAF1E011928A9560
:101B8000E9F747E350E068E872E082E991E00E94FB
:101B90007A24C0E0D0E060E0CE010E948F246B96F2
:101BA00082E0CD36D807B9F3B4F3DF91CF91089531
:101BB000CF92DF92EF92FF920F931F93CF93DF9319
:101BC0006C0188E892E00E946D2485559A4A21F0C4
:101BD000C6010E94710D28C047E350E068E872E03A
:101BE00082E991E00E9454241092770100E010E015
:101BF00083E0E82EF12CEC0CFD1CC0E0D0E006C028
:101C00000F5F1F4F6B960831110574F4CE010E94CF
:101C10006524F70181937F01882391F3F601818187
:101C200087FFEECF0183ECCF8FEFF60182838083B5
:101C30008183DF91CF911F910F91FF90EF90DF9003
:101C4000CF900895CF92DF92EF92FF920F931F9360
:101C5000CF93DF936C0188E892E00E946D24855554
:101C60009A4A21F0C6010E94710D28C047E350E056
:101C700068E872E082E991E00E94542410927701B2
:101C800000E010E093E0E92EF12CEC0CFD1CC0E02C
:101C9000D0E006C00F5F1F4F6B960831110574F43A
:101CA000CE010E946524F70181937F01882391F37F
:101CB000F601818187FFEECF0183ECCF8FEFF60134
:101CC000828380838183DF91CF911F910F91FF9059
:101CD000EF90DF90CF9008958091940190919501BD
:101CE00021E0893E920738F088EE91E090939501CB
:101CF0008093940105C0892B19F481E090E0F6CF20
:101D000047E350E068E872E082E991E00E947A24BB
:101D1000089547E350E068E872E082E991E00E94AC
:101D200054240895CF93DF93EC0188818A839981AD
:101D3000988397FD2BC08BE19802C001112480503D
:101D400090404BE150E0BC0187E791E00E945424B1
:101D50008981992787FD90950196883191059CF49A
:101D60009C01FC01EC0FFD1F33968191882399F5AE
:101D70002F5F3F4F28313105C4F3283131051CF462
:101D800081E090E02DC08FEF8983FACF81E08093CE
:101D900077018AE590E0909379018093780188E15A
:101DA000EAE7F1E011928A95E9F720E030E0FE01E0
:101DB000339605C02F5F3F4F2831310524F48191C0
:101DC0008823C1F329832831310514F08FEF8983EB
:101DD00080E090E005C02983283131058CF2D3CF13
:101DE000DF91CF9108951F93CF93DF93EC01162FCE
:101DF00067FD30C0FC01E60FF11D8381882319F4D3
:101E000080E090E059C08BE1689FC00111248050B0
:101E100090404BE150E0BC0187E791E00E945424E0
:101E20001731E4F59FEF212F332727FD30952F5FE2
:101E30003F4F2831310564F4F901EC0FFD1F339653
:101E400081918823B9F52F5F3F4F28313105C4F3C5
:101E5000998326C081E0809377018AE590E0909392
:101E600079018093780188E1EAE7F1E011928A959F
:101E7000E9F788818A8368839FEF20E030E0FE01E4
:101E8000339605C02F5F3F4F283131057CF4819197
:101E90008823C1F3298381E090E00EC08FEF89830E
:101EA00088818A83188381E090E006C0998381E06D
:101EB00090E002C02983F4CFDF91CF911F91089564
:101EC000CF93DF93EC01888189839A81988397FD72
:101ED00026C08BE1989FC0011124805090404BE1B7
:101EE00050E0BC0187E791E00E9454248A811816D3
:101EF00044F5282F332727FD30952150304062F0DC
:101F0000F901EC0FFD1F3396808131978823E1F4AE
:101F10002150304037FFF8CF37FF18C012C081E0A2
:101F2000809377018AE590E090937901809378011E
:101F300088E1EAE7F1E011928A95E9F78A811816BB
:101F4000C4F28FEF8A8302C02A83E6CF81E090E05B
:101F5000DF91CF910895FC0180818183828180830C
:101F60000895EF92FF920F931F93CF93DF937C011D
:101F7000C7E1D0E0FC017A9603C02197D7FD05C0E8
:101F8000808131978823C9F32196C831D105ACF5FA
:101F9000D7FD2EC0FE01EE0DFF1D8381882369F55C
:101FA00021E023838BE190E0C89F8001C99F100D41
:101FB000D89F100D1124622FC801805090400E94BC
:101FC0008F246AE570E0C8018F5F9F4F0E949A24BA
:101FD000C8018D5F9F4F48E150E0BC018BE291E06A
:101FE0000E947A24F701818187FD05C0CE0107C0D8
:101FF000C0E0D0E0CFCFC183F9CF8FEF9FEFDF916B
:10200000CF911F910F91FF90EF900895FF920F9342
:102010001F93CF93DF93EC01F62E87E1861718F11B
:10202000FE01E60FF11D91E093838BE1689F800133
:102030001124692FC801805090400E948F246AE5C6
:1020400070E0C8018F5F9F4F0E949A24C8018D5F86
:102050009F4F48E150E0BC018BE291E00E947A245E
:10206000898187FDF982DF91CF911F910F91FF90B8
:102070000895CF93DF93683188F48BE1689FE00186
:102080001124CE01805090400E946524882331F0B5
:10209000CE018F5F9F4F0E946D2402C08FEF9FEF94
:1020A000DF91CF9108950F931F93CF93DF93EA01B0
:1020B000683118F080E090E013C08BE1689F8001E8
:1020C0001124C801805090400E946524882391F318
:1020D000BE01C8018F5F9F4F0E949A2481E090E06B
:1020E000DF91CF911F910F910895EF92FF921F936F
:1020F000CF93DF937C01162F683118F080E090E0D9
:102100003BC08BE1689FE0011124C050D040CE015C
:102110000E946524882391F360E0CE010E948F2401
:10212000212F3327F901EE0DFF1D1382F701818165
:10213000992787FD90958217930719F081E090E029
:102140001BC09FEF173190F4212F2F5F283148F4E7
:10215000F701E20FF11D8381882351F42F5F2831AD
:10216000B8F3F701918381E090E006C027E1F0CF5A
:10217000F701218381E090E0DF91CF911F91FF90E3
:10218000EF9008950F931F93CF93DF938C0188E115
:10219000F801339611928A95E9F7C0E0D0E060E04B
:1021A000CE010E948F246B9682E0CD36D807B9F31A
:1021B000B4F38FEFF801828380838183DF91CF9125
:1021C0001F910F91089589EC91E00E94D80D089518
:1021D00008950895E2E9F1E0E80FF11D848DE82FFC
:1021E000FF27EE0FFF1FEF5FFE4F0190F081E02D04
:1021F000E60FF11D849199270895E82FFF27E356F4
:10220000FA4F84919927089508958CEF83B982B18C
:10221000837082B908953091EF01332319F480E07F
:1022200090E008952091F001E22FFF27EB51FE4F3F
:102230008081273038F01092F00131503093EF0157
:10224000992708952F5F2093F00131503093EF01CB
:102250009927089508950E940B119927009709F076
:1022600008958FEF9FEF089508958CEF83B982B1A1
:10227000837082B9089580910B01882321F08150E9
:1022800080930B01089521B123602F3FB1F080911D
:10229000EE01992781709070882389F08091ED017B
:1022A0008A3018F48F5F8093ED018A3040F0922FCE
:1022B000909580910C01886406C08093ED01922F67
:1022C000909580910C01982399F08091EF018830CE
:1022D00078F43091F101E32FFF27EB51FE4F90830B
:1022E0008F5F8093EF01373048F43F5F3093F10107
:1022F00020930C0182E480930B0108951092F10168
:10230000F7CF82EF91E00E94051108950895089596
:1023100080EC87B98FEC86B9089557B157706091FA
:10232000F3016A30E0F44FB7F894E52FFF27EE0F82
:10233000FF1FEC50FE4F8081918124B135B1820F97
:10234000931F808391834FBF523031F15F5F852FA0
:10235000806C87B95330E8F48FEC86B90895E52F87
:10236000FF27EE0FFF1FDF01AC50BE4F8D919C91F8
:102370001197E650FE4F808391831D921C9252303C
:1023800029F71092F3015F5F852F806C87B9533076
:1023900018F386E686B908956F5F6093F301D6CF90
:1023A00078941F920F920FB60F9211242F933F93A0
:1023B0004F935F936F937F938F939F93AF93BF934D
:1023C000EF93FF930E948D11FF91EF91BF91AF9119
:1023D0009F918F917F916F915F914F913F912F913D
:1023E0000F900FBE0F901F90189508958FEF88BB28
:1023F00086E787BB87E58DB908958FEF88BB86E7B1
:1024000087BB87E58DB90895909151029923A1F476
:10241000C4988EB18FB180915002882309F44CC0CA
:102420008091C6018A608FB9892F8F5F823208F44C
:1024300047C0109251020895892F81508830E0F4EE
:102440008EB180915002882309F43DC0E92FFF2707
:10245000EC54F94F8491E82FFF27E05EFD4F8FB1D8
:102460008083E92FFF27EC54F94F8491E82FFF2751
:10247000EB5FFD4F8081D7CF993079F19A3009F425
:1024800055C0892F8B50883078F58EB180915002DD
:10249000882309F457C0E92FFF27EE54F94F8491A0
:1024A000E82FFF27E05EFD4F8FB18083E92FFF27E4
:1024B000EE54F94F8491DACF8091C6018560B3CF95
:1024C000809351020895E92FFF27EC54F94F84912E
:1024D000E82FFF27E85CFD4FC2CF8EB18FB180930C
:1024E0001D02809101029FCF933109F439C09431CC
:1024F00009F44CC0892F8551883008F038C08EB15E
:1025000080915002882309F04DC0E92FFF27E05544
:10251000F94F8491E82FFF27E85CFD4F8FB180834E
:10252000E92FFF27E055F94F8491A0CFC49AC598B1
:102530008EB18FB180915002882371F08091C701D4
:102540008A6071CFE92FFF27EE54F94F8491E82F6D
:10255000FF27E85CFD4FA8CF8091C701856063CF5E
:102560008EB18FB180931E02809102025CCF9D31AB
:1025700039F19E3109F058CFC69A20E0809150027F
:10258000882309F421E0209350024ECFC59AC698C3
:102590008EB18FB180915002882371F08091C80173
:1025A0008A6041CFE92FFF27E055F94F8491E82F4A
:1025B000FF27E05EFD4FB2CF8091C801856033CF29
:1025C0008EB18FB180931F02809103022CCF82E5E0
:1025D00092E00E94F611089508950895FB01E81B0A
:1025E000F90BF7FD34C0F0936802E0936702861799
:1025F0009707ACF4E1E0F0E0F0936202E09361024F
:10260000F901E41BF50BF7FD15C0F0936602E093AA
:10261000650242175307C4F4E1E0F0E01CC0EFEF9D
:10262000FFEFF0936202E0936102F901E41BF50B06
:10263000F7FFEBCFF095E195FF4FF0936602E09343
:1026400065024217530744F3EFEFFFEF04C0F09524
:10265000E195FF4FC8CFF0936002E0935F02909343
:102660005A028093590290935E0280935D025093C8
:1026700058024093570250935C0240935B02709360
:1026800056026093550230935402209353021092E5
:102690006402109263020895A0916702B0916802EB
:1026A000E0916502F0916602AE17BF0704F18091D8
:1026B0005D0290915E022091610230916202820F70
:1026C000931F90935E0280935D024091630250914C
:1026D00064024E0F5F1F4A175B07B4F55093640204
:1026E0004093630280915B0290915C020895409157
:1026F00063025091640260915B0270915C02809170
:102700005F0290916002680F791F4A0F5B1F4E179E
:102710005F07CCF370935C0260935B0280915D0273
:1027200090915E022091610230916202820F931FAC
:1027300090935E0280935D024E1B5F0B5093640288
:1027400040936302CB01089560915B0270915C023B
:1027500080915F0290916002680F791F70935C0214
:1027600060935B024A1B5B0B5093640240936302CD
:10277000CB01089508951FBC80ED97E09BBD8ABDF5
:102780001DBC1CBC8AE08EBD87B7806187BF0895E1
:102790001FBC80ED97E09BBD8ABD1DBC1CBC8AE0C0
:1027A0008EBD87B7806187BF0895681710F4992799
:1027B0000895862F992708950895AF92BF92DF92CA
:1027C000EF92FF920F931F93CF93DF9380916F024D
:1027D000882351F488E1AAE8B2E0EBE2F1E001904D
:1027E0000D928A95E1F787C080916E02882309F0E7
:1027F00082C08091690290916A02019690936A0268
:10280000809369020E944C1390936C0280936B0238
:102810002AE8A22E22E0B22E97E7E92E91E0F92EC7
:102820000BE211E087E1D82EF8018081482F55276F
:1028300020916B0230916C0280E091E0821B930B3F
:10284000489F9001499F300D589F300D11243093BF
:10285000A4022093A302F7014381242F3327809100
:102860006B0290916C02289FB001299F700D389FD8
:10287000700D11247093A6026093A5028091A402AA
:10288000C82FDD278091A602C80FD11D642FF80143
:1028900080810E94D51399278C179D0708F4EC01BD
:1028A000F501C1935F01DA940F5F1F4F0894E11C9B
:1028B000F11CD7FEB9CF20916D022223A1F48091A3
:1028C0006B0290916C028F3F9105A9F0A0F088E116
:1028D000ABE2B1E0EAE7F1E001900D928A95E1F711
:1028E00020936F0208C080916B0290916C02892B3B
:1028F00011F410926F02DF91CF911F910F91FF9011
:10290000EF90DF90BF90AF90089520E031E040E07D
:1029100050E06091780170917901CA010E94EE1235
:1029200010926A021092690210926E0210926C026A
:1029300010926B0210926D0281E080936F020895F5
:1029400087B78F7E87BF20E030E040916B025091C7
:102950006C02B9018091690290916A020E94EE12A4
:1029600081E080936D0287B7806187BF08952F92C1
:102970003F925F926F927F928F929F92AF92BF929F
:10298000CF92DF92EF92FF920F931F93CF93DF933B
:10299000CDB7DEB724970FB6F894DEBF0FBECDBF1C
:1029A00019821A821B821C8255246EEAA62E61E0CF
:1029B000B62E55E0652E52E0752E42E7842E42E099
:1029C000942ECC24DD2411C053940894C11CD11C36
:1029D0000894811C911C0894611C711C0894A11C12
:1029E000B11C37E1351508F47CC0F601E657FD4F00
:1029F0006081852D0E94EA10E82ED4018C93F601A7
:102A0000E356F94F8491A82FBB27CD018A0F9B1F56
:102A1000FC01E650FE4F20803180329422943FE04A
:102A20002322232433222324F5012081233051F053
:102A3000253041F0FC01EE56FE4F86899789281615
:102A4000390670F5D4018C9199278F3F910519F0C3
:102A500010F08FEF90E00E94FD10D3018C93F501F0
:102A60008081853009F0B0CFF601EB54F94F249105
:102A700081E090E002C0880F991F2A95E2F7AA270B
:102A800097FDA095BA2F29813A814B815C81282B33
:102A9000392B4A2B5B2B29833A834B835C8394CF5E
:102AA0002430C1F0FF2400271127808991899C01DF
:102AB00044275527C801B7010E949A29DC01CB01A0
:102AC000910144275527BC01CD010E94E029DA017C
:102AD000C901BBCF8E2D9927AE56BE4FFD0114AA5A
:102AE000B4CF89819A81AB81BC818093010290939C
:102AF0000202A0930302B093040224960FB6F89446
:102B0000DEBF0FBECDBFDF91CF911F910F91FF9020
:102B1000EF90DF90CF90BF90AF909F908F907F907D
:102B20006F905F903F902F900895CF93DF93CCB537
:102B3000DDB50E9404120E9488110E943B11809111
:102B40000E0190910F01019790930F0180930E0158
:102B500080910D018F31A1F08032B9F08F5F8093A9
:102B60000D018232B8F00E94B71410920D018CB59D
:102B70009DB58C1B9D0B90937102809370020AC0CF
:102B80000E94C00B80910D01E9CF0E94DD1380915E
:102B90000D01E4CFDF91CF91089578941F920F92A9
:102BA0000FB60F9211242F933F934F935F936F9320
:102BB0007F938F939F93AF93BF93EF93FF9387B7C9
:102BC0008F7E87BF0E949515F89487B7806187BF75
:102BD000FF91EF91BF91AF919F918F917F916F91F5
:102BE0005F914F913F912F910F900FBE0F901F90CB
:102BF000189582EA92E00E94BB1308958FE392E455
:102C0000AFE0B0E0A89500000197A109B109B7FFB6
:102C1000F9CF0895EF92FF920F931F937C018B01E0
:102C200086E791E00E945F0D1F930F938DEC96E075
:102C30009F938F931F921F9206E711E01F930F93AC
:102C40000E94400D8DB79EB708960FB6F8949EBFB0
:102C50000FBE8DBF8FED96E09F938F931F9281E003
:102C60008F931F930F930E94400D8DB79EB70696CA
:102C70000FB6F8949EBF0FBE8DBF80EF96E09F9376
:102C80008F931F9282E08F931F930F930E94400DAA
:102C9000C7010E94FE158DB79EB706960FB6F89431
:102CA0009EBF0FBE8DBF1F910F91FF90EF900895B3
:102CB00001C0A8958091B2029091B3020E94F524C0
:102CC0008F3FB9F399270895CF92DF92EF92FF9249
:102CD0000F931F93CF93DF938C018091C901C82F6D
:102CE000DD27C7FDD0952196DF93CF9381E097E054
:102CF0009F938F931F9282E08F9396E7E92E91E046
:102D0000F92EFF92EF920E94400D81E08093EE0138
:102D10008DB79EB708960FB6F8949EBF0FBE8DBFB5
:102D20001C161D060CF086C084E1C82E87E0D82E44
:102D3000A895DF93CF93DF92CF921F9283E08F937A
:102D4000FF92EF920E94400D8DB79EB708960FB686
:102D5000F8949EBF0FBE8DBFC8010E9458169927D8
:102D60008031910589F08131910554F584309105C8
:102D700009F43BC0089741F0A895C8010E94581675
:102D800099278031910579F79E01689714F027E122
:102D900030E0273131055CF4F901E753FE4F8381C0
:102DA000882341F42F5F3F4F27313105ACF3F90100
:102DB000E753FE4F8381882341F5C0E0D0E0B8CFD0
:102DC0008034910591F0813491053CF48097A1F60F
:102DD0001092EE018EEF9FEF41C08038910561F6B1
:102DE0001092EE01CE01019739C0CE01029797FDF6
:102DF0000FC09C01FC01E453FE4F80813197882372
:102E000021F42150304037FFF8CFE901219690CFCF
:102E1000219799F227E130E0E3EEF1E004C0215080
:102E2000304037FDF2CF808131978823C1F3E9012B
:102E300021967ECF20E030E0ECECF1E005C02F5F82
:102E40003F4F283131051CF481918823C1F328318B
:102E500031050CF069CFE901219666CFDF91CF9162
:102E60001F910F91FF90EF90DF90CF9008952F92D8
:102E70003F925F926F927F928F929F92AF92BF929A
:102E8000CF92DF92EF92FF920F931F93CF93DF9336
:102E90004C011B01A42EB22E680144E0421708F435
:102EA000B42E10E0512EF101C081D181E8EAF2E0A8
:102EB00023E0CE016AE070E00E94B9298193CE013F
:102EC0006AE070E00E94B929EB01215027FFF1CFA1
:102ED00081E08093EE0126E7622E21E0722E0A2D1A
:102EE0000B0D9091A9028AE0989FE0011124909126
:102EF000AA0284E6989FC0011124C80FD91F8091AF
:102F0000A802C80FD11D8091AB02282F332788EE6D
:102F100093E0289FA001299F500D389F500D112448
:102F2000C40FD51FCC16DD06A0F4E6019601E8EA31
:102F3000F2E043E0C9016AE070E00E94B9298193A0
:102F4000C9016AE070E00E94B9299B01415047FF26
:102F5000F1CFCE15DF05A0F4E7019701E8EAF2E032
:102F600043E0C9016AE070E00E94B9298193C90178
:102F70006AE070E00E94B9299B01415047FFF1CF00
:102F8000A89553E05B1588F1DF93CF9387E297E034
:102F90009F938F93AF925F937F926F920E94400DA9
:102FA0008DB79EB708960FB6F8949EBF0FBE8DBF23
:102FB000802F811B8150482F63E086E791E00E94BB
:102FC000250DC4010E94581699278031910579F189
:102FD0008131910504F584309105D9F1089709F400
:102FE00043C0552009F47DCF4AC0DF93CF938CE2D4
:102FF00097E09F938F93AF9283E08F937F926F922E
:103000000E94400DEDB7FEB738960FB6F894FEBF9C
:103010000FBEEDBFCDCF8034910589F0813491058D
:1030200054F48097F1F6F101C081D18128C01123B9
:10303000C1F21150D6CF8038910599F620C0E12F0A
:10304000FF27E855FD4F8081882359F28150808306
:10305000C8CF212F33278B2D9927019728173907A0
:103060000CF0BFCF1F5FBDCFE12FFF27E855FD4F0D
:103070008081893008F0B5CF8F5F8083B2CF109206
:10308000EE01CE01DF91CF911F910F91FF90EF9054
:10309000DF90CF90BF90AF909F908F907F906F9078
:1030A0005F903F902F9008954F925F926F927F9222
:1030B0008F929F92AF92BF92CF92DF92EF92FF9248
:1030C0000F931F93CF93DF93EC01F1E34F2EF7E0C3
:1030D0005F2EE6E7AE2EE1E0BE2E72E4872E77E0AB
:1030E000972E63E5662E67E0762EA89586E791E039
:1030F0000E945F0D5F924F921F921F92BF92AF92FC
:103100000E94400D4DB75EB74A5F5F4F0FB6F8940F
:103110005EBF0FBE4DBF9F928F921F9211E01F9313
:10312000BF92AF920E94400D8DB79EB706960FB624
:10313000F8949EBF0FBE8DBF7F926F921F9283E067
:103140008F93BF92AF920E94400D4DB75EB74A5F1A
:103150005F4F0FB6F8945EBF0FBE4DBFCE010E9409
:10316000581699278031910599F0813191050CF01D
:10317000B6C08430910509F4F6C0089709F4B8C0C8
:10318000A895CE010E94581699278031910569F7BC
:1031900086E791E00E945F0D8FE098E09F938F9308
:1031A0001F921F92BF92AF920E94400D8DB79EB7A3
:1031B00006960FB6F8949EBF0FBE8DBF80E298E0D2
:1031C0009F938F931F921F93BF92AF920E94400DC7
:1031D0004DB75EB74A5F5F4F0FB6F8945EBF0FBE44
:1031E0004DBF81E398E09F938F931F9282E08F936E
:1031F000BF92AF920E94400D8DB79EB706960FB654
:10320000F8949EBF0FBE8DBF82E498E09F938F938A
:103210001F9283E08F93BF92AF920E94400D4DB7F3
:103220005EB74A5F5F4F0FB6F8945EBF0FBE4DBFEB
:10323000CE010E945816803811F08032C9F78038CC
:1032400009F053CF83E598E09F938F931F921F93CC
:10325000BF92AF920E94400D8DB79EB706960FB6F3
:10326000F8949EBF0FBE8DBFCE010E9458168038C5
:1032700011F08032C9F7803809F037CF86E791E046
:103280000E945F0D84E698E09F938F931F921F9298
:10329000BF92AF920E94400D4DB75EB74A5F5F4F3D
:1032A0000FB6F8945EBF0FBE4DBF85E798E09F93C1
:1032B0008F931F921F93BF92AF920E94400D89EC93
:1032C00091E00E94C210CE010E94FE158DB79EB7FC
:1032D00006960FB6F8949EBF0FBE8DBF06CF803204
:1032E000910509F458C18038910509F049CF53C1BF
:1032F00088EA97E09F938F931F921F9206E711E051
:10330000BF92AF920E94400D8DB79EB706960FB642
:10331000F8949EBF0FBE8DBF89EB97E09F938F936C
:103320001F9231E0F32EFF92BF92AF920E94400DA8
:10333000CE010E9464166C014DB75EB74A5F5F4FC5
:103340000FB6F8945EBF0FBE4DBF97FDCECEFC0109
:10335000E753FE4F8381882309F0B6C0B601CE0142
:103360000E940A16C2CE84E697E09F938F931F9225
:103370001F9206E711E0BF92AF920E94400D8DB7F9
:103380009EB706960FB6F8949EBF0FBE8DBF85E719
:1033900097E09F938F931F9251E0F52EFF92BF927B
:1033A000AF920E94400DCE010E9464166C014DB791
:1033B0005EB74A5F5F4F0FB6F8945EBF0FBE4DBF5A
:1033C00097FD93CEFC01E753FE4F8381882331F2B2
:1033D000C8010E945F0D86E897E09F938F931F922C
:1033E0001F921F930F930E94400D8DB79EB70696B4
:1033F0000FB6F8949EBF0FBE8DBF87E997E09F93ED
:103400008F931F92FF921F930F930E94400D6C2D7C
:1034100089EC91E00E943910AA2797FDA095BA2F58
:10342000BC01CD012AE431E040E050E00E949A293D
:10343000DC01CB01BC01CD0128EE33E040E050E0DF
:103440000E94E0293093AD022093AC0241E0E42ECB
:10345000F12C0FE017E224E046E06CEA72E0CE01C6
:103460000E9437179C018091AC029091AD024DB73C
:103470005EB74A5F5F4F0FB6F8945EBF0FBE4DBF99
:103480002817390709F431CEC901AA27BB27BC0187
:10349000CD0128EE33E040E050E00E949A29DC01A3
:1034A000CB01BC01CD012AE431E040E050E00E94B4
:1034B000E0293093AD022093AC02A9016C2D89EC78
:1034C00091E00E94531011CEC8010E945F0D8AEC5A
:1034D00097E09F938F931F921F921F930F930E94C9
:1034E000400D8DB79EB706960FB6F8949EBF0FBEDF
:1034F0008DBF0894C11CD11CDF92CF920894C108E3
:10350000D1088BED97E09F938F931F92FF921F93AB
:103510000F930E94400D4DB75EB7485F5F4F0FB6E7
:10352000F8945EBF0FBE4DBF8DEE97E09F938F93D3
:103530001F9282E08F931F930F930E94400D8DB7CF
:103540009EB706960FB6F8949EBF0FBE8DBF8EEF46
:1035500097E09F938F931F9283E08F931F930F9316
:103560000E94400D4DB75EB74A5F5F4F0FB6F894AB
:103570005EBF0FBE4DBFCE010E945816803811F0BD
:103580008032C9F7803809F0B0CD6C2D89EC91E01C
:103590000E947510AACDDF91CF911F910F91FF90DE
:1035A000EF90DF90CF90BF90AF909F908F907F90E3
:1035B0006F905F904F900895CF92DF92EF92FF92BD
:1035C0000F931F93CF93DF93EC0186E791E00E9466
:1035D0005F0D86E898E09F938F931F921F9216E7E6
:1035E000E12E11E0F12EFF92EF920E94400D8091AA
:1035F000C901082F112707FD10950F5F1F4F8DB7C9
:103600009EB706960FB6F8949EBF0FBE8DBF1F9350
:103610000F9387E998E09F938F931F92B1E0DB2E81
:10362000DF92FF92EF920E94400D8DB79EB70896F1
:103630000FB6F8949EBF0FBE8DBF0115110511F492
:1036400001E010E0D092EE01AAEACA2EA8E0DA2E3C
:10365000A8951F930F93DF92CF921F9283E08F93D1
:10366000FF92EF920E94400D8DB79EB708960FB65D
:10367000F8949EBF0FBE8DBFCE010E9458169927A9
:103680008031910581F0813191059CF48430910560
:1036900029F1089741F0A895CE010E945816992764
:1036A0008031910581F70831110594F60F5F1F4FA6
:1036B000CFCF8034910591F0813491053CF480970F
:1036C00051F71092EE018FEF9FEF0FC080389105F8
:1036D00011F71092EE01C801019707C002301105E1
:1036E0000CF4B6CF01501040B3CFDF91CF911F91B2
:1036F0000F91FF90EF90DF90CF9008956F927F929F
:103700008F929F92AF92BF92DF92EF92FF920F93B0
:103710001F93CF93DF93EC012DEBA22E28E0B22E66
:1037200096E7E92E91E0F92E8EEC882E88E0982E0F
:1037300000EE602E08E0702EA89586E791E00E94CA
:103740005F0DBF92AF921F921F92FF92EF920E9465
:10375000400D8DB79EB706960FB6F8949EBF0FBE6C
:103760008DBF8091C901992787FD909501969F9300
:103770008F939F928F921F9211E01F93FF92EF926F
:103780000E94400D8DB79EB708960FB6F8949EBF65
:103790000FBE8DBF7F926F921F9283E08F93FF9237
:1037A000EF920E94400D8DB79EB706960FB6F89423
:1037B0009EBF0FBE8DBFD12ECE010E9458169927F5
:1037C0008830910579F0893091050CF03DC004975F
:1037D00009F441C0A895CE010E9458169927883057
:1037E000910589F7CE010E94DC1A8C019FEF0F3FF3
:1037F000190711F00CF053C084E199E09F938F9367
:103800001F921F92FF92EF920E94400D8DB79EB7BC
:1038100006960FB6F8949EBF0FBE8DBF85E299E065
:103820009F938F931F92DF92FF92EF920E94400D21
:10383000CE010E94FE158DB79EB706960FB6F8947E
:103840009EBF0FBE8DBF78CF8031910541F080972C
:1038500009F0C0CF6EC0CE010E9454186DCF89EC24
:1038600091E00E94B10F8C019FEF0F3F190711F0FB
:103870000CF046C089E599E09F938F931F921F92A9
:10388000FF92EF920E94400D8DB79EB706960FB63D
:10389000F8949EBF0FBE8DBF8AE699E0C1CF602F1E
:1038A00089EC91E00E94061081EF98E09F938F933E
:1038B0001F921F92FF92EF920E94400D8DB79EB70C
:1038C00006960FB6F8949EBF0FBE8DBF0F5F1F4FB9
:1038D0001F930F9382E099E09F938F931F92DF9243
:1038E000FF92EF920E94400DCE010E94FE158DB70F
:1038F0009EB708960FB6F8949EBF0FBE8DBF19C035
:1039000086E399E09F938F931F921F92FF92EF920D
:103910000E94400D8DB79EB706960FB6F8949EBFD5
:103920000FBE8DBF0F5F1F4F1F930F9387E499E06A
:10393000D3CFDF91CF911F910F91FF90EF90DF9048
:10394000BF90AF909F908F907F906F9008950F934E
:103950001F93CF93DF9386E791E00E945F0D8BE783
:1039600099E09F938F931F921F9206E711E01F9398
:103970000F930E94400D4DB75EB74A5F5F4F0FB681
:10398000F8945EBF0FBE4DBF8CE899E09F938F9374
:103990001F9281E08F931F930F930E94400D8DB76C
:1039A0009EB706960FB6F8949EBF0FBE8DBF8EE9E8
:1039B00099E09F938F931F9283E08F931F930F93B0
:1039C0000E94400D4DB75EB74A5F5F4F0FB6F89447
:1039D0005EBF0FBE4DBF80916F02882309F45CC0AB
:1039E0000FEA19E01FC0DF93CF931F930F930E943C
:1039F00032250F900F900F900F908091B20290910E
:103A0000B3020E94F5248F3F49F099278830910531
:103A1000A1F18930910544F5049799F180916F02E5
:103A20008823D1F1A89580916B0290916C0224E6D5
:103A300030E0829FA001839F500D929F500D112472
:103A4000C52FDD274CE061E086E791E00E94250D5F
:103A5000C436D10544F283EB99E09F938F930E9483
:103A600032250F900F90C9CF4097C1F610926E0289
:103A700080916F028823B1F60FC081E080936E02BF
:103A8000CDCF89EC91E00E94AB0F10926E0282EADA
:103A900092E00E94A014C2CFDF91CF911F910F91AD
:103AA0000895AF92BF92CF92DF92EF92FF920F9361
:103AB0001F93CF93DF93EC0166EBA62E69E0B62E41
:103AC00006E711E057ECE52E59E0F52E49EDC42E3E
:103AD00049E0D42EA89586E791E00E945F0DBF9241
:103AE000AF921F921F921F930F930E94400D2DB70C
:103AF0003EB72A5F3F4F0FB6F8943EBF0FBE2DBFB3
:103B00008091CA01992787FD909501969F938F9385
:103B1000FF92EF921F9281E08F931F930F930E9469
:103B2000400D8DB79EB708960FB6F8949EBF0FBE96
:103B30008DBFDF92CF921F9283E08F931F930F93DD
:103B40000E94400D2DB73EB72A5F3F4F0FB6F89445
:103B50003EBF0FBE2DBFCE010E9458169927883058
:103B6000910569F0893091059CF50497B9F1A89504
:103B7000CE010E94581699278830910599F78AEE50
:103B800099E09F938F931F9281E08F931F930F93E0
:103B90000E94400DCE010E9464162DB73EB72A5FE9
:103BA0003F4F0FB6F8943EBF0FBE2DBF3FEF8F3F84
:103BB00093070CF48FCF682F89EC91E00E94F30EED
:103BC00082EA92E00E948514CE010E94A71C82CF57
:103BD0008031910559F0809751F60DC089EC91E044
:103BE0000E94600F882361F7A895C2CF89EC91E00D
:103BF0000E94920EE5CFDF91CF911F910F91FF9020
:103C0000EF90DF90CF90BF90AF9008952F923F92AA
:103C10004F925F926F927F928F929F92AF92BF92DC
:103C2000CF92DF92EF92FF920F931F93CF93DF9388
:103C3000CDB7DEB726970FB6F894DEBF0FBECDBF67
:103C400089839A831B8286E791E00E945F0D8BEF48
:103C500099E09F938F938B818F938F93A6E72A2E62
:103C6000A1E03A2E3F922F920E94400DEDB7FEB791
:103C700036960FB6F894FEBF0FBEEDBF8CE09AE00B
:103C80009F938F93FB81FF9381E08F933F922F92BD
:103C90000E94400D8DB79EB706960FB6F8949EBF52
:103CA0000FBE8DBF9B819C83692EA8958824EC81D3
:103CB000CE2EDD24CC0CDD1CCC0CDD1CE4E24E2E23
:103CC000EAE05E2EC60101968D839E838C01EE2470
:103CD000FF2457017E2CF601EE56FE4FEA0DFB1D28
:103CE000948C4E2D62E086E791E00E94250D6814C9
:103CF00009F460C08D819E819F938F935F924F9254
:103D00000E9432250F900F900F900F90892D9927C8
:103D100001969F938F93EBE2FAE0FF93EF937F92EC
:103D200073E0972E9F923F922F920E94400D8DB785
:103D30009EB708960FB6F8949EBF0FBE8DBF8394B2
:103D40000894A11CB11CE4E0F0E0EE0EFF1E0F5F32
:103D50001F4F8D819E8101968D839E83981408F05C
:103D6000B9CF862D880F880F890D482F692D86E7DA
:103D700091E00E94250DA89589819A810E9458168C
:103D800099278031910569F181319105D4F484300E
:103D90009105A1F1089709F045C09B81A92FBB2788
:103DA000AE56BE4FFD01848D843008F07ECF8F5F0C
:103DB000848F7BCF1F930F93EDE1FAE0FF93EF9396
:103DC0009FCF8034910539F5FB81AF2FBB27AE56CD
:103DD000BE4FFD01848D882309F467CF8150848F05
:103DE00064CFFB81F73108F060CFFF5FFB83F6956E
:103DF000F695FC836B8083E0682257CF9B819923E3
:103E000009F453CF91509B83969596959C836B8034
:103E1000E3E06E224ACF8038910521F489EC91E0ED
:103E20000E946C0E26960FB6F894DEBF0FBECDBF73
:103E3000DF91CF911F910F91FF90EF90DF90CF9086
:103E4000BF90AF909F908F907F906F905F904F90BA
:103E50003F902F900895CF92DF92EF92FF920F93B1
:103E60001F936C0186E791E00E945F0D81E39AE069
:103E70009F938F931F921F9206E711E01F930F935A
:103E80000E94400D4DB75EB74A5F5F4F0FB6F89482
:103E90005EBF0FBE4DBF82E49AE09F938F931F9247
:103EA00081E08F931F930F930E94400DA895B1E07E
:103EB000EB2EF12C08EE11E023E047E064E971E01D
:103EC000C6010E9437179C01809194019091950141
:103ED0004DB75EB74A5F5F4F0FB6F8945EBF0FBE37
:103EE0004DBF2817390741F0309395012093940175
:103EF00089EC91E00E946C0E1F910F91FF90EF9062
:103F0000DF90CF9008958F929F92AF92BF92CF9201
:103F1000DF92EF92FF920F931F93CF93DF93CDB772
:103F2000DEB723970FB6F894DEBF0FBECDBF7C017E
:103F3000BB248091C60189838091C7018A838091C7
:103F4000C8018B8383E59AE09F938F93BF92BF92C2
:103F500096E7C92E91E0D92EDF92CF920E94400DB4
:103F60008DB79EB706960FB6F8949EBF0FBE8DBF55
:103F700084E69AE09F938F93BF9281E08F93DF92C4
:103F8000CF920E94400D8DB79EB706960FB6F8945B
:103F90009EBF0FBE8DBF85E79AE09F938F93BF9220
:103FA00002E00F93DF92CF920E94400D8DB79EB733
:103FB00006960FB6F8949EBF0FBE8DBF86E89AE0B6
:103FC0009F938F93BF9213E01F93DF92CF920E9433
:103FD000400D8DB79EB706960FB6F8949EBF0FBEE4
:103FE0008DBF88E0A82E912E10E1812EA8958981A1
:103FF000803121F48A81803109F45BC085EA9AE03E
:104000009F938F93AF920F93DF92CF920E94400DB8
:104010008DB79EB706960FB6F8949EBF0FBE8DBFA4
:104020008CEA9AE09F938F93AF929F92DF92CF9208
:104030000E94400D8DB79EB706960FB6F8949EBFAE
:104040000FBE8DBF8B2D8E5F40E0682F86E791E01D
:104050000E94250D01C0A895C7010E945816182F6F
:104060008823C9F3992780349105E1F081349105C3
:1040700044F40897B9F11032D9F1103809F0B6CFED
:1040800037C080389105B9F789818093C6018A814C
:104090008093C7018B818093C80189EC91E00E94D5
:1040A0006C0EE9CFBB2009F4B3941B821A821982EB
:1040B000E2CF8B81803109F0A1CF87E99AE09F930D
:1040C0008F93AF920F93DF92CF920E94400D8DB7E6
:1040D0009EB706960FB6F8949EBF0FBE8DBF8EE9B1
:1040E0009AE0A0CFB110BA948B828A828982C3CF22
:1040F00023960FB6F894DEBF0FBECDBFDF91CF91F0
:104100001F910F91FF90EF90DF90CF90BF90AF90F5
:104110009F908F9008952F923F924F925F926F924F
:104120007F928F929F92AF92BF92CF92DF92EF9247
:10413000FF920F931F93CF93DF93CDB7DEB72597F1
:104140000FB6F894DEBF0FBECDBF8C839D8388244D
:10415000898286E08A838CE08B8386E791E00E94E7
:104160005F0D83EB9AE09F938F938F928F9216E768
:10417000612E11E0712E7F926F920E94400D8DB7DB
:104180009EB706960FB6F8949EBF0FBE8DBF84EC07
:104190009AE09F938F938F9281E08F937F926F929B
:1041A0000E94400DEDB7FEB736960FB6F894FEBFED
:1041B0000FBEEDBFB1EE4B2EBAE05B2EABED2A2E5B
:1041C000AAE03A2EA8959924F1E0EF2EF12CEC0EFE
:1041D000FD1E00E010E0E6E9AE2EE1E0BE2EF701A4
:1041E000408162E086E791E00E94250D891409F480
:1041F0009FC00F5F1F4F1F930F93015010403F92BE
:104200002F920E9432250F900F900F900F90F50182
:10421000819191915F019F938F935F924F92F701EC
:1042200081917F018F9373E0C72ECF927F926F921F
:104230000E94400D8DB79EB708960FB6F8949EBFAA
:104240000FBE8DBF93940F5F1F4F92E0991538F604
:104250009C2C8C819D810E945816B82E9927803104
:10426000910509F49FC0813191050CF06CC0049751
:1042700009F49EC0F0E2BF1621F080E8B81609F0FC
:10428000A1CF90E2B91609F498C052E0952E4AEFFA
:10429000442E41E0542E32E9632E31E0732EF201B8
:1042A000819191912F01929582958F7089279F70AE
:1042B0008927F301828793875C01CC24DD24C60122
:1042C000B50126EE30E040E050E00E949A299B01C3
:1042D000AC01F301848195817C0100271127CA017B
:1042E000B901A80197010E94E029F301208B318BCD
:1042F000C601B50124EB30E040E050E00E949A296D
:10430000DC01CB01BC01CD01A80197010E94E0298D
:10431000F301268B378B9A9482E090E0680E791E29
:1043200097FEBDCF89EC91E00E946C0EA89545C028
:104330000F5F1F4F1F930F930150104085ED9AE0C0
:104340009F938F935ECF8034910509F093CF882D92
:104350009927E1E0F0E0EC0FFD1FE80FF91F6C0179
:10436000C80ED91EC6018A569E4F64EBE62EF12C6C
:1043700008E111E0292D4081BC018C819D810E94C2
:1043800037179C01F601EE56FE4F84819581821706
:10439000930709F46FCF2483358389EC91E00E9461
:1043A0006C0E68CFE1E0E81508F464CF8E0E62CFA2
:1043B000882009F45FCF8A945DCF25960FB6F894D4
:1043C000DEBF0FBECDBFDF91CF911F910F91FF9048
:1043D000EF90DF90CF90BF90AF909F908F907F90A5
:1043E0006F905F904F903F902F9008958F929F9283
:1043F000BF92CF92DF92EF92FF920F931F93CF93D2
:104400004C01C0E086E791E00E945F0D8FEF9FEFC7
:1044100090930F0180930E010FC099278032910570
:1044200009F425C18132910504F5049709F416C1F8
:1044300080910E0190910F0197FD43C08091B202CF
:104440009091B3020E94F524A8958F3F89F3CC2365
:1044500021F3C13051F199278032910509F407C148
:104460008038910599F0C0E0E3CF8038910501F7DD
:10447000C4010E94831F86E791E00E945F0D8FEFC9
:104480009FEF90930F0180930E01D2CFC4010E9441
:104490008B2086E791E00E945F0D8FEF9FEF909356
:1044A0000F0180930E01C0E0C3CF9927803491059E
:1044B00009F4DBC0813491050CF0D2C0809799F6E5
:1044C000D6C085EE9AE09F938F931F921F9266E766
:1044D000C62E61E0D62EDF92CF920E94400D8091D1
:1044E0009601909197017C01002711278DB79EB707
:1044F00006960FB6F8949EBF0FBE8DBF8091FA014D
:104500009091FB01929582958F7089279F708927E2
:104510009C0144275527C801B7010E949A297B01B5
:104520008C0180919C0190919D019C01442755270D
:10453000C801B7010E94E0293F932F9386EF9AE0CC
:104540009F938F9345E0B42EBF9281E08F93DF92CB
:10455000CF920E94400D80919801909199017C0129
:10456000002711278DB79EB708960FB6F8949EBF07
:104570000FBE8DBF8091FC019091FD0192958295B7
:104580008F7089279F7089279C0144275527C80170
:10459000B7010E949A297B018C0180919E01909124
:1045A0009F019C0144275527C801B7010E94E029BB
:1045B0003F932F938EEF9AE09F938F93BF9282E069
:1045C0008F93DF92CF920E94400D80919A0190913B
:1045D0009B017C01002711278DB79EB708960FB667
:1045E000F8949EBF0FBE8DBF8091FE019091FF0198
:1045F000929582958F7089279F7089279C01442707
:104600005527C801B7010E949A297B018C0180912E
:10461000A0019091A1019C0144275527C801B70131
:104620000E94E0293F932F9386E09BE09F938F9316
:10463000BF9283E08F93DF92CF920E94400D84EF70
:1046400091E090930F0180930E018DB79EB708966D
:104650000FB6F8949EBF0FBE8DBFF0CEC1E0E8CE7E
:104660008038910521F0C0E0E3CEC2E0E1CE81E0E8
:10467000882309F4DDCECF911F910F91FF90EF9029
:10468000DF90CF90BF909F908F900895AF92BF9290
:10469000CF92DF92EF92FF920F931F93CF93DF930E
:1046A000EC01FEE0AF2EFBE0BF2E06E711E0EFE1EC
:1046B000EE2EEBE0FE2E70E3C72E7BE0D72EA89502
:1046C00086E791E00E945F0DBF92AF921F921F920A
:1046D0001F930F930E94400D8DB79EB706960FB69D
:1046E000F8949EBF0FBE8DBFFF92EF921F9281E0A4
:1046F0008F931F930F930E94400D8DB79EB7069620
:104700000FB6F8949EBF0FBE8DBFDF92CF921F925F
:1047100083E08F931F930F930E94400DA8958DB750
:104720009EB706960FB6F8949EBF0FBE8DBFCE0102
:104730000E94581699278031910581F081319105A9
:104740008CF484309105C9F0089799F0A895CE01B2
:104750000E94581699278031910581F7CE010E9459
:10476000F621ADCF8032910561F08038910571F767
:1047700008C0CE010E94061EA2CFCE010E942B1FB0
:104780009ECFDF91CF911F910F91FF90EF90DF901F
:10479000CF90BF90AF900895AF92BF92CF92DF922B
:1047A000EF92FF920F931F93CF93DF93EC0111E4ED
:1047B000A12E1BE0B12E06E711E0B2E5CB2EBBE047
:1047C000DB2EA3E6EA2EABE0FA2EA89586E791E071
:1047D0000E945F0DBF92AF921F921F921F930F9383
:1047E0000E94400D8DB79EB706960FB6F8949EBFF7
:1047F0000FBE8DBFDF92CF921F9281E08F931F93E8
:104800000F930E94400D8DB79EB706960FB6F89491
:104810009EBF0FBE8DBFFF92EF921F9283E08F93DA
:104820001F930F930E94400D8DB79EB706960FB64B
:10483000F8949EBF0FBE8DBFCE010E9458169927D7
:104840008031910581F0813191058CF4843091059E
:10485000E9F0089799F0A895CE010E94581699277B
:104860008031910581F7CE010E944623AECF803280
:10487000910579F08038910571F70BC0809118018E
:10488000882349F7CE010E94511D03C0CE010E942A
:104890007E1BDF91CF911F910F91FF90EF90DF90E2
:1048A000CF90BF90AF9008954115510569F0DC019C
:1048B000E199FECF7FBB6EBBE09A6F5F7F4F0DB279
:1048C0000D9241505040B1F70895E199FECF9FBB42
:1048D0008EBBE09A99278DB30895E199FECF9FBBD7
:1048E0008EBBE09A01960DB29FBB8EBBE09A802DE5
:1048F0009DB308954115510589F0DC018FB7E19909
:10490000FECF7FBB6EBB0D900DBAF894E29AE19A90
:104910008FBF6F5F7F4F4150504089F70895E199F5
:10492000FECF9FBB8EBB6DBB0FB6F894E29AE19AA7
:104930000FBE0895FFEF0FB6E199FECF9FBB8EBB70
:104940006DBBF894E29AE19A0FBEF0FF08958F5F75
:104950009F4F672FFF27F0CF0F931F93CF93DF93C6
:104960008C01EB010097A1F16CE070E081E090E038
:104970000E942828FC01892B21F1209751F0C28741
:10498000D38721E023838091B2029091B302892BD7
:10499000D1F001151105A9F000871187038102608C
:1049A0000383A091B402B091B502AB2B51F4F09304
:1049B000B502E093B402C091B602D091B702CD2BFC
:1049C00051F0CF010DC0F093B302E093B202E1CFFA
:1049D000672B51F605C0F093B702E093B602F1CF12
:1049E000DF91CF911F910F910895CF93DF93EC0149
:1049F0002B81822F992780FF30C086FD16C082FF51
:104A00001DC0E881F9813191432F552747FD50950D
:104A1000E883F98341155105F1F0AE81BF8111960C
:104A2000AE83BF83842F99271AC02F7B2B838E815F
:104A30009F8101968E839F838A81F5CFEA85FB85CE
:104A40000995AC018FEF4F3F580739F72B81206153
:104A50002B83CA0104C020622B838FEF9FEFDF916D
:104A6000CF910895CF93DF93CDB7DEB745E050E007
:104A70004C0F5D1FFA0121913191AF01A091B40259
:104A8000B091B502FD01838188608383B901809173
:104A9000B4029091B5020E946825E091B402F091B1
:104AA000B5022381277F2383DF91CF9108950F9350
:104AB0001F938C01FC01838188608383C8010E945D
:104AC0006825F8012381277F23831F910F91089583
:104AD0002F923F924F925F926F927F928F929F920E
:104AE000AF92BF92CF92DF92EF92FF920F931F93FC
:104AF000CF93DF93CDB7DEB762970FB6F894DEBFE2
:104B00000FBECDBFAA24BB2465014C016D877E87F3
:104B10004F87588B44245524FC0146825782838159
:104B200081FD66C28FEF9FEF7AC240FE4FC2862D95
:104B300080538A30F0F4F0E36F1651F42A8922236F
:104B400039F4772029F480E091E0482A592A50C2AC
:104B50008AE09A89989F902D1124892F860D805381
:104B60008A8B882314F4EFE7EA8B43FC41C27A88EE
:104B70003FC243FE05C0FA89FF2311F421E02A8BCE
:104B8000862D992787FD90958836910554F58536B1
:104B900091050CF06FC08835910509F4D7C08935AF
:104BA0009105B4F48B32910509F442C08C32910521
:104BB00044F48032910509F43FC0839709F446C05C
:104BC000FBC18D329105E9F18E9709F444C0F4C11F
:104BD0008336910509F458C08436910509F47CC0E8
:104BE000EBC18037910509F4A9C08137910584F4A0
:104BF0008C369105D1F18D3691052CF489369105CD
:104C000009F46AC0D9C18F36910509F494C0D4C1A2
:104C10008537910509F49CC08637910524F48337C4
:104C20009105D9F1C9C18837910509F48FC0C4C174
:104C300080E190E0482A592AE0E2F0E04E2A5F2A1B
:104C4000D7C180E890E0482A592AD2C1E0E4F0E0D8
:104C50004E2A5F2ACDC188E090E0482A592AEFEF1A
:104C6000FEEF4E225F221A8AC3C184E090E0482AF8
:104C7000592ABEC10F2EFFE3AF2EF02D7A940F2ECE
:104C8000F3E66F2EF02D40C1EF85F889CF01029633
:104C90008F87988BA0807A9437C1EF85F889CF01F0
:104CA00002968F87988BA080B18043FE0BC0EA8963
:104CB0008E2F992787FD9095BC01C5010E948F29F1
:104CC000898B07C0F50101900020E9F73197EA19B7
:104CD000E98BF9897F1A18C142FE0BC0EF85F8896C
:104CE000CF0104968F87988B208131814281538137
:104CF0000DC0EF85F889CF0102968F87988B808150
:104D000091819C01442737FD4095542F59016A0138
:104D1000552364F4E2E0F0E04E2A5F2AD094C09478
:104D2000B094A094A11CB11CC11CD11C8FEB9FEFAF
:104D3000482259222BC098E0998B0AC0E0E4F0E0A9
:104D40004E2A5F2A0F2EF8E76F2EF02DF0E1F98B37
:104D500042FE0BC0EF85F889CF0104968F87988BB0
:104D600020813181428153810BC0EF85F889CF01C9
:104D700002968F87988B808191819C0144275527CB
:104D800059016A01EFECFFEF4E225F221E010894E9
:104D9000211C311CF989EF2EFF2400271127C601A1
:104DA000B501A80197010E94E029DC01CB01F101C6
:104DB00080838A301CF0860D815203C0F10180810E
:104DC000805DF10181931F01C601B501A801970122
:104DD0000E94E02959016A0121153105410551055B
:104DE000F1F6CE010196A22CA81AC201827390702E
:104DF000892B09F07A9446FE0FC0872D992787FDED
:104E00009095F989F03131F40F2EFEEF7F2EF02DC1
:104E1000780E02C0782E7A9443FE12C08A89282F19
:104E2000332727FD30958A2D9927821793072CF079
:104E3000E7EFFFEF4E225F2203C0FA89FA19FA8BDF
:104E400043FE03C02A89721A01C07A18C201807811
:104E50009170892B69F4872D7A9418164CF4B4015B
:104E600080E290E00E944428872D7A941816BCF3C3
:104E700041FE06C0B4018DE290E00E9444280FC0BC
:104E800044FE06C0B4018BE290E00E94442807C0B3
:104E900045FE05C0B40180E290E00E94442846FE31
:104EA0000FC0B40180E390E00E94442889898031DA
:104EB00039F4B401862D992787FD90950E944428E6
:104EC000852D992780FF0DC0872D7A9418164CF4F4
:104ED000B40180E390E00E944428872D7A9418164C
:104EE000BCF343FE11C08A89982F91509A8B1816F3
:104EF0005CF4B40180E390E00E9444288A89E82FA2
:104F0000E150EA8B1816ACF347FC0DC0872D7A945C
:104F100018164CF4B40180E290E00E944428872DDA
:104F20007A941816BCF3F3E66F1641F48A2DB40197
:104F3000992787FD90950E9444282EC023E762168A
:104F4000B1F489898150898B8F3F31F1F5018081DE
:104F50000894A11CB11CB401992787FD90950E946B
:104F6000442899899150998B9F3F81F715C0CE01B4
:104F700001968215930581F001E010E00C0F1D1FD2
:104F8000F10182911F01B401992787FD90950E943C
:104F9000442802151305A1F747FE15C0872D7A9402
:104FA00018168CF4B40180E290E00E944428872D0A
:104FB0007A941816BCF307C0B401862D992787FD93
:104FC00090950E9444284424552412C0F5E26F169F
:104FD00041F44424552443941A8A7A882AE0298B80
:104FE00007C0B401862D992787FD90950E9444281B
:104FF000F401838183FF08C0ED85FE85CF01019612
:105000008D879E87649005C0ED85FE856190ED8754
:10501000FE87662009F089CDF4018681978162962A
:105020000FB6F894DEBF0FBECDBFDF91CF911F91B9
:105030000F91FF90EF90DF90CF90BF90AF909F9037
:105040008F907F906F905F904F903F902F9008953A
:105050000F931F93CF93DF93869F8001879F100D3F
:10506000969F100D1124C8010E947728EC0100972B
:1050700029F0A80160E070E00E948829CE01DF914C
:10508000CF911F910F9108950F931F93CF93DF93AB
:105090008C01EB018B81992781FF22C082FF14C014
:1050A0002E813F818C819D81281739073CF4E8814E
:1050B000F9810193E883F9832E813F812F5F3F4F70
:1050C0002E833F83C8010EC0E885F985802F09959E
:1050D000892B31F4AE81BF811196AE83BF83F2CFAD
:1050E0008FEF9FEFDF91CF911F910F910895CF9395
:1050F000DF939C01029710F422E030E040E050E0A2
:105100006091B0027091B102FB01DA016115710585
:1051100069F1808191818217930709F452C02817A1
:10512000390738F44115510519F08417950708F42B
:10513000AC01DF010280F381E02D309751F741157A
:105140005105A1F0DA01A21BB30B149708F443C078
:10515000DB010AC06D917C9111976417750709F402
:1051600050C0FD01A281B3811097A1F7E091AE027A
:10517000F091AF02309741F4E0911201F0911301E8
:10518000F093AF02E093AE024091100150911101F3
:105190004115510529F14E1B5F0B42175307E8F0EB
:1051A000C901029648175907C0F0EF01C20FD31F7B
:1051B0002296D093AF02C093AE0221933193CF01D8
:1051C00042C01097B1F082819381ED018A839B8365
:1051D000CF01029638C09A01BBCF80E090E033C087
:1051E0004DB75EB7A0911401B09115014A1B5B0B3E
:1051F000D2CF228133813093B1022093B002CF010C
:10520000E8CF2417350761F0EA01C21BD30BFD017B
:10521000EC0FFD1F219331932297CD93DC93CFCFD9
:10522000309741F0ED014A815B8142835383CD0188
:10523000029609C0FD01828193819093B10280930F
:10524000B002CD01F5CFDF91CF910895CF93DF93D9
:10525000009709F45AC0DC011297ED011A821B82F3
:105260008091B0029091B1020097D9F1FC0140E029
:1052700050E0EA17FB0748F4AF010280F381E02D0C
:105280003097A1F0EA17FB07B8F3ED01EA83FB833F
:105290002D913C911197E901CA0FDB1FCE010296B7
:1052A0008E179F0719F141155105D9F0EA01AA831C
:1052B000BB83CA01029628813981820F931F8A1706
:1052C0009B0719F56D917C911197260F371F2E5F63
:1052D0003F4F28833983FD01428153814A835B8399
:1052E00014C0B093B102A093B0020FC06A817B8159
:1052F000260F371F2E5F3F4F2D933C93119722812E
:105300003381FD0122833383CECFDF91CF91089586
:10531000DC0101C06D9341505040E0F70895FC015D
:105320006150704001900110D8F7809590958E0FD4
:105330009F1F0895629FD001739FF001829FE00D2F
:10534000F11D649FE00DF11D929FF00D839FF00D04
:10535000749FF00D659FF00D9927729FB00DE11DB0
:10536000F91F639FB00DE11DF91FBD01CF0111248D
:105370000895AA1BBB1B51E107C0AA1FBB1FA6179C
:10538000B70710F0A61BB70B881F991F5A95A9F7EE
:1053900080959095BC01CD01089597FB092E0726B5
:1053A0000AD077FD04D0E5DF06D000201AF470950E
:1053B00061957F4F0895F6F7909581959F4F0895D9
:1053C000A1E21A2EAA1BBB1BFD010DC0AA1FBB1F09
:1053D000EE1FFF1FA217B307E407F50720F0A21B7B
:1053E000B30BE40BF50B661F771F881F991F1A94E8
:1053F00069F760957095809590959B01AC01BD0112
:10540000CF010895EE0FFF1F0590F491E02D099450
:02541000FFCFCC
:10541200029D049D039D029D029D0142FF01F40134
:065422000000B8022000AA
:105428000000000000000000000000000000000074
:105438000000000000000000000000000000000064
:105448000000000000000000000000000000000054
:105458000000000000000000000000000000000044
:00000001FF
